{
  "contractName": "SixElements",
  "abi": [
    {
      "inputs": [
        {
          "internalType": "string",
          "name": "name",
          "type": "string"
        },
        {
          "internalType": "string",
          "name": "symbol",
          "type": "string"
        }
      ],
      "stateMutability": "nonpayable",
      "type": "constructor"
    },
    {
      "anonymous": false,
      "inputs": [
        {
          "indexed": true,
          "internalType": "address",
          "name": "owner",
          "type": "address"
        },
        {
          "indexed": true,
          "internalType": "address",
          "name": "approved",
          "type": "address"
        },
        {
          "indexed": true,
          "internalType": "uint256",
          "name": "tokenId",
          "type": "uint256"
        }
      ],
      "name": "Approval",
      "type": "event"
    },
    {
      "anonymous": false,
      "inputs": [
        {
          "indexed": true,
          "internalType": "address",
          "name": "owner",
          "type": "address"
        },
        {
          "indexed": true,
          "internalType": "address",
          "name": "operator",
          "type": "address"
        },
        {
          "indexed": false,
          "internalType": "bool",
          "name": "approved",
          "type": "bool"
        }
      ],
      "name": "ApprovalForAll",
      "type": "event"
    },
    {
      "anonymous": false,
      "inputs": [
        {
          "indexed": true,
          "internalType": "address",
          "name": "player",
          "type": "address"
        },
        {
          "indexed": false,
          "internalType": "uint256",
          "name": "element1",
          "type": "uint256"
        },
        {
          "indexed": false,
          "internalType": "uint256",
          "name": "rank1",
          "type": "uint256"
        },
        {
          "indexed": false,
          "internalType": "uint256",
          "name": "element2",
          "type": "uint256"
        },
        {
          "indexed": false,
          "internalType": "uint256",
          "name": "rank2",
          "type": "uint256"
        }
      ],
      "name": "Receive",
      "type": "event"
    },
    {
      "anonymous": false,
      "inputs": [
        {
          "indexed": true,
          "internalType": "address",
          "name": "player",
          "type": "address"
        },
        {
          "indexed": false,
          "internalType": "uint256",
          "name": "element",
          "type": "uint256"
        },
        {
          "indexed": false,
          "internalType": "uint256",
          "name": "reward",
          "type": "uint256"
        }
      ],
      "name": "Redeem",
      "type": "event"
    },
    {
      "anonymous": false,
      "inputs": [
        {
          "indexed": true,
          "internalType": "address",
          "name": "from",
          "type": "address"
        },
        {
          "indexed": true,
          "internalType": "address",
          "name": "to",
          "type": "address"
        },
        {
          "indexed": true,
          "internalType": "uint256",
          "name": "tokenId",
          "type": "uint256"
        }
      ],
      "name": "Transfer",
      "type": "event"
    },
    {
      "inputs": [
        {
          "internalType": "address",
          "name": "to",
          "type": "address"
        },
        {
          "internalType": "uint256",
          "name": "tokenId",
          "type": "uint256"
        }
      ],
      "name": "approve",
      "outputs": [],
      "stateMutability": "nonpayable",
      "type": "function"
    },
    {
      "inputs": [
        {
          "internalType": "address",
          "name": "owner",
          "type": "address"
        }
      ],
      "name": "balanceOf",
      "outputs": [
        {
          "internalType": "uint256",
          "name": "",
          "type": "uint256"
        }
      ],
      "stateMutability": "view",
      "type": "function",
      "constant": true
    },
    {
      "inputs": [],
      "name": "baseURI",
      "outputs": [
        {
          "internalType": "string",
          "name": "",
          "type": "string"
        }
      ],
      "stateMutability": "view",
      "type": "function",
      "constant": true
    },
    {
      "inputs": [
        {
          "internalType": "uint256",
          "name": "tokenId",
          "type": "uint256"
        }
      ],
      "name": "getApproved",
      "outputs": [
        {
          "internalType": "address",
          "name": "",
          "type": "address"
        }
      ],
      "stateMutability": "view",
      "type": "function",
      "constant": true
    },
    {
      "inputs": [
        {
          "internalType": "address",
          "name": "owner",
          "type": "address"
        },
        {
          "internalType": "address",
          "name": "operator",
          "type": "address"
        }
      ],
      "name": "isApprovedForAll",
      "outputs": [
        {
          "internalType": "bool",
          "name": "",
          "type": "bool"
        }
      ],
      "stateMutability": "view",
      "type": "function",
      "constant": true
    },
    {
      "inputs": [],
      "name": "name",
      "outputs": [
        {
          "internalType": "string",
          "name": "",
          "type": "string"
        }
      ],
      "stateMutability": "view",
      "type": "function",
      "constant": true
    },
    {
      "inputs": [
        {
          "internalType": "bytes32",
          "name": "",
          "type": "bytes32"
        }
      ],
      "name": "nonces",
      "outputs": [
        {
          "internalType": "uint256",
          "name": "",
          "type": "uint256"
        }
      ],
      "stateMutability": "view",
      "type": "function",
      "constant": true
    },
    {
      "inputs": [
        {
          "internalType": "uint256",
          "name": "tokenId",
          "type": "uint256"
        }
      ],
      "name": "ownerOf",
      "outputs": [
        {
          "internalType": "address",
          "name": "",
          "type": "address"
        }
      ],
      "stateMutability": "view",
      "type": "function",
      "constant": true
    },
    {
      "inputs": [
        {
          "internalType": "uint256",
          "name": "",
          "type": "uint256"
        }
      ],
      "name": "rates",
      "outputs": [
        {
          "internalType": "uint128",
          "name": "number",
          "type": "uint128"
        },
        {
          "internalType": "uint8",
          "name": "element",
          "type": "uint8"
        },
        {
          "internalType": "uint8",
          "name": "rank",
          "type": "uint8"
        }
      ],
      "stateMutability": "view",
      "type": "function",
      "constant": true
    },
    {
      "inputs": [
        {
          "internalType": "bytes32",
          "name": "requestId",
          "type": "bytes32"
        },
        {
          "internalType": "uint256",
          "name": "randomness",
          "type": "uint256"
        }
      ],
      "name": "rawFulfillRandomness",
      "outputs": [],
      "stateMutability": "nonpayable",
      "type": "function"
    },
    {
      "inputs": [
        {
          "internalType": "bytes32",
          "name": "_keyHash",
          "type": "bytes32"
        },
        {
          "internalType": "uint256",
          "name": "_fee",
          "type": "uint256"
        },
        {
          "internalType": "uint256",
          "name": "_seed",
          "type": "uint256"
        }
      ],
      "name": "requestRandomness",
      "outputs": [
        {
          "internalType": "bytes32",
          "name": "requestId",
          "type": "bytes32"
        }
      ],
      "stateMutability": "nonpayable",
      "type": "function"
    },
    {
      "inputs": [
        {
          "internalType": "uint256",
          "name": "",
          "type": "uint256"
        }
      ],
      "name": "rewardRates",
      "outputs": [
        {
          "internalType": "uint256",
          "name": "",
          "type": "uint256"
        }
      ],
      "stateMutability": "view",
      "type": "function",
      "constant": true
    },
    {
      "inputs": [
        {
          "internalType": "address",
          "name": "from",
          "type": "address"
        },
        {
          "internalType": "address",
          "name": "to",
          "type": "address"
        },
        {
          "internalType": "uint256",
          "name": "tokenId",
          "type": "uint256"
        }
      ],
      "name": "safeTransferFrom",
      "outputs": [],
      "stateMutability": "nonpayable",
      "type": "function"
    },
    {
      "inputs": [
        {
          "internalType": "address",
          "name": "from",
          "type": "address"
        },
        {
          "internalType": "address",
          "name": "to",
          "type": "address"
        },
        {
          "internalType": "uint256",
          "name": "tokenId",
          "type": "uint256"
        },
        {
          "internalType": "bytes",
          "name": "_data",
          "type": "bytes"
        }
      ],
      "name": "safeTransferFrom",
      "outputs": [],
      "stateMutability": "nonpayable",
      "type": "function"
    },
    {
      "inputs": [
        {
          "internalType": "address",
          "name": "operator",
          "type": "address"
        },
        {
          "internalType": "bool",
          "name": "approved",
          "type": "bool"
        }
      ],
      "name": "setApprovalForAll",
      "outputs": [],
      "stateMutability": "nonpayable",
      "type": "function"
    },
    {
      "inputs": [
        {
          "internalType": "bytes4",
          "name": "interfaceId",
          "type": "bytes4"
        }
      ],
      "name": "supportsInterface",
      "outputs": [
        {
          "internalType": "bool",
          "name": "",
          "type": "bool"
        }
      ],
      "stateMutability": "view",
      "type": "function",
      "constant": true
    },
    {
      "inputs": [],
      "name": "symbol",
      "outputs": [
        {
          "internalType": "string",
          "name": "",
          "type": "string"
        }
      ],
      "stateMutability": "view",
      "type": "function",
      "constant": true
    },
    {
      "inputs": [
        {
          "internalType": "uint256",
          "name": "index",
          "type": "uint256"
        }
      ],
      "name": "tokenByIndex",
      "outputs": [
        {
          "internalType": "uint256",
          "name": "",
          "type": "uint256"
        }
      ],
      "stateMutability": "view",
      "type": "function",
      "constant": true
    },
    {
      "inputs": [
        {
          "internalType": "address",
          "name": "owner",
          "type": "address"
        },
        {
          "internalType": "uint256",
          "name": "index",
          "type": "uint256"
        }
      ],
      "name": "tokenOfOwnerByIndex",
      "outputs": [
        {
          "internalType": "uint256",
          "name": "",
          "type": "uint256"
        }
      ],
      "stateMutability": "view",
      "type": "function",
      "constant": true
    },
    {
      "inputs": [
        {
          "internalType": "uint256",
          "name": "tokenId",
          "type": "uint256"
        }
      ],
      "name": "tokenURI",
      "outputs": [
        {
          "internalType": "string",
          "name": "",
          "type": "string"
        }
      ],
      "stateMutability": "view",
      "type": "function",
      "constant": true
    },
    {
      "inputs": [
        {
          "internalType": "uint256",
          "name": "",
          "type": "uint256"
        }
      ],
      "name": "tokens",
      "outputs": [
        {
          "internalType": "uint8",
          "name": "element",
          "type": "uint8"
        },
        {
          "internalType": "uint8",
          "name": "rank",
          "type": "uint8"
        }
      ],
      "stateMutability": "view",
      "type": "function",
      "constant": true
    },
    {
      "inputs": [],
      "name": "totalSupply",
      "outputs": [
        {
          "internalType": "uint256",
          "name": "",
          "type": "uint256"
        }
      ],
      "stateMutability": "view",
      "type": "function",
      "constant": true
    },
    {
      "inputs": [
        {
          "internalType": "address",
          "name": "from",
          "type": "address"
        },
        {
          "internalType": "address",
          "name": "to",
          "type": "address"
        },
        {
          "internalType": "uint256",
          "name": "tokenId",
          "type": "uint256"
        }
      ],
      "name": "transferFrom",
      "outputs": [],
      "stateMutability": "nonpayable",
      "type": "function"
    },
    {
      "inputs": [
        {
          "internalType": "uint256",
          "name": "tokenId",
          "type": "uint256"
        }
      ],
      "name": "tokenInfo",
      "outputs": [
        {
          "internalType": "uint256",
          "name": "element",
          "type": "uint256"
        },
        {
          "internalType": "uint256",
          "name": "rank",
          "type": "uint256"
        }
      ],
      "stateMutability": "view",
      "type": "function",
      "constant": true
    },
    {
      "inputs": [],
      "name": "getElements",
      "outputs": [],
      "stateMutability": "payable",
      "type": "function",
      "payable": true
    },
    {
      "inputs": [
        {
          "internalType": "uint256",
          "name": "element",
          "type": "uint256"
        }
      ],
      "name": "redeem",
      "outputs": [],
      "stateMutability": "nonpayable",
      "type": "function"
    }
  ],
  "bytecode": "0x60c06040523480156200001157600080fd5b506040516200532c3803806200532c833981810160405260408110156200003757600080fd5b81019080805160405193929190846401000000008211156200005857600080fd5b838201915060208201858111156200006f57600080fd5b82518660018202830111640100000000821117156200008d57600080fd5b8083526020830192505050908051906020019080838360005b83811015620000c3578082015181840152602081019050620000a6565b50505050905090810190601f168015620000f15780820380516001836020036101000a031916815260200191505b50604052602001805160405193929190846401000000008211156200011557600080fd5b838201915060208201858111156200012c57600080fd5b82518660018202830111640100000000821117156200014a57600080fd5b8083526020830192505050908051906020019080838360005b838110156200018057808201518184015260208101905062000163565b50505050905090810190601f168015620001ae5780820380516001836020036101000a031916815260200191505b50604052505050818173dd3782915140c8f3b190b5d67eac6dc5760c46e973a36085f69e2889c224210f603d836748e7dc00888173ffffffffffffffffffffffffffffffffffffffff1660a08173ffffffffffffffffffffffffffffffffffffffff1660601b815250508073ffffffffffffffffffffffffffffffffffffffff1660808173ffffffffffffffffffffffffffffffffffffffff1660601b815250505050620002696301ffc9a760e01b620011db60201b60201c565b816007908051906020019062000281929190620012e4565b5080600890805190602001906200029a929190620012e4565b50620002b36380ac58cd60e01b620011db60201b60201c565b620002cb635b5e139f60e01b620011db60201b60201c565b620002e363780e9d6360e01b620011db60201b60201c565b50507f6c3699283bda56ad74f6b855546325b68d482e983852a7a82979cc4807b641f460001b600b8190555067016345785d8a0000600c819055506004600d6000808152602001908152602001600020819055506007600d600060018152602001908152602001600020819055506009600d60006002815260200190815260200160002081905550600b600d600060038152602001908152602001600020819055506023600d600060048152602001908152602001600020819055506050600d6000600581526020019081526020016000208190555060106040518060600160405280621b77406fffffffffffffffffffffffffffffffff168152602001600060ff168152602001600060ff168152509080600181540180825580915050600190039060005260206000200160009091909190915060008201518160000160006101000a8154816fffffffffffffffffffffffffffffffff02191690836fffffffffffffffffffffffffffffffff16021790555060208201518160000160106101000a81548160ff021916908360ff16021790555060408201518160000160116101000a81548160ff021916908360ff160217905550505060106040518060600160405280620c35006fffffffffffffffffffffffffffffffff168152602001600060ff168152602001600160ff168152509080600181540180825580915050600190039060005260206000200160009091909190915060008201518160000160006101000a8154816fffffffffffffffffffffffffffffffff02191690836fffffffffffffffffffffffffffffffff16021790555060208201518160000160106101000a81548160ff021916908360ff16021790555060408201518160000160116101000a81548160ff021916908360ff16021790555050506010604051806060016040528062030d406fffffffffffffffffffffffffffffffff168152602001600060ff168152602001600260ff168152509080600181540180825580915050600190039060005260206000200160009091909190915060008201518160000160006101000a8154816fffffffffffffffffffffffffffffffff02191690836fffffffffffffffffffffffffffffffff16021790555060208201518160000160106101000a81548160ff021916908360ff16021790555060408201518160000160116101000a81548160ff021916908360ff16021790555050506010604051806060016040528062186a006fffffffffffffffffffffffffffffffff168152602001600160ff168152602001600060ff168152509080600181540180825580915050600190039060005260206000200160009091909190915060008201518160000160006101000a8154816fffffffffffffffffffffffffffffffff02191690836fffffffffffffffffffffffffffffffff16021790555060208201518160000160106101000a81548160ff021916908360ff16021790555060408201518160000160116101000a81548160ff021916908360ff160217905550505060106040518060600160405280620aae606fffffffffffffffffffffffffffffffff168152602001600160ff168152602001600160ff168152509080600181540180825580915050600190039060005260206000200160009091909190915060008201518160000160006101000a8154816fffffffffffffffffffffffffffffffff02191690836fffffffffffffffffffffffffffffffff16021790555060208201518160000160106101000a81548160ff021916908360ff16021790555060408201518160000160116101000a81548160ff021916908360ff160217905550505060106040518060600160405280620124f86fffffffffffffffffffffffffffffffff168152602001600160ff168152602001600260ff168152509080600181540180825580915050600190039060005260206000200160009091909190915060008201518160000160006101000a8154816fffffffffffffffffffffffffffffffff02191690836fffffffffffffffffffffffffffffffff16021790555060208201518160000160106101000a81548160ff021916908360ff16021790555060408201518160000160116101000a81548160ff021916908360ff16021790555050506010604051806060016040528062155cc06fffffffffffffffffffffffffffffffff168152602001600260ff168152602001600060ff168152509080600181540180825580915050600190039060005260206000200160009091909190915060008201518160000160006101000a8154816fffffffffffffffffffffffffffffffff02191690836fffffffffffffffffffffffffffffffff16021790555060208201518160000160106101000a81548160ff021916908360ff16021790555060408201518160000160116101000a81548160ff021916908360ff160217905550505060106040518060600160405280620927c06fffffffffffffffffffffffffffffffff168152602001600260ff168152602001600160ff168152509080600181540180825580915050600190039060005260206000200160009091909190915060008201518160000160006101000a8154816fffffffffffffffffffffffffffffffff02191690836fffffffffffffffffffffffffffffffff16021790555060208201518160000160106101000a81548160ff021916908360ff16021790555060408201518160000160116101000a81548160ff021916908360ff160217905550505060106040518060600160405280611f406fffffffffffffffffffffffffffffffff168152602001600260ff168152602001600260ff168152509080600181540180825580915050600190039060005260206000200160009091909190915060008201518160000160006101000a8154816fffffffffffffffffffffffffffffffff02191690836fffffffffffffffffffffffffffffffff16021790555060208201518160000160106101000a81548160ff021916908360ff16021790555060408201518160000160116101000a81548160ff021916908360ff16021790555050506010604051806060016040528062124f806fffffffffffffffffffffffffffffffff168152602001600360ff168152602001600060ff168152509080600181540180825580915050600190039060005260206000200160009091909190915060008201518160000160006101000a8154816fffffffffffffffffffffffffffffffff02191690836fffffffffffffffffffffffffffffffff16021790555060208201518160000160106101000a81548160ff021916908360ff16021790555060408201518160000160116101000a81548160ff021916908360ff16021790555050506010604051806060016040528062061a806fffffffffffffffffffffffffffffffff168152602001600360ff168152602001600160ff168152509080600181540180825580915050600190039060005260206000200160009091909190915060008201518160000160006101000a8154816fffffffffffffffffffffffffffffffff02191690836fffffffffffffffffffffffffffffffff16021790555060208201518160000160106101000a81548160ff021916908360ff16021790555060408201518160000160116101000a81548160ff021916908360ff1602179055505050601060405180606001604052806103de6fffffffffffffffffffffffffffffffff168152602001600360ff168152602001600260ff168152509080600181540180825580915050600190039060005260206000200160009091909190915060008201518160000160006101000a8154816fffffffffffffffffffffffffffffffff02191690836fffffffffffffffffffffffffffffffff16021790555060208201518160000160106101000a81548160ff021916908360ff16021790555060408201518160000160116101000a81548160ff021916908360ff160217905550505060106040518060600160405280620aecdf6fffffffffffffffffffffffffffffffff168152602001600460ff168152602001600060ff168152509080600181540180825580915050600190039060005260206000200160009091909190915060008201518160000160006101000a8154816fffffffffffffffffffffffffffffffff02191690836fffffffffffffffffffffffffffffffff16021790555060208201518160000160106101000a81548160ff021916908360ff16021790555060408201518160000160116101000a81548160ff021916908360ff160217905550505060106040518060600160405280600a6fffffffffffffffffffffffffffffffff168152602001600460ff168152602001600160ff168152509080600181540180825580915050600190039060005260206000200160009091909190915060008201518160000160006101000a8154816fffffffffffffffffffffffffffffffff02191690836fffffffffffffffffffffffffffffffff16021790555060208201518160000160106101000a81548160ff021916908360ff16021790555060408201518160000160116101000a81548160ff021916908360ff1602179055505050601060405180606001604052806207a1206fffffffffffffffffffffffffffffffff168152602001600560ff168152602001600060ff168152509080600181540180825580915050600190039060005260206000200160009091909190915060008201518160000160006101000a8154816fffffffffffffffffffffffffffffffff02191690836fffffffffffffffffffffffffffffffff16021790555060208201518160000160106101000a81548160ff021916908360ff16021790555060408201518160000160116101000a81548160ff021916908360ff16021790555050506010604051806060016040528060016fffffffffffffffffffffffffffffffff168152602001600560ff168152602001600160ff168152509080600181540180825580915050600190039060005260206000200160009091909190915060008201518160000160006101000a8154816fffffffffffffffffffffffffffffffff02191690836fffffffffffffffffffffffffffffffff16021790555060208201518160000160106101000a81548160ff021916908360ff16021790555060408201518160000160116101000a81548160ff021916908360ff1602179055505050505062001393565b63ffffffff60e01b817bffffffffffffffffffffffffffffffffffffffffffffffffffffffff1916141562001278576040517f08c379a000000000000000000000000000000000000000000000000000000000815260040180806020018281038252601c8152602001807f4552433136353a20696e76616c696420696e746572666163652069640000000081525060200191505060405180910390fd5b6001806000837bffffffffffffffffffffffffffffffffffffffffffffffffffffffff19167bffffffffffffffffffffffffffffffffffffffffffffffffffffffff1916815260200190815260200160002060006101000a81548160ff02191690831515021790555050565b828054600181600116156101000203166002900490600052602060002090601f016020900481019282601f106200132757805160ff191683800117855562001358565b8280016001018555821562001358579182015b82811115620013575782518255916020019190600101906200133a565b5b5090506200136791906200136b565b5090565b6200139091905b808211156200138c57600081600090555060010162001372565b5090565b90565b60805160601c60a05160601c613f65620013c7600039806112b55280611f0e5250806115f65280611ed25250613f656000f3fe6080604052600436106101815760003560e01c806394985ddd116100d1578063c87b56dd1161008a578063dc6cfe1011610064578063dc6cfe1014610af1578063dd418ae214610b54578063e985e9c514610be1578063f2caeb1e14610c6a57610181565b8063c87b56dd146109ac578063cc33c87514610a60578063db006a7514610ab657610181565b806394985ddd1461070f57806395d89b41146107545780639e317f12146107e4578063a22cb46514610833578063b1a18cc714610890578063b88d4fde1461089a57610181565b80632f745c591161013e5780634f6ccce7116101185780634f6ccce7146105505780636352211e1461059f5780636c0360eb1461061a57806370a08231146106aa57610181565b80632f745c591461040457806342842e0e146104735780634f64b2be146104ee57610181565b806301ffc9a71461018657806306fdde03146101f8578063081812fc14610288578063095ea7b31461030357806318160ddd1461035e57806323b872dd14610389575b600080fd5b34801561019257600080fd5b506101de600480360360208110156101a957600080fd5b8101908080357bffffffffffffffffffffffffffffffffffffffffffffffffffffffff19169060200190929190505050610cb9565b604051808215151515815260200191505060405180910390f35b34801561020457600080fd5b5061020d610d21565b6040518080602001828103825283818151815260200191508051906020019080838360005b8381101561024d578082015181840152602081019050610232565b50505050905090810190601f16801561027a5780820380516001836020036101000a031916815260200191505b509250505060405180910390f35b34801561029457600080fd5b506102c1600480360360208110156102ab57600080fd5b8101908080359060200190929190505050610dc3565b604051808273ffffffffffffffffffffffffffffffffffffffff1673ffffffffffffffffffffffffffffffffffffffff16815260200191505060405180910390f35b34801561030f57600080fd5b5061035c6004803603604081101561032657600080fd5b81019080803573ffffffffffffffffffffffffffffffffffffffff16906020019092919080359060200190929190505050610e5e565b005b34801561036a57600080fd5b50610373610fa2565b6040518082815260200191505060405180910390f35b34801561039557600080fd5b50610402600480360360608110156103ac57600080fd5b81019080803573ffffffffffffffffffffffffffffffffffffffff169060200190929190803573ffffffffffffffffffffffffffffffffffffffff16906020019092919080359060200190929190505050610fb3565b005b34801561041057600080fd5b5061045d6004803603604081101561042757600080fd5b81019080803573ffffffffffffffffffffffffffffffffffffffff16906020019092919080359060200190929190505050611029565b6040518082815260200191505060405180910390f35b34801561047f57600080fd5b506104ec6004803603606081101561049657600080fd5b81019080803573ffffffffffffffffffffffffffffffffffffffff169060200190929190803573ffffffffffffffffffffffffffffffffffffffff16906020019092919080359060200190929190505050611084565b005b3480156104fa57600080fd5b506105276004803603602081101561051157600080fd5b81019080803590602001909291905050506110a4565b604051808360ff1660ff1681526020018260ff1660ff1681526020019250505060405180910390f35b34801561055c57600080fd5b506105896004803603602081101561057357600080fd5b81019080803590602001909291905050506110e2565b6040518082815260200191505060405180910390f35b3480156105ab57600080fd5b506105d8600480360360208110156105c257600080fd5b8101908080359060200190929190505050611105565b604051808273ffffffffffffffffffffffffffffffffffffffff1673ffffffffffffffffffffffffffffffffffffffff16815260200191505060405180910390f35b34801561062657600080fd5b5061062f61113c565b6040518080602001828103825283818151815260200191508051906020019080838360005b8381101561066f578082015181840152602081019050610654565b50505050905090810190601f16801561069c5780820380516001836020036101000a031916815260200191505b509250505060405180910390f35b3480156106b657600080fd5b506106f9600480360360208110156106cd57600080fd5b81019080803573ffffffffffffffffffffffffffffffffffffffff1690602001909291905050506111de565b6040518082815260200191505060405180910390f35b34801561071b57600080fd5b506107526004803603604081101561073257600080fd5b8101908080359060200190929190803590602001909291905050506112b3565b005b34801561076057600080fd5b50610769611382565b6040518080602001828103825283818151815260200191508051906020019080838360005b838110156107a957808201518184015260208101905061078e565b50505050905090810190601f1680156107d65780820380516001836020036101000a031916815260200191505b509250505060405180910390f35b3480156107f057600080fd5b5061081d6004803603602081101561080757600080fd5b8101908080359060200190929190505050611424565b6040518082815260200191505060405180910390f35b34801561083f57600080fd5b5061088e6004803603604081101561085657600080fd5b81019080803573ffffffffffffffffffffffffffffffffffffffff16906020019092919080351515906020019092919050505061143c565b005b6108986115f4565b005b3480156108a657600080fd5b506109aa600480360360808110156108bd57600080fd5b81019080803573ffffffffffffffffffffffffffffffffffffffff169060200190929190803573ffffffffffffffffffffffffffffffffffffffff169060200190929190803590602001909291908035906020019064010000000081111561092457600080fd5b82018360208201111561093657600080fd5b8035906020019184600183028401116401000000008311171561095857600080fd5b91908080601f016020809104026020016040519081016040528093929190818152602001838380828437600081840152601f19601f8201169050808301925050505050505091929192905050506117f6565b005b3480156109b857600080fd5b506109e5600480360360208110156109cf57600080fd5b810190808035906020019092919050505061186e565b6040518080602001828103825283818151815260200191508051906020019080838360005b83811015610a25578082015181840152602081019050610a0a565b50505050905090810190601f168015610a525780820380516001836020036101000a031916815260200191505b509250505060405180910390f35b348015610a6c57600080fd5b50610a9960048036036020811015610a8357600080fd5b8101908080359060200190929190505050611b57565b604051808381526020018281526020019250505060405180910390f35b348015610ac257600080fd5b50610aef60048036036020811015610ad957600080fd5b8101908080359060200190929190505050611c0f565b005b348015610afd57600080fd5b50610b3e60048036036060811015610b1457600080fd5b81019080803590602001909291908035906020019092919080359060200190929190505050611ece565b6040518082815260200191505060405180910390f35b348015610b6057600080fd5b50610b8d60048036036020811015610b7757600080fd5b81019080803590602001909291905050506120d9565b60405180846fffffffffffffffffffffffffffffffff166fffffffffffffffffffffffffffffffff1681526020018360ff1660ff1681526020018260ff1660ff168152602001935050505060405180910390f35b348015610bed57600080fd5b50610c5060048036036040811015610c0457600080fd5b81019080803573ffffffffffffffffffffffffffffffffffffffff169060200190929190803573ffffffffffffffffffffffffffffffffffffffff169060200190929190505050612142565b604051808215151515815260200191505060405180910390f35b348015610c7657600080fd5b50610ca360048036036020811015610c8d57600080fd5b81019080803590602001909291905050506121d6565b6040518082815260200191505060405180910390f35b600060016000837bffffffffffffffffffffffffffffffffffffffffffffffffffffffff19167bffffffffffffffffffffffffffffffffffffffffffffffffffffffff1916815260200190815260200160002060009054906101000a900460ff169050919050565b606060078054600181600116156101000203166002900480601f016020809104026020016040519081016040528092919081815260200182805460018160011615610100020316600290048015610db95780601f10610d8e57610100808354040283529160200191610db9565b820191906000526020600020905b815481529060010190602001808311610d9c57829003601f168201915b5050505050905090565b6000610dce826121ee565b610e23576040517f08c379a000000000000000000000000000000000000000000000000000000000815260040180806020018281038252602c815260200180613e0d602c913960400191505060405180910390fd5b6005600083815260200190815260200160002060009054906101000a900473ffffffffffffffffffffffffffffffffffffffff169050919050565b6000610e6982611105565b90508073ffffffffffffffffffffffffffffffffffffffff168373ffffffffffffffffffffffffffffffffffffffff161415610ef0576040517f08c379a0000000000000000000000000000000000000000000000000000000008152600401808060200182810382526021815260200180613ede6021913960400191505060405180910390fd5b8073ffffffffffffffffffffffffffffffffffffffff16610f0f61220b565b73ffffffffffffffffffffffffffffffffffffffff161480610f3e5750610f3d81610f3861220b565b612142565b5b610f93576040517f08c379a0000000000000000000000000000000000000000000000000000000008152600401808060200182810382526038815260200180613d3f6038913960400191505060405180910390fd5b610f9d8383612213565b505050565b6000610fae60036122cc565b905090565b610fc4610fbe61220b565b826122e1565b611019576040517f08c379a0000000000000000000000000000000000000000000000000000000008152600401808060200182810382526031815260200180613eff6031913960400191505060405180910390fd5b6110248383836123d5565b505050565b600061107c82600260008673ffffffffffffffffffffffffffffffffffffffff1673ffffffffffffffffffffffffffffffffffffffff16815260200190815260200160002061261890919063ffffffff16565b905092915050565b61109f838383604051806020016040528060008152506117f6565b505050565b600e6020528060005260406000206000915090508060000160009054906101000a900460ff16908060000160019054906101000a900460ff16905082565b6000806110f983600361263290919063ffffffff16565b50905080915050919050565b600061113582604051806060016040528060298152602001613da16029913960036126619092919063ffffffff16565b9050919050565b6060600a8054600181600116156101000203166002900480601f0160208091040260200160405190810160405280929190818152602001828054600181600116156101000203166002900480156111d45780601f106111a9576101008083540402835291602001916111d4565b820191906000526020600020905b8154815290600101906020018083116111b757829003601f168201915b5050505050905090565b60008073ffffffffffffffffffffffffffffffffffffffff168273ffffffffffffffffffffffffffffffffffffffff161415611265576040517f08c379a000000000000000000000000000000000000000000000000000000000815260040180806020018281038252602a815260200180613d77602a913960400191505060405180910390fd5b6112ac600260008473ffffffffffffffffffffffffffffffffffffffff1673ffffffffffffffffffffffffffffffffffffffff168152602001908152602001600020612680565b9050919050565b7f000000000000000000000000000000000000000000000000000000000000000073ffffffffffffffffffffffffffffffffffffffff163373ffffffffffffffffffffffffffffffffffffffff1614611374576040517f08c379a000000000000000000000000000000000000000000000000000000000815260040180806020018281038252601f8152602001807f4f6e6c7920565246436f6f7264696e61746f722063616e2066756c66696c6c0081525060200191505060405180910390fd5b61137e8282612695565b5050565b606060088054600181600116156101000203166002900480601f01602080910402602001604051908101604052809291908181526020018280546001816001161561010002031660029004801561141a5780601f106113ef5761010080835404028352916020019161141a565b820191906000526020600020905b8154815290600101906020018083116113fd57829003601f168201915b5050505050905090565b60006020528060005260406000206000915090505481565b61144461220b565b73ffffffffffffffffffffffffffffffffffffffff168273ffffffffffffffffffffffffffffffffffffffff1614156114e5576040517f08c379a00000000000000000000000000000000000000000000000000000000081526004018080602001828103825260198152602001807f4552433732313a20617070726f766520746f2063616c6c65720000000000000081525060200191505060405180910390fd5b80600660006114f261220b565b73ffffffffffffffffffffffffffffffffffffffff1673ffffffffffffffffffffffffffffffffffffffff16815260200190815260200160002060008473ffffffffffffffffffffffffffffffffffffffff1673ffffffffffffffffffffffffffffffffffffffff16815260200190815260200160002060006101000a81548160ff0219169083151502179055508173ffffffffffffffffffffffffffffffffffffffff1661159f61220b565b73ffffffffffffffffffffffffffffffffffffffff167f17307eab39ab6107e8899845ad3d59bd9653f200f220920489ca2b5937696c3183604051808215151515815260200191505060405180910390a35050565b7f000000000000000000000000000000000000000000000000000000000000000073ffffffffffffffffffffffffffffffffffffffff166323b872dd33306002600c54026040518463ffffffff1660e01b8152600401808473ffffffffffffffffffffffffffffffffffffffff1673ffffffffffffffffffffffffffffffffffffffff1681526020018373ffffffffffffffffffffffffffffffffffffffff1673ffffffffffffffffffffffffffffffffffffffff1681526020018281526020019350505050602060405180830381600087803b1580156116d457600080fd5b505af11580156116e8573d6000803e3d6000fd5b505050506040513d60208110156116fe57600080fd5b8101908080519060200190929190505050611781576040517f08c379a00000000000000000000000000000000000000000000000000000000081526004018080602001828103825260198152602001807f36454c454d454e543a204e6f7420656e6f756768204c494e4b0000000000000081525060200191505060405180910390fd5b6000600143034060001c9050600061179e600b54600c5484611ece565b905033600f600083815260200190815260200160002060006101000a81548173ffffffffffffffffffffffffffffffffffffffff021916908373ffffffffffffffffffffffffffffffffffffffff1602179055505050565b61180761180161220b565b836122e1565b61185c576040517f08c379a0000000000000000000000000000000000000000000000000000000008152600401808060200182810382526031815260200180613eff6031913960400191505060405180910390fd5b611868848484846127c3565b50505050565b6060611879826121ee565b6118ce576040517f08c379a000000000000000000000000000000000000000000000000000000000815260040180806020018281038252602f815260200180613e62602f913960400191505060405180910390fd5b6060600960008481526020019081526020016000208054600181600116156101000203166002900480601f0160208091040260200160405190810160405280929190818152602001828054600181600116156101000203166002900480156119775780601f1061194c57610100808354040283529160200191611977565b820191906000526020600020905b81548152906001019060200180831161195a57829003601f168201915b505050505090506000600a80546001816001161561010002031660029004905014156119a65780915050611b52565b600081511115611a7f57600a816040516020018083805460018160011615610100020316600290048015611a115780601f106119ef576101008083540402835291820191611a11565b820191906000526020600020905b8154815290600101906020018083116119fd575b505082805190602001908083835b60208310611a425780518252602082019150602081019050602083039250611a1f565b6001836020036101000a03801982511681845116808217855250505050505090500192505050604051602081830303815290604052915050611b52565b600a611a8a84612835565b6040516020018083805460018160011615610100020316600290048015611ae85780601f10611ac6576101008083540402835291820191611ae8565b820191906000526020600020905b815481529060010190602001808311611ad4575b505082805190602001908083835b60208310611b195780518252602082019150602081019050602083039250611af6565b6001836020036101000a038019825116818451168082178552505050505050905001925050506040516020818303038152906040529150505b919050565b600080611b63836121ee565b611bb8576040517f08c379a000000000000000000000000000000000000000000000000000000000815260040180806020018281038252602f815260200180613e62602f913960400191505060405180910390fd5b600e600084815260200190815260200160002060000160009054906101000a900460ff1660ff169150600e600084815260200190815260200160002060000160019054906101000a900460ff1660ff169050915091565b6006811115611c86576040517f08c379a000000000000000000000000000000000000000000000000000000000815260040180806020018281038252601c8152602001807f36454c454d454e543a20696e76616c696420656c656d656e742069640000000081525060200191505060405180910390fd5b600060048211611c995760039050611c9e565b600290505b60606000611cab336111de565b905060008090505b81811015611d54576000611cc73383611029565b905085600e600083815260200190815260200160002060000160009054906101000a900460ff1660ff161415611d46578084600e600084815260200190815260200160002060000160019054906101000a900460ff1660ff1681518110611d2a57fe5b6020026020010181815250508484511415611d455750611d54565b5b508080600101915050611cb3565b5082825114611dae576040517f08c379a000000000000000000000000000000000000000000000000000000000815260040180806020018281038252602c815260200180613eb2602c913960400191505060405180910390fd5b60008090505b8251811015611de657611dd9838281518110611dcc57fe5b602002602001015161297c565b8080600101915050611db4565b5060004790506000611e276064611e19600d60008a81526020019081526020016000205485612ab690919063ffffffff16565b612b3c90919063ffffffff16565b90503373ffffffffffffffffffffffffffffffffffffffff166108fc829081150290604051600060405180830381858888f19350505050158015611e6f573d6000803e3d6000fd5b503373ffffffffffffffffffffffffffffffffffffffff167fe5b754fb1abb7f01b499791d0b820ae3b6af3424ac1c59768edb53f4ec31a9298783604051808381526020018281526020019250505060405180910390a2505050505050565b60007f000000000000000000000000000000000000000000000000000000000000000073ffffffffffffffffffffffffffffffffffffffff16634000aea07f000000000000000000000000000000000000000000000000000000000000000085878660405160200180838152602001828152602001925050506040516020818303038152906040526040518463ffffffff1660e01b8152600401808473ffffffffffffffffffffffffffffffffffffffff1673ffffffffffffffffffffffffffffffffffffffff16815260200183815260200180602001828103825283818151815260200191508051906020019080838360005b83811015611fdd578082015181840152602081019050611fc2565b50505050905090810190601f16801561200a5780820380516001836020036101000a031916815260200191505b50945050505050602060405180830381600087803b15801561202b57600080fd5b505af115801561203f573d6000803e3d6000fd5b505050506040513d602081101561205557600080fd5b81019080805190602001909291905050505060006120878584306000808a815260200190815260200160002054612b86565b90506120af600160008088815260200190815260200160002054612c0090919063ffffffff16565b600080878152602001908152602001600020819055506120cf8582612c88565b9150509392505050565b601081815481106120e657fe5b906000526020600020016000915090508060000160009054906101000a90046fffffffffffffffffffffffffffffffff16908060000160109054906101000a900460ff16908060000160119054906101000a900460ff16905083565b6000600660008473ffffffffffffffffffffffffffffffffffffffff1673ffffffffffffffffffffffffffffffffffffffff16815260200190815260200160002060008373ffffffffffffffffffffffffffffffffffffffff1673ffffffffffffffffffffffffffffffffffffffff16815260200190815260200160002060009054906101000a900460ff16905092915050565b600d6020528060005260406000206000915090505481565b6000612204826003612cc190919063ffffffff16565b9050919050565b600033905090565b816005600083815260200190815260200160002060006101000a81548173ffffffffffffffffffffffffffffffffffffffff021916908373ffffffffffffffffffffffffffffffffffffffff160217905550808273ffffffffffffffffffffffffffffffffffffffff1661228683611105565b73ffffffffffffffffffffffffffffffffffffffff167f8c5be1e5ebec7d5bd14f71427d1e84f3dd0314c0f7b2291e5b200ac8c7c3b92560405160405180910390a45050565b60006122da82600001612cdb565b9050919050565b60006122ec826121ee565b612341576040517f08c379a000000000000000000000000000000000000000000000000000000000815260040180806020018281038252602c815260200180613d13602c913960400191505060405180910390fd5b600061234c83611105565b90508073ffffffffffffffffffffffffffffffffffffffff168473ffffffffffffffffffffffffffffffffffffffff1614806123bb57508373ffffffffffffffffffffffffffffffffffffffff166123a384610dc3565b73ffffffffffffffffffffffffffffffffffffffff16145b806123cc57506123cb8185612142565b5b91505092915050565b8273ffffffffffffffffffffffffffffffffffffffff166123f582611105565b73ffffffffffffffffffffffffffffffffffffffff1614612461576040517f08c379a0000000000000000000000000000000000000000000000000000000008152600401808060200182810382526029815260200180613e396029913960400191505060405180910390fd5b600073ffffffffffffffffffffffffffffffffffffffff168273ffffffffffffffffffffffffffffffffffffffff1614156124e7576040517f08c379a0000000000000000000000000000000000000000000000000000000008152600401808060200182810382526024815260200180613cef6024913960400191505060405180910390fd5b6124f2838383612cec565b6124fd600082612213565b61254e81600260008673ffffffffffffffffffffffffffffffffffffffff1673ffffffffffffffffffffffffffffffffffffffff168152602001908152602001600020612cf190919063ffffffff16565b506125a081600260008573ffffffffffffffffffffffffffffffffffffffff1673ffffffffffffffffffffffffffffffffffffffff168152602001908152602001600020612d0b90919063ffffffff16565b506125b781836003612d259092919063ffffffff16565b50808273ffffffffffffffffffffffffffffffffffffffff168473ffffffffffffffffffffffffffffffffffffffff167fddf252ad1be2c89b69c2b068fc378daa952ba7f163c4a11628f55a4df523b3ef60405160405180910390a4505050565b60006126278360000183612d5a565b60001c905092915050565b6000806000806126458660000186612ddd565b915091508160001c8160001c8090509350935050509250929050565b6000612674846000018460001b84612e76565b60001c90509392505050565b600061268e82600001612f6c565b9050919050565b6000600f600084815260200190815260200160002060009054906101000a900473ffffffffffffffffffffffffffffffffffffffff1690506000806126d984612f7d565b9150915060006126e983836130cb565b90506126f58482613150565b60008061272a87604051602001808281526020019150506040516020818303038152906040528051906020012060001c612f7d565b91509150600061273a83836130cb565b90506127468782613150565b8673ffffffffffffffffffffffffffffffffffffffff167fb8825fb708f9eda380d406826b16913c475d01019f8cecab77dd45da0b8f336587878686604051808560ff1681526020018460ff1681526020018360ff1681526020018260ff16815260200194505050505060405180910390a2505050505050505050565b6127ce8484846123d5565b6127da84848484613344565b61282f576040517f08c379a0000000000000000000000000000000000000000000000000000000008152600401808060200182810382526032815260200180613cbd6032913960400191505060405180910390fd5b50505050565b6060600082141561287d576040518060400160405280600181526020017f30000000000000000000000000000000000000000000000000000000000000008152509050612977565b600082905060005b600082146128a7578080600101915050600a828161289f57fe5b049150612885565b60608167ffffffffffffffff811180156128c057600080fd5b506040519080825280601f01601f1916602001820160405280156128f35781602001600182028036833780820191505090505b50905060006001830390508593505b6000841461296f57600a848161291457fe5b0660300160f81b8282806001900393508151811061292e57fe5b60200101907effffffffffffffffffffffffffffffffffffffffffffffffffffffffffffff1916908160001a905350600a848161296757fe5b049350612902565b819450505050505b919050565b600061298782611105565b905061299581600084612cec565b6129a0600083612213565b600060096000848152602001908152602001600020805460018160011615610100020316600290049050146129ef576009600083815260200190815260200160002060006129ee9190613c2d565b5b612a4082600260008473ffffffffffffffffffffffffffffffffffffffff1673ffffffffffffffffffffffffffffffffffffffff168152602001908152602001600020612cf190919063ffffffff16565b50612a5582600361358990919063ffffffff16565b5081600073ffffffffffffffffffffffffffffffffffffffff168273ffffffffffffffffffffffffffffffffffffffff167fddf252ad1be2c89b69c2b068fc378daa952ba7f163c4a11628f55a4df523b3ef60405160405180910390a45050565b600080831415612ac95760009050612b36565b6000828402905082848281612ada57fe5b0414612b31576040517f08c379a0000000000000000000000000000000000000000000000000000000008152600401808060200182810382526021815260200180613dec6021913960400191505060405180910390fd5b809150505b92915050565b6000612b7e83836040518060400160405280601a81526020017f536166654d6174683a206469766973696f6e206279207a65726f0000000000008152506135a3565b905092915050565b600084848484604051602001808581526020018481526020018373ffffffffffffffffffffffffffffffffffffffff1673ffffffffffffffffffffffffffffffffffffffff1681526020018281526020019450505050506040516020818303038152906040528051906020012060001c9050949350505050565b600080828401905083811015612c7e576040517f08c379a000000000000000000000000000000000000000000000000000000000815260040180806020018281038252601b8152602001807f536166654d6174683a206164646974696f6e206f766572666c6f77000000000081525060200191505060405180910390fd5b8091505092915050565b60008282604051602001808381526020018281526020019250505060405160208183030381529060405280519060200120905092915050565b6000612cd3836000018360001b613669565b905092915050565b600081600001805490509050919050565b505050565b6000612d03836000018360001b61368c565b905092915050565b6000612d1d836000018360001b613774565b905092915050565b6000612d51846000018460001b8473ffffffffffffffffffffffffffffffffffffffff1660001b6137e4565b90509392505050565b600081836000018054905011612dbb576040517f08c379a0000000000000000000000000000000000000000000000000000000008152600401808060200182810382526022815260200180613c9b6022913960400191505060405180910390fd5b826000018281548110612dca57fe5b9060005260206000200154905092915050565b60008082846000018054905011612e3f576040517f08c379a0000000000000000000000000000000000000000000000000000000008152600401808060200182810382526022815260200180613dca6022913960400191505060405180910390fd5b6000846000018481548110612e5057fe5b906000526020600020906002020190508060000154816001015492509250509250929050565b60008084600101600085815260200190815260200160002054905060008114158390612f3d576040517f08c379a00000000000000000000000000000000000000000000000000000000081526004018080602001828103825283818151815260200191508051906020019080838360005b83811015612f02578082015181840152602081019050612ee7565b50505050905090810190601f168015612f2f5780820380516001836020036101000a031916815260200191505b509250505060405180910390fd5b50846000016001820381548110612f5057fe5b9060005260206000209060020201600101549150509392505050565b600081600001805490509050919050565b6000806000629896808481612f8e57fe5b069050600080600090505b6010805490508110156130745761300160108281548110612fb657fe5b9060005260206000200160000160009054906101000a90046fffffffffffffffffffffffffffffffff166fffffffffffffffffffffffffffffffff1683612c0090919063ffffffff16565b915081831015613067576010818154811061301857fe5b9060005260206000200160000160109054906101000a900460ff166010828154811061304057fe5b9060005260206000200160000160119054906101000a900460ff16945094505050506130c6565b8080600101915050612f99565b506040517f08c379a0000000000000000000000000000000000000000000000000000000008152600401808060200182810382526021815260200180613e916021913960400191505060405180910390fd5b915091565b60006130d5610fa2565b905060405180604001604052808460ff1681526020018360ff16815250600e600083815260200190815260200160002060008201518160000160006101000a81548160ff021916908360ff16021790555060208201518160000160016101000a81548160ff021916908360ff16021790555090505092915050565b600073ffffffffffffffffffffffffffffffffffffffff168273ffffffffffffffffffffffffffffffffffffffff1614156131f3576040517f08c379a00000000000000000000000000000000000000000000000000000000081526004018080602001828103825260208152602001807f4552433732313a206d696e7420746f20746865207a65726f206164647265737381525060200191505060405180910390fd5b6131fc816121ee565b1561326f576040517f08c379a000000000000000000000000000000000000000000000000000000000815260040180806020018281038252601c8152602001807f4552433732313a20746f6b656e20616c7265616479206d696e7465640000000081525060200191505060405180910390fd5b61327b60008383612cec565b6132cc81600260008573ffffffffffffffffffffffffffffffffffffffff1673ffffffffffffffffffffffffffffffffffffffff168152602001908152602001600020612d0b90919063ffffffff16565b506132e381836003612d259092919063ffffffff16565b50808273ffffffffffffffffffffffffffffffffffffffff16600073ffffffffffffffffffffffffffffffffffffffff167fddf252ad1be2c89b69c2b068fc378daa952ba7f163c4a11628f55a4df523b3ef60405160405180910390a45050565b60006133658473ffffffffffffffffffffffffffffffffffffffff166138c0565b6133725760019050613581565b606061350863150b7a0260e01b61338761220b565b888787604051602401808573ffffffffffffffffffffffffffffffffffffffff1673ffffffffffffffffffffffffffffffffffffffff1681526020018473ffffffffffffffffffffffffffffffffffffffff1673ffffffffffffffffffffffffffffffffffffffff16815260200183815260200180602001828103825283818151815260200191508051906020019080838360005b8381101561343757808201518184015260208101905061341c565b50505050905090810190601f1680156134645780820380516001836020036101000a031916815260200191505b5095505050505050604051602081830303815290604052907bffffffffffffffffffffffffffffffffffffffffffffffffffffffff19166020820180517bffffffffffffffffffffffffffffffffffffffffffffffffffffffff8381831617835250505050604051806060016040528060328152602001613cbd603291398773ffffffffffffffffffffffffffffffffffffffff166138d39092919063ffffffff16565b9050600081806020019051602081101561352157600080fd5b8101908080519060200190929190505050905063150b7a0260e01b7bffffffffffffffffffffffffffffffffffffffffffffffffffffffff1916817bffffffffffffffffffffffffffffffffffffffffffffffffffffffff191614925050505b949350505050565b600061359b836000018360001b6138eb565b905092915050565b6000808311829061364f576040517f08c379a00000000000000000000000000000000000000000000000000000000081526004018080602001828103825283818151815260200191508051906020019080838360005b838110156136145780820151818401526020810190506135f9565b50505050905090810190601f1680156136415780820380516001836020036101000a031916815260200191505b509250505060405180910390fd5b50600083858161365b57fe5b049050809150509392505050565b600080836001016000848152602001908152602001600020541415905092915050565b6000808360010160008481526020019081526020016000205490506000811461376857600060018203905060006001866000018054905003905060008660000182815481106136d757fe5b90600052602060002001549050808760000184815481106136f457fe5b906000526020600020018190555060018301876001016000838152602001908152602001600020819055508660000180548061372c57fe5b6001900381819060005260206000200160009055905586600101600087815260200190815260200160002060009055600194505050505061376e565b60009150505b92915050565b60006137808383613a04565b6137d95782600001829080600181540180825580915050600190039060005260206000200160009091909190915055826000018054905083600101600084815260200190815260200160002081905550600190506137de565b600090505b92915050565b600080846001016000858152602001908152602001600020549050600081141561388b578460000160405180604001604052808681526020018581525090806001815401808255809150506001900390600052602060002090600202016000909190919091506000820151816000015560208201518160010155505084600001805490508560010160008681526020019081526020016000208190555060019150506138b9565b8285600001600183038154811061389e57fe5b90600052602060002090600202016001018190555060009150505b9392505050565b600080823b905060008111915050919050565b60606138e28484600085613a27565b90509392505050565b600080836001016000848152602001908152602001600020549050600081146139f8576000600182039050600060018660000180549050039050600086600001828154811061393657fe5b906000526020600020906002020190508087600001848154811061395657fe5b90600052602060002090600202016000820154816000015560018201548160010155905050600183018760010160008360000154815260200190815260200160002081905550866000018054806139a957fe5b60019003818190600052602060002090600202016000808201600090556001820160009055505090558660010160008781526020019081526020016000206000905560019450505050506139fe565b60009150505b92915050565b600080836001016000848152602001908152602001600020541415905092915050565b6060613a32856138c0565b613aa4576040517f08c379a000000000000000000000000000000000000000000000000000000000815260040180806020018281038252601d8152602001807f416464726573733a2063616c6c20746f206e6f6e2d636f6e747261637400000081525060200191505060405180910390fd5b600060608673ffffffffffffffffffffffffffffffffffffffff1685876040518082805190602001908083835b60208310613af45780518252602082019150602081019050602083039250613ad1565b6001836020036101000a03801982511681845116808217855250505050505090500191505060006040518083038185875af1925050503d8060008114613b56576040519150601f19603f3d011682016040523d82523d6000602084013e613b5b565b606091505b50915091508115613b70578092505050613c25565b600081511115613b835780518082602001fd5b836040517f08c379a00000000000000000000000000000000000000000000000000000000081526004018080602001828103825283818151815260200191508051906020019080838360005b83811015613bea578082015181840152602081019050613bcf565b50505050905090810190601f168015613c175780820380516001836020036101000a031916815260200191505b509250505060405180910390fd5b949350505050565b50805460018160011615610100020316600290046000825580601f10613c535750613c72565b601f016020900490600052602060002090810190613c719190613c75565b5b50565b613c9791905b80821115613c93576000816000905550600101613c7b565b5090565b9056fe456e756d657261626c655365743a20696e646578206f7574206f6620626f756e64734552433732313a207472616e7366657220746f206e6f6e20455243373231526563656976657220696d706c656d656e7465724552433732313a207472616e7366657220746f20746865207a65726f20616464726573734552433732313a206f70657261746f7220717565727920666f72206e6f6e6578697374656e7420746f6b656e4552433732313a20617070726f76652063616c6c6572206973206e6f74206f776e6572206e6f7220617070726f76656420666f7220616c6c4552433732313a2062616c616e636520717565727920666f7220746865207a65726f20616464726573734552433732313a206f776e657220717565727920666f72206e6f6e6578697374656e7420746f6b656e456e756d657261626c654d61703a20696e646578206f7574206f6620626f756e6473536166654d6174683a206d756c7469706c69636174696f6e206f766572666c6f774552433732313a20617070726f76656420717565727920666f72206e6f6e6578697374656e7420746f6b656e4552433732313a207472616e73666572206f6620746f6b656e2074686174206973206e6f74206f776e4552433732314d657461646174613a2055524920717565727920666f72206e6f6e6578697374656e7420746f6b656e36454c454d454e543a2053656c656374696e6720656c656d656e74206572726f7236454c454d454e543a20796f7520646f206e6f742068617665206e656365737361727920656c656d656e74734552433732313a20617070726f76616c20746f2063757272656e74206f776e65724552433732313a207472616e736665722063616c6c6572206973206e6f74206f776e6572206e6f7220617070726f766564a26469706673582212200d1f455b488393cc34722818d93d7785e934f929131f6c1e73dbc99e24af32cb64736f6c63430006060033",
  "immutableReferences": {
    "877": [
      {
        "length": 32,
        "start": 5622
      },
      {
        "length": 32,
        "start": 7890
      }
    ],
    "879": [
      {
        "length": 32,
        "start": 4789
      },
      {
        "length": 32,
        "start": 7950
      }
    ]
  },
  "source": "// SPDX-License-Identifier: MIT\npragma solidity >=0.4.21 <0.7.0;\n\n// import \"@chainlink/contracts/src/v0.6/VRFConsumerBase.sol\";\nimport './chainlink/VRFConsumerBase.sol'; // prevent to load double safemath\nimport '@openzeppelin/contracts/token/ERC721/ERC721.sol';\n\ncontract SixElements is VRFConsumerBase, ERC721 {\n  bytes32 internal keyHash;\n  uint256 internal fee;\n\n  mapping(uint256 => uint256) public rewardRates;\n  mapping(uint256 => Token) public tokens;\n  mapping(bytes32 => address) private _receivers;\n  Rate[] public rates;\n\n  struct Rate {\n    uint128 number;\n    uint8 element;\n    uint8 rank;\n  }\n\n  struct Token {\n    uint8 element;\n    uint8 rank;\n  }\n\n  event Receive(address indexed player, uint256 element1, uint256 rank1, uint256 element2, uint256 rank2);\n  event Redeem(address indexed player, uint256 element, uint256 reward);\n\n  /**\n   * Constructor inherits VRFConsumerBase\n   *\n   * Network: Kovan\n   * Chainlink VRF Coordinator address: 0xdD3782915140c8f3b190B5D67eAc6dc5760C46E9\n   * LINK token address:                0xa36085F69e2889c224210F603D836748e7dC0088\n   * Key Hash: 0x6c3699283bda56ad74f6b855546325b68d482e983852a7a82979cc4807b641f4\n   */\n  constructor(string memory name, string memory symbol)\n    public\n    VRFConsumerBase(\n      0xdD3782915140c8f3b190B5D67eAc6dc5760C46E9, // VRF Coordinator\n      0xa36085F69e2889c224210F603D836748e7dC0088 // LINK Token\n    )\n    ERC721(name, symbol)\n  {\n    keyHash = 0x6c3699283bda56ad74f6b855546325b68d482e983852a7a82979cc4807b641f4;\n    fee = 0.1 * 10**18; // 0.1 LINK\n    rewardRates[0] = 4;\n    rewardRates[1] = 7;\n    rewardRates[2] = 9;\n    rewardRates[3] = 11;\n    rewardRates[4] = 35;\n    rewardRates[5] = 80;\n    rates.push(Rate({number: 1800000, element: 0, rank: 0}));\n    rates.push(Rate({number: 800000, element: 0, rank: 1}));\n    rates.push(Rate({number: 200000, element: 0, rank: 2}));\n    rates.push(Rate({number: 1600000, element: 1, rank: 0}));\n    rates.push(Rate({number: 700000, element: 1, rank: 1}));\n    rates.push(Rate({number: 75000, element: 1, rank: 2}));\n    rates.push(Rate({number: 1400000, element: 2, rank: 0}));\n    rates.push(Rate({number: 600000, element: 2, rank: 1}));\n    rates.push(Rate({number: 8000, element: 2, rank: 2}));\n    rates.push(Rate({number: 1200000, element: 3, rank: 0}));\n    rates.push(Rate({number: 400000, element: 3, rank: 1}));\n    rates.push(Rate({number: 990, element: 3, rank: 2}));\n    rates.push(Rate({number: 715999, element: 4, rank: 0}));\n    rates.push(Rate({number: 10, element: 4, rank: 1}));\n    rates.push(Rate({number: 500000, element: 5, rank: 0}));\n    rates.push(Rate({number: 1, element: 5, rank: 1}));\n  }\n\n  function tokenInfo(uint256 tokenId) public view returns (uint256 element, uint256 rank) {\n    require(_exists(tokenId), 'ERC721Metadata: URI query for nonexistent token');\n\n    element = tokens[tokenId].element;\n    rank = tokens[tokenId].rank;\n  }\n\n  /**\n   * Requests randomness from a user-provided seed\n   */\n  function getElements() external payable {\n    require(LINK.transferFrom(msg.sender, address(this), fee * 2), '6ELEMENT: Not enough LINK');\n\n    uint256 seed = uint256(blockhash(block.number - 1));\n    bytes32 requestId = requestRandomness(keyHash, fee, seed);\n    // bytes32 requestId = getId(keyHash, fee, seed); // DELETE: For local test\n    _receivers[requestId] = msg.sender;\n\n    // DELETE: For local test\n    // fulfillRandomness(requestId, uint256(keccak256(abi.encodePacked(now, msg.sender, '1'))));\n  }\n\n  // DELETE: For local test\n  // uint256 reqId;\n\n  // DELETE: For local test\n  // function getId(\n  //   bytes32 k,\n  //   uint256 f,\n  //   uint256 s\n  // ) internal returns (bytes32) {\n  //   reqId = reqId + 1;\n  //   return bytes32(reqId);\n  // }\n\n  /**\n   * Callback function used by VRF Coordinator\n   */\n  function fulfillRandomness(bytes32 requestId, uint256 randomness) internal override {\n    address receiver = _receivers[requestId];\n\n    (uint8 element1, uint8 rank1) = _selectElement(randomness);\n    uint256 tokenId1 = _createToken(element1, rank1);\n    _mint(receiver, tokenId1);\n\n    (uint8 element2, uint8 rank2) = _selectElement(uint256(keccak256(abi.encodePacked(randomness))));\n    uint256 tokenId2 = _createToken(element2, rank2);\n    _mint(receiver, tokenId2);\n\n    emit Receive(receiver, element1, rank1, element2, rank2);\n  }\n\n  function redeem(uint256 element) external {\n    require(element <= 6, '6ELEMENT: invalid element id');\n    uint256 necessaryCount;\n    if (element <= 4) {\n      necessaryCount = 3;\n    } else {\n      necessaryCount = 2;\n    }\n\n    uint256[] memory tokenIds;\n    uint256 length = balanceOf(msg.sender);\n    for (uint256 i = 0; i < length; i++) {\n      uint256 tokenId = tokenOfOwnerByIndex(msg.sender, i);\n      if (tokens[tokenId].element == element) {\n        tokenIds[tokens[tokenId].rank] = tokenId;\n        if (tokenIds.length == necessaryCount) {\n          break;\n        }\n      }\n    }\n    require(tokenIds.length == necessaryCount, '6ELEMENT: you do not have necessary elements');\n\n    for (uint256 i = 0; i < tokenIds.length; i++) {\n      _burn(tokenIds[i]);\n    }\n\n    uint256 totalBalance = address(this).balance;\n    uint256 reward = totalBalance.mul(rewardRates[element]).div(100);\n    msg.sender.transfer(reward);\n\n    emit Redeem(msg.sender, element, reward);\n  }\n\n  function _selectElement(uint256 randomness) private view returns (uint8 element, uint8 rank) {\n    uint256 target = randomness % 10000000;\n    uint256 sum;\n\n    for (uint256 i = 0; i < rates.length; i++) {\n      sum = sum.add(rates[i].number);\n      if (target < sum) {\n        return (rates[i].element, rates[i].rank);\n      }\n    }\n\n    revert('6ELEMENT: Selecting element error');\n  }\n\n  function _createToken(uint8 element, uint8 rank) private returns (uint256 tokenId) {\n    tokenId = totalSupply();\n\n    tokens[tokenId] = Token({element: element, rank: rank});\n  }\n}\n",
  "sourcePath": "/Users/tomohiro/Documents/Projects/cre8/6elements/contracts/SixElements.sol",
  "compiler": {
    "name": "solc",
    "version": "0.6.6+commit.6c089d02.Emscripten.clang"
  },
  "schemaVersion": "3.2.0",
  "updatedAt": "2020-10-22T18:53:22.097Z",
  "networkType": "ethereum",
  "devdoc": {
    "methods": {
      "approve(address,uint256)": {
        "details": "See {IERC721-approve}."
      },
      "balanceOf(address)": {
        "details": "See {IERC721-balanceOf}."
      },
      "baseURI()": {
        "details": "Returns the base URI set via {_setBaseURI}. This will be automatically added as a prefix in {tokenURI} to each token's URI, or to the token ID if no specific URI is set for that token ID."
      },
      "getApproved(uint256)": {
        "details": "See {IERC721-getApproved}."
      },
      "isApprovedForAll(address,address)": {
        "details": "See {IERC721-isApprovedForAll}."
      },
      "name()": {
        "details": "See {IERC721Metadata-name}."
      },
      "ownerOf(uint256)": {
        "details": "See {IERC721-ownerOf}."
      },
      "requestRandomness(bytes32,uint256,uint256)": {
        "details": "See \"SECURITY CONSIDERATIONS\" above for more information on _seed.The fulfillRandomness method receives the output, once it's providedby the Oracle, and verified by the vrfCoordinator.The _keyHash must already be registered with the VRFCoordinator, andthe _fee must exceed the fee specified during registration of the_keyHash.The returned requestId can be used to distinguish responses to *concurrent requests. It is passed as the first argument tofulfillRandomness.",
        "params": {
          "_fee": "The amount of LINK to send with the request",
          "_keyHash": "ID of public key against which randomness is generated",
          "_seed": "seed mixed into the input of the VRF"
        },
        "returns": {
          "requestId": "unique ID for this request"
        }
      },
      "safeTransferFrom(address,address,uint256)": {
        "details": "See {IERC721-safeTransferFrom}."
      },
      "safeTransferFrom(address,address,uint256,bytes)": {
        "details": "See {IERC721-safeTransferFrom}."
      },
      "setApprovalForAll(address,bool)": {
        "details": "See {IERC721-setApprovalForAll}."
      },
      "supportsInterface(bytes4)": {
        "details": "See {IERC165-supportsInterface}.     * Time complexity O(1), guaranteed to always use less than 30 000 gas."
      },
      "symbol()": {
        "details": "See {IERC721Metadata-symbol}."
      },
      "tokenByIndex(uint256)": {
        "details": "See {IERC721Enumerable-tokenByIndex}."
      },
      "tokenOfOwnerByIndex(address,uint256)": {
        "details": "See {IERC721Enumerable-tokenOfOwnerByIndex}."
      },
      "tokenURI(uint256)": {
        "details": "See {IERC721Metadata-tokenURI}."
      },
      "totalSupply()": {
        "details": "See {IERC721Enumerable-totalSupply}."
      },
      "transferFrom(address,address,uint256)": {
        "details": "See {IERC721-transferFrom}."
      }
    }
  },
  "userdoc": {
    "methods": {
      "constructor": "Constructor inherits VRFConsumerBase   * Network: Kovan Chainlink VRF Coordinator address: 0xdD3782915140c8f3b190B5D67eAc6dc5760C46E9 LINK token address:                0xa36085F69e2889c224210F603D836748e7dC0088 Key Hash: 0x6c3699283bda56ad74f6b855546325b68d482e983852a7a82979cc4807b641f4",
      "getElements()": {
        "notice": "Requests randomness from a user-provided seed"
      },
      "requestRandomness(bytes32,uint256,uint256)": {
        "notice": "requestRandomness initiates a request for VRF output given _seed"
      }
    }
  }
}