{
  "contractName": "SixElements",
  "abi": [
    {
      "inputs": [
        {
          "internalType": "string",
          "name": "name",
          "type": "string"
        },
        {
          "internalType": "string",
          "name": "symbol",
          "type": "string"
        }
      ],
      "stateMutability": "nonpayable",
      "type": "constructor"
    },
    {
      "anonymous": false,
      "inputs": [
        {
          "indexed": true,
          "internalType": "address",
          "name": "owner",
          "type": "address"
        },
        {
          "indexed": true,
          "internalType": "address",
          "name": "approved",
          "type": "address"
        },
        {
          "indexed": true,
          "internalType": "uint256",
          "name": "tokenId",
          "type": "uint256"
        }
      ],
      "name": "Approval",
      "type": "event"
    },
    {
      "anonymous": false,
      "inputs": [
        {
          "indexed": true,
          "internalType": "address",
          "name": "owner",
          "type": "address"
        },
        {
          "indexed": true,
          "internalType": "address",
          "name": "operator",
          "type": "address"
        },
        {
          "indexed": false,
          "internalType": "bool",
          "name": "approved",
          "type": "bool"
        }
      ],
      "name": "ApprovalForAll",
      "type": "event"
    },
    {
      "anonymous": false,
      "inputs": [
        {
          "indexed": true,
          "internalType": "address",
          "name": "player",
          "type": "address"
        },
        {
          "indexed": false,
          "internalType": "uint256",
          "name": "element",
          "type": "uint256"
        },
        {
          "indexed": false,
          "internalType": "uint256",
          "name": "rank",
          "type": "uint256"
        }
      ],
      "name": "Receive",
      "type": "event"
    },
    {
      "anonymous": false,
      "inputs": [
        {
          "indexed": true,
          "internalType": "address",
          "name": "player",
          "type": "address"
        },
        {
          "indexed": false,
          "internalType": "uint256",
          "name": "element",
          "type": "uint256"
        },
        {
          "indexed": false,
          "internalType": "uint256",
          "name": "reward",
          "type": "uint256"
        }
      ],
      "name": "Redeem",
      "type": "event"
    },
    {
      "anonymous": false,
      "inputs": [
        {
          "indexed": true,
          "internalType": "address",
          "name": "from",
          "type": "address"
        },
        {
          "indexed": true,
          "internalType": "address",
          "name": "to",
          "type": "address"
        },
        {
          "indexed": true,
          "internalType": "uint256",
          "name": "tokenId",
          "type": "uint256"
        }
      ],
      "name": "Transfer",
      "type": "event"
    },
    {
      "inputs": [
        {
          "internalType": "address",
          "name": "to",
          "type": "address"
        },
        {
          "internalType": "uint256",
          "name": "tokenId",
          "type": "uint256"
        }
      ],
      "name": "approve",
      "outputs": [],
      "stateMutability": "nonpayable",
      "type": "function"
    },
    {
      "inputs": [
        {
          "internalType": "address",
          "name": "owner",
          "type": "address"
        }
      ],
      "name": "balanceOf",
      "outputs": [
        {
          "internalType": "uint256",
          "name": "",
          "type": "uint256"
        }
      ],
      "stateMutability": "view",
      "type": "function",
      "constant": true
    },
    {
      "inputs": [],
      "name": "baseURI",
      "outputs": [
        {
          "internalType": "string",
          "name": "",
          "type": "string"
        }
      ],
      "stateMutability": "view",
      "type": "function",
      "constant": true
    },
    {
      "inputs": [
        {
          "internalType": "uint256",
          "name": "tokenId",
          "type": "uint256"
        }
      ],
      "name": "getApproved",
      "outputs": [
        {
          "internalType": "address",
          "name": "",
          "type": "address"
        }
      ],
      "stateMutability": "view",
      "type": "function",
      "constant": true
    },
    {
      "inputs": [
        {
          "internalType": "address",
          "name": "owner",
          "type": "address"
        },
        {
          "internalType": "address",
          "name": "operator",
          "type": "address"
        }
      ],
      "name": "isApprovedForAll",
      "outputs": [
        {
          "internalType": "bool",
          "name": "",
          "type": "bool"
        }
      ],
      "stateMutability": "view",
      "type": "function",
      "constant": true
    },
    {
      "inputs": [],
      "name": "name",
      "outputs": [
        {
          "internalType": "string",
          "name": "",
          "type": "string"
        }
      ],
      "stateMutability": "view",
      "type": "function",
      "constant": true
    },
    {
      "inputs": [
        {
          "internalType": "bytes32",
          "name": "",
          "type": "bytes32"
        }
      ],
      "name": "nonces",
      "outputs": [
        {
          "internalType": "uint256",
          "name": "",
          "type": "uint256"
        }
      ],
      "stateMutability": "view",
      "type": "function",
      "constant": true
    },
    {
      "inputs": [
        {
          "internalType": "uint256",
          "name": "tokenId",
          "type": "uint256"
        }
      ],
      "name": "ownerOf",
      "outputs": [
        {
          "internalType": "address",
          "name": "",
          "type": "address"
        }
      ],
      "stateMutability": "view",
      "type": "function",
      "constant": true
    },
    {
      "inputs": [
        {
          "internalType": "bytes32",
          "name": "requestId",
          "type": "bytes32"
        },
        {
          "internalType": "uint256",
          "name": "randomness",
          "type": "uint256"
        }
      ],
      "name": "rawFulfillRandomness",
      "outputs": [],
      "stateMutability": "nonpayable",
      "type": "function"
    },
    {
      "inputs": [
        {
          "internalType": "bytes32",
          "name": "_keyHash",
          "type": "bytes32"
        },
        {
          "internalType": "uint256",
          "name": "_fee",
          "type": "uint256"
        },
        {
          "internalType": "uint256",
          "name": "_seed",
          "type": "uint256"
        }
      ],
      "name": "requestRandomness",
      "outputs": [
        {
          "internalType": "bytes32",
          "name": "requestId",
          "type": "bytes32"
        }
      ],
      "stateMutability": "nonpayable",
      "type": "function"
    },
    {
      "inputs": [
        {
          "internalType": "address",
          "name": "from",
          "type": "address"
        },
        {
          "internalType": "address",
          "name": "to",
          "type": "address"
        },
        {
          "internalType": "uint256",
          "name": "tokenId",
          "type": "uint256"
        }
      ],
      "name": "safeTransferFrom",
      "outputs": [],
      "stateMutability": "nonpayable",
      "type": "function"
    },
    {
      "inputs": [
        {
          "internalType": "address",
          "name": "from",
          "type": "address"
        },
        {
          "internalType": "address",
          "name": "to",
          "type": "address"
        },
        {
          "internalType": "uint256",
          "name": "tokenId",
          "type": "uint256"
        },
        {
          "internalType": "bytes",
          "name": "_data",
          "type": "bytes"
        }
      ],
      "name": "safeTransferFrom",
      "outputs": [],
      "stateMutability": "nonpayable",
      "type": "function"
    },
    {
      "inputs": [
        {
          "internalType": "address",
          "name": "operator",
          "type": "address"
        },
        {
          "internalType": "bool",
          "name": "approved",
          "type": "bool"
        }
      ],
      "name": "setApprovalForAll",
      "outputs": [],
      "stateMutability": "nonpayable",
      "type": "function"
    },
    {
      "inputs": [
        {
          "internalType": "bytes4",
          "name": "interfaceId",
          "type": "bytes4"
        }
      ],
      "name": "supportsInterface",
      "outputs": [
        {
          "internalType": "bool",
          "name": "",
          "type": "bool"
        }
      ],
      "stateMutability": "view",
      "type": "function",
      "constant": true
    },
    {
      "inputs": [],
      "name": "symbol",
      "outputs": [
        {
          "internalType": "string",
          "name": "",
          "type": "string"
        }
      ],
      "stateMutability": "view",
      "type": "function",
      "constant": true
    },
    {
      "inputs": [
        {
          "internalType": "uint256",
          "name": "index",
          "type": "uint256"
        }
      ],
      "name": "tokenByIndex",
      "outputs": [
        {
          "internalType": "uint256",
          "name": "",
          "type": "uint256"
        }
      ],
      "stateMutability": "view",
      "type": "function",
      "constant": true
    },
    {
      "inputs": [
        {
          "internalType": "address",
          "name": "owner",
          "type": "address"
        },
        {
          "internalType": "uint256",
          "name": "index",
          "type": "uint256"
        }
      ],
      "name": "tokenOfOwnerByIndex",
      "outputs": [
        {
          "internalType": "uint256",
          "name": "",
          "type": "uint256"
        }
      ],
      "stateMutability": "view",
      "type": "function",
      "constant": true
    },
    {
      "inputs": [
        {
          "internalType": "uint256",
          "name": "tokenId",
          "type": "uint256"
        }
      ],
      "name": "tokenURI",
      "outputs": [
        {
          "internalType": "string",
          "name": "",
          "type": "string"
        }
      ],
      "stateMutability": "view",
      "type": "function",
      "constant": true
    },
    {
      "inputs": [],
      "name": "totalSupply",
      "outputs": [
        {
          "internalType": "uint256",
          "name": "",
          "type": "uint256"
        }
      ],
      "stateMutability": "view",
      "type": "function",
      "constant": true
    },
    {
      "inputs": [
        {
          "internalType": "address",
          "name": "from",
          "type": "address"
        },
        {
          "internalType": "address",
          "name": "to",
          "type": "address"
        },
        {
          "internalType": "uint256",
          "name": "tokenId",
          "type": "uint256"
        }
      ],
      "name": "transferFrom",
      "outputs": [],
      "stateMutability": "nonpayable",
      "type": "function"
    },
    {
      "inputs": [
        {
          "internalType": "uint256",
          "name": "tokenId",
          "type": "uint256"
        }
      ],
      "name": "tokenInfo",
      "outputs": [
        {
          "internalType": "uint256",
          "name": "element",
          "type": "uint256"
        },
        {
          "internalType": "uint256",
          "name": "rank",
          "type": "uint256"
        }
      ],
      "stateMutability": "view",
      "type": "function",
      "constant": true
    },
    {
      "inputs": [],
      "name": "getElements",
      "outputs": [],
      "stateMutability": "payable",
      "type": "function",
      "payable": true
    },
    {
      "inputs": [
        {
          "internalType": "uint256",
          "name": "element",
          "type": "uint256"
        }
      ],
      "name": "redeem",
      "outputs": [],
      "stateMutability": "nonpayable",
      "type": "function"
    }
  ],
  "bytecode": "0x60c06040523480156200001157600080fd5b506040516200514d3803806200514d833981810160405260408110156200003757600080fd5b81019080805160405193929190846401000000008211156200005857600080fd5b838201915060208201858111156200006f57600080fd5b82518660018202830111640100000000821117156200008d57600080fd5b8083526020830192505050908051906020019080838360005b83811015620000c3578082015181840152602081019050620000a6565b50505050905090810190601f168015620000f15780820380516001836020036101000a031916815260200191505b50604052602001805160405193929190846401000000008211156200011557600080fd5b838201915060208201858111156200012c57600080fd5b82518660018202830111640100000000821117156200014a57600080fd5b8083526020830192505050908051906020019080838360005b838110156200018057808201518184015260208101905062000163565b50505050905090810190601f168015620001ae5780820380516001836020036101000a031916815260200191505b50604052505050818173dd3782915140c8f3b190b5d67eac6dc5760c46e973a36085f69e2889c224210f603d836748e7dc00888173ffffffffffffffffffffffffffffffffffffffff1660a08173ffffffffffffffffffffffffffffffffffffffff1660601b815250508073ffffffffffffffffffffffffffffffffffffffff1660808173ffffffffffffffffffffffffffffffffffffffff1660601b815250505050620002696301ffc9a760e01b620011db60201b60201c565b816007908051906020019062000281929190620012e4565b5080600890805190602001906200029a929190620012e4565b50620002b36380ac58cd60e01b620011db60201b60201c565b620002cb635b5e139f60e01b620011db60201b60201c565b620002e363780e9d6360e01b620011db60201b60201c565b50507f6c3699283bda56ad74f6b855546325b68d482e983852a7a82979cc4807b641f460001b600b8190555067016345785d8a0000600c819055506004600d6000808152602001908152602001600020819055506007600d600060018152602001908152602001600020819055506009600d60006002815260200190815260200160002081905550600b600d600060038152602001908152602001600020819055506023600d600060048152602001908152602001600020819055506050600d6000600581526020019081526020016000208190555060106040518060600160405280621b77406fffffffffffffffffffffffffffffffff168152602001600060ff168152602001600060ff168152509080600181540180825580915050600190039060005260206000200160009091909190915060008201518160000160006101000a8154816fffffffffffffffffffffffffffffffff02191690836fffffffffffffffffffffffffffffffff16021790555060208201518160000160106101000a81548160ff021916908360ff16021790555060408201518160000160116101000a81548160ff021916908360ff160217905550505060106040518060600160405280620c35006fffffffffffffffffffffffffffffffff168152602001600060ff168152602001600160ff168152509080600181540180825580915050600190039060005260206000200160009091909190915060008201518160000160006101000a8154816fffffffffffffffffffffffffffffffff02191690836fffffffffffffffffffffffffffffffff16021790555060208201518160000160106101000a81548160ff021916908360ff16021790555060408201518160000160116101000a81548160ff021916908360ff16021790555050506010604051806060016040528062030d406fffffffffffffffffffffffffffffffff168152602001600060ff168152602001600260ff168152509080600181540180825580915050600190039060005260206000200160009091909190915060008201518160000160006101000a8154816fffffffffffffffffffffffffffffffff02191690836fffffffffffffffffffffffffffffffff16021790555060208201518160000160106101000a81548160ff021916908360ff16021790555060408201518160000160116101000a81548160ff021916908360ff16021790555050506010604051806060016040528062186a006fffffffffffffffffffffffffffffffff168152602001600160ff168152602001600060ff168152509080600181540180825580915050600190039060005260206000200160009091909190915060008201518160000160006101000a8154816fffffffffffffffffffffffffffffffff02191690836fffffffffffffffffffffffffffffffff16021790555060208201518160000160106101000a81548160ff021916908360ff16021790555060408201518160000160116101000a81548160ff021916908360ff160217905550505060106040518060600160405280620aae606fffffffffffffffffffffffffffffffff168152602001600160ff168152602001600160ff168152509080600181540180825580915050600190039060005260206000200160009091909190915060008201518160000160006101000a8154816fffffffffffffffffffffffffffffffff02191690836fffffffffffffffffffffffffffffffff16021790555060208201518160000160106101000a81548160ff021916908360ff16021790555060408201518160000160116101000a81548160ff021916908360ff160217905550505060106040518060600160405280620124f86fffffffffffffffffffffffffffffffff168152602001600160ff168152602001600260ff168152509080600181540180825580915050600190039060005260206000200160009091909190915060008201518160000160006101000a8154816fffffffffffffffffffffffffffffffff02191690836fffffffffffffffffffffffffffffffff16021790555060208201518160000160106101000a81548160ff021916908360ff16021790555060408201518160000160116101000a81548160ff021916908360ff16021790555050506010604051806060016040528062155cc06fffffffffffffffffffffffffffffffff168152602001600260ff168152602001600060ff168152509080600181540180825580915050600190039060005260206000200160009091909190915060008201518160000160006101000a8154816fffffffffffffffffffffffffffffffff02191690836fffffffffffffffffffffffffffffffff16021790555060208201518160000160106101000a81548160ff021916908360ff16021790555060408201518160000160116101000a81548160ff021916908360ff160217905550505060106040518060600160405280620927c06fffffffffffffffffffffffffffffffff168152602001600260ff168152602001600160ff168152509080600181540180825580915050600190039060005260206000200160009091909190915060008201518160000160006101000a8154816fffffffffffffffffffffffffffffffff02191690836fffffffffffffffffffffffffffffffff16021790555060208201518160000160106101000a81548160ff021916908360ff16021790555060408201518160000160116101000a81548160ff021916908360ff160217905550505060106040518060600160405280611f406fffffffffffffffffffffffffffffffff168152602001600260ff168152602001600260ff168152509080600181540180825580915050600190039060005260206000200160009091909190915060008201518160000160006101000a8154816fffffffffffffffffffffffffffffffff02191690836fffffffffffffffffffffffffffffffff16021790555060208201518160000160106101000a81548160ff021916908360ff16021790555060408201518160000160116101000a81548160ff021916908360ff16021790555050506010604051806060016040528062124f806fffffffffffffffffffffffffffffffff168152602001600360ff168152602001600060ff168152509080600181540180825580915050600190039060005260206000200160009091909190915060008201518160000160006101000a8154816fffffffffffffffffffffffffffffffff02191690836fffffffffffffffffffffffffffffffff16021790555060208201518160000160106101000a81548160ff021916908360ff16021790555060408201518160000160116101000a81548160ff021916908360ff16021790555050506010604051806060016040528062061a806fffffffffffffffffffffffffffffffff168152602001600360ff168152602001600160ff168152509080600181540180825580915050600190039060005260206000200160009091909190915060008201518160000160006101000a8154816fffffffffffffffffffffffffffffffff02191690836fffffffffffffffffffffffffffffffff16021790555060208201518160000160106101000a81548160ff021916908360ff16021790555060408201518160000160116101000a81548160ff021916908360ff1602179055505050601060405180606001604052806103de6fffffffffffffffffffffffffffffffff168152602001600360ff168152602001600260ff168152509080600181540180825580915050600190039060005260206000200160009091909190915060008201518160000160006101000a8154816fffffffffffffffffffffffffffffffff02191690836fffffffffffffffffffffffffffffffff16021790555060208201518160000160106101000a81548160ff021916908360ff16021790555060408201518160000160116101000a81548160ff021916908360ff160217905550505060106040518060600160405280620aecdf6fffffffffffffffffffffffffffffffff168152602001600460ff168152602001600060ff168152509080600181540180825580915050600190039060005260206000200160009091909190915060008201518160000160006101000a8154816fffffffffffffffffffffffffffffffff02191690836fffffffffffffffffffffffffffffffff16021790555060208201518160000160106101000a81548160ff021916908360ff16021790555060408201518160000160116101000a81548160ff021916908360ff160217905550505060106040518060600160405280600a6fffffffffffffffffffffffffffffffff168152602001600460ff168152602001600160ff168152509080600181540180825580915050600190039060005260206000200160009091909190915060008201518160000160006101000a8154816fffffffffffffffffffffffffffffffff02191690836fffffffffffffffffffffffffffffffff16021790555060208201518160000160106101000a81548160ff021916908360ff16021790555060408201518160000160116101000a81548160ff021916908360ff1602179055505050601060405180606001604052806207a1206fffffffffffffffffffffffffffffffff168152602001600560ff168152602001600060ff168152509080600181540180825580915050600190039060005260206000200160009091909190915060008201518160000160006101000a8154816fffffffffffffffffffffffffffffffff02191690836fffffffffffffffffffffffffffffffff16021790555060208201518160000160106101000a81548160ff021916908360ff16021790555060408201518160000160116101000a81548160ff021916908360ff16021790555050506010604051806060016040528060016fffffffffffffffffffffffffffffffff168152602001600560ff168152602001600160ff168152509080600181540180825580915050600190039060005260206000200160009091909190915060008201518160000160006101000a8154816fffffffffffffffffffffffffffffffff02191690836fffffffffffffffffffffffffffffffff16021790555060208201518160000160106101000a81548160ff021916908360ff16021790555060408201518160000160116101000a81548160ff021916908360ff1602179055505050505062001393565b63ffffffff60e01b817bffffffffffffffffffffffffffffffffffffffffffffffffffffffff1916141562001278576040517f08c379a000000000000000000000000000000000000000000000000000000000815260040180806020018281038252601c8152602001807f4552433136353a20696e76616c696420696e746572666163652069640000000081525060200191505060405180910390fd5b6001806000837bffffffffffffffffffffffffffffffffffffffffffffffffffffffff19167bffffffffffffffffffffffffffffffffffffffffffffffffffffffff1916815260200190815260200160002060006101000a81548160ff02191690831515021790555050565b828054600181600116156101000203166002900490600052602060002090601f016020900481019282601f106200132757805160ff191683800117855562001358565b8280016001018555821562001358579182015b82811115620013575782518255916020019190600101906200133a565b5b5090506200136791906200136b565b5090565b6200139091905b808211156200138c57600081600090555060010162001372565b5090565b90565b60805160601c60a05160601c613d86620013c7600039806110f85280611def52508061143c5280611db35250613d866000f3fe6080604052600436106101405760003560e01c806370a08231116100b6578063b88d4fde1161006f578063b88d4fde146107f7578063c87b56dd14610909578063cc33c875146109bd578063db006a7514610a13578063dc6cfe1014610a4e578063e985e9c514610ab157610140565b806370a082311461060757806394985ddd1461066c57806395d89b41146106b15780639e317f1214610741578063a22cb46514610790578063b1a18cc7146107ed57610140565b806323b872dd1161010857806323b872dd146103485780632f745c59146103c357806342842e0e146104325780634f6ccce7146104ad5780636352211e146104fc5780636c0360eb1461057757610140565b806301ffc9a71461014557806306fdde03146101b7578063081812fc14610247578063095ea7b3146102c257806318160ddd1461031d575b600080fd5b34801561015157600080fd5b5061019d6004803603602081101561016857600080fd5b8101908080357bffffffffffffffffffffffffffffffffffffffffffffffffffffffff19169060200190929190505050610b3a565b604051808215151515815260200191505060405180910390f35b3480156101c357600080fd5b506101cc610ba2565b6040518080602001828103825283818151815260200191508051906020019080838360005b8381101561020c5780820151818401526020810190506101f1565b50505050905090810190601f1680156102395780820380516001836020036101000a031916815260200191505b509250505060405180910390f35b34801561025357600080fd5b506102806004803603602081101561026a57600080fd5b8101908080359060200190929190505050610c44565b604051808273ffffffffffffffffffffffffffffffffffffffff1673ffffffffffffffffffffffffffffffffffffffff16815260200191505060405180910390f35b3480156102ce57600080fd5b5061031b600480360360408110156102e557600080fd5b81019080803573ffffffffffffffffffffffffffffffffffffffff16906020019092919080359060200190929190505050610cdf565b005b34801561032957600080fd5b50610332610e23565b6040518082815260200191505060405180910390f35b34801561035457600080fd5b506103c16004803603606081101561036b57600080fd5b81019080803573ffffffffffffffffffffffffffffffffffffffff169060200190929190803573ffffffffffffffffffffffffffffffffffffffff16906020019092919080359060200190929190505050610e34565b005b3480156103cf57600080fd5b5061041c600480360360408110156103e657600080fd5b81019080803573ffffffffffffffffffffffffffffffffffffffff16906020019092919080359060200190929190505050610eaa565b6040518082815260200191505060405180910390f35b34801561043e57600080fd5b506104ab6004803603606081101561045557600080fd5b81019080803573ffffffffffffffffffffffffffffffffffffffff169060200190929190803573ffffffffffffffffffffffffffffffffffffffff16906020019092919080359060200190929190505050610f05565b005b3480156104b957600080fd5b506104e6600480360360208110156104d057600080fd5b8101908080359060200190929190505050610f25565b6040518082815260200191505060405180910390f35b34801561050857600080fd5b506105356004803603602081101561051f57600080fd5b8101908080359060200190929190505050610f48565b604051808273ffffffffffffffffffffffffffffffffffffffff1673ffffffffffffffffffffffffffffffffffffffff16815260200191505060405180910390f35b34801561058357600080fd5b5061058c610f7f565b6040518080602001828103825283818151815260200191508051906020019080838360005b838110156105cc5780820151818401526020810190506105b1565b50505050905090810190601f1680156105f95780820380516001836020036101000a031916815260200191505b509250505060405180910390f35b34801561061357600080fd5b506106566004803603602081101561062a57600080fd5b81019080803573ffffffffffffffffffffffffffffffffffffffff169060200190929190505050611021565b6040518082815260200191505060405180910390f35b34801561067857600080fd5b506106af6004803603604081101561068f57600080fd5b8101908080359060200190929190803590602001909291905050506110f6565b005b3480156106bd57600080fd5b506106c66111c5565b6040518080602001828103825283818151815260200191508051906020019080838360005b838110156107065780820151818401526020810190506106eb565b50505050905090810190601f1680156107335780820380516001836020036101000a031916815260200191505b509250505060405180910390f35b34801561074d57600080fd5b5061077a6004803603602081101561076457600080fd5b8101908080359060200190929190505050611267565b6040518082815260200191505060405180910390f35b34801561079c57600080fd5b506107eb600480360360408110156107b357600080fd5b81019080803573ffffffffffffffffffffffffffffffffffffffff16906020019092919080351515906020019092919050505061127f565b005b6107f5611437565b005b34801561080357600080fd5b506109076004803603608081101561081a57600080fd5b81019080803573ffffffffffffffffffffffffffffffffffffffff169060200190929190803573ffffffffffffffffffffffffffffffffffffffff169060200190929190803590602001909291908035906020019064010000000081111561088157600080fd5b82018360208201111561089357600080fd5b803590602001918460018302840111640100000000831117156108b557600080fd5b91908080601f016020809104026020016040519081016040528093929190818152602001838380828437600081840152601f19601f8201169050808301925050505050505091929192905050506116d7565b005b34801561091557600080fd5b506109426004803603602081101561092c57600080fd5b810190808035906020019092919050505061174f565b6040518080602001828103825283818151815260200191508051906020019080838360005b83811015610982578082015181840152602081019050610967565b50505050905090810190601f1680156109af5780820380516001836020036101000a031916815260200191505b509250505060405180910390f35b3480156109c957600080fd5b506109f6600480360360208110156109e057600080fd5b8101908080359060200190929190505050611a38565b604051808381526020018281526020019250505060405180910390f35b348015610a1f57600080fd5b50610a4c60048036036020811015610a3657600080fd5b8101908080359060200190929190505050611af0565b005b348015610a5a57600080fd5b50610a9b60048036036060811015610a7157600080fd5b81019080803590602001909291908035906020019092919080359060200190929190505050611daf565b6040518082815260200191505060405180910390f35b348015610abd57600080fd5b50610b2060048036036040811015610ad457600080fd5b81019080803573ffffffffffffffffffffffffffffffffffffffff169060200190929190803573ffffffffffffffffffffffffffffffffffffffff169060200190929190505050611fba565b604051808215151515815260200191505060405180910390f35b600060016000837bffffffffffffffffffffffffffffffffffffffffffffffffffffffff19167bffffffffffffffffffffffffffffffffffffffffffffffffffffffff1916815260200190815260200160002060009054906101000a900460ff169050919050565b606060078054600181600116156101000203166002900480601f016020809104026020016040519081016040528092919081815260200182805460018160011615610100020316600290048015610c3a5780601f10610c0f57610100808354040283529160200191610c3a565b820191906000526020600020905b815481529060010190602001808311610c1d57829003601f168201915b5050505050905090565b6000610c4f8261204e565b610ca4576040517f08c379a000000000000000000000000000000000000000000000000000000000815260040180806020018281038252602c815260200180613c2e602c913960400191505060405180910390fd5b6005600083815260200190815260200160002060009054906101000a900473ffffffffffffffffffffffffffffffffffffffff169050919050565b6000610cea82610f48565b90508073ffffffffffffffffffffffffffffffffffffffff168373ffffffffffffffffffffffffffffffffffffffff161415610d71576040517f08c379a0000000000000000000000000000000000000000000000000000000008152600401808060200182810382526021815260200180613cff6021913960400191505060405180910390fd5b8073ffffffffffffffffffffffffffffffffffffffff16610d9061206b565b73ffffffffffffffffffffffffffffffffffffffff161480610dbf5750610dbe81610db961206b565b611fba565b5b610e14576040517f08c379a0000000000000000000000000000000000000000000000000000000008152600401808060200182810382526038815260200180613b606038913960400191505060405180910390fd5b610e1e8383612073565b505050565b6000610e2f600361212c565b905090565b610e45610e3f61206b565b82612141565b610e9a576040517f08c379a0000000000000000000000000000000000000000000000000000000008152600401808060200182810382526031815260200180613d206031913960400191505060405180910390fd5b610ea5838383612235565b505050565b6000610efd82600260008673ffffffffffffffffffffffffffffffffffffffff1673ffffffffffffffffffffffffffffffffffffffff16815260200190815260200160002061247890919063ffffffff16565b905092915050565b610f20838383604051806020016040528060008152506116d7565b505050565b600080610f3c83600361249290919063ffffffff16565b50905080915050919050565b6000610f7882604051806060016040528060298152602001613bc26029913960036124c19092919063ffffffff16565b9050919050565b6060600a8054600181600116156101000203166002900480601f0160208091040260200160405190810160405280929190818152602001828054600181600116156101000203166002900480156110175780601f10610fec57610100808354040283529160200191611017565b820191906000526020600020905b815481529060010190602001808311610ffa57829003601f168201915b5050505050905090565b60008073ffffffffffffffffffffffffffffffffffffffff168273ffffffffffffffffffffffffffffffffffffffff1614156110a8576040517f08c379a000000000000000000000000000000000000000000000000000000000815260040180806020018281038252602a815260200180613b98602a913960400191505060405180910390fd5b6110ef600260008473ffffffffffffffffffffffffffffffffffffffff1673ffffffffffffffffffffffffffffffffffffffff1681526020019081526020016000206124e0565b9050919050565b7f000000000000000000000000000000000000000000000000000000000000000073ffffffffffffffffffffffffffffffffffffffff163373ffffffffffffffffffffffffffffffffffffffff16146111b7576040517f08c379a000000000000000000000000000000000000000000000000000000000815260040180806020018281038252601f8152602001807f4f6e6c7920565246436f6f7264696e61746f722063616e2066756c66696c6c0081525060200191505060405180910390fd5b6111c182826124f5565b5050565b606060088054600181600116156101000203166002900480601f01602080910402602001604051908101604052809291908181526020018280546001816001161561010002031660029004801561125d5780601f106112325761010080835404028352916020019161125d565b820191906000526020600020905b81548152906001019060200180831161124057829003601f168201915b5050505050905090565b60006020528060005260406000206000915090505481565b61128761206b565b73ffffffffffffffffffffffffffffffffffffffff168273ffffffffffffffffffffffffffffffffffffffff161415611328576040517f08c379a00000000000000000000000000000000000000000000000000000000081526004018080602001828103825260198152602001807f4552433732313a20617070726f766520746f2063616c6c65720000000000000081525060200191505060405180910390fd5b806006600061133561206b565b73ffffffffffffffffffffffffffffffffffffffff1673ffffffffffffffffffffffffffffffffffffffff16815260200190815260200160002060008473ffffffffffffffffffffffffffffffffffffffff1673ffffffffffffffffffffffffffffffffffffffff16815260200190815260200160002060006101000a81548160ff0219169083151502179055508173ffffffffffffffffffffffffffffffffffffffff166113e261206b565b73ffffffffffffffffffffffffffffffffffffffff167f17307eab39ab6107e8899845ad3d59bd9653f200f220920489ca2b5937696c3183604051808215151515815260200191505060405180910390a35050565b600c547f000000000000000000000000000000000000000000000000000000000000000073ffffffffffffffffffffffffffffffffffffffff166370a08231306040518263ffffffff1660e01b8152600401808273ffffffffffffffffffffffffffffffffffffffff1673ffffffffffffffffffffffffffffffffffffffff16815260200191505060206040518083038186803b1580156114d757600080fd5b505afa1580156114eb573d6000803e3d6000fd5b505050506040513d602081101561150157600080fd5b81019080805190602001909291905050501015611569576040517f08c379a000000000000000000000000000000000000000000000000000000000815260040180806020018281038252602b815260200180613b09602b913960400191505060405180910390fd5b662386f26fc1000034146115e5576040517f08c379a000000000000000000000000000000000000000000000000000000000815260040180806020018281038252600e8152602001807f6e6f7420656e6f7567682045544800000000000000000000000000000000000081525060200191505060405180910390fd5b6000600143034060001c90506000611602600b54600c5484611daf565b905033600e600083815260200190815260200160002060006101000a81548173ffffffffffffffffffffffffffffffffffffffff021916908373ffffffffffffffffffffffffffffffffffffffff1602179055506000611667600b54600c5485611daf565b905033600e600083815260200190815260200160002060006101000a81548173ffffffffffffffffffffffffffffffffffffffff021916908373ffffffffffffffffffffffffffffffffffffffff1602179055506116c582426124f5565b6116d281600742026124f5565b505050565b6116e86116e261206b565b83612141565b61173d576040517f08c379a0000000000000000000000000000000000000000000000000000000008152600401808060200182810382526031815260200180613d206031913960400191505060405180910390fd5b611749848484846125b9565b50505050565b606061175a8261204e565b6117af576040517f08c379a000000000000000000000000000000000000000000000000000000000815260040180806020018281038252602f815260200180613c83602f913960400191505060405180910390fd5b6060600960008481526020019081526020016000208054600181600116156101000203166002900480601f0160208091040260200160405190810160405280929190818152602001828054600181600116156101000203166002900480156118585780601f1061182d57610100808354040283529160200191611858565b820191906000526020600020905b81548152906001019060200180831161183b57829003601f168201915b505050505090506000600a80546001816001161561010002031660029004905014156118875780915050611a33565b60008151111561196057600a8160405160200180838054600181600116156101000203166002900480156118f25780601f106118d05761010080835404028352918201916118f2565b820191906000526020600020905b8154815290600101906020018083116118de575b505082805190602001908083835b602083106119235780518252602082019150602081019050602083039250611900565b6001836020036101000a03801982511681845116808217855250505050505090500192505050604051602081830303815290604052915050611a33565b600a61196b8461262b565b60405160200180838054600181600116156101000203166002900480156119c95780601f106119a75761010080835404028352918201916119c9565b820191906000526020600020905b8154815290600101906020018083116119b5575b505082805190602001908083835b602083106119fa57805182526020820191506020810190506020830392506119d7565b6001836020036101000a038019825116818451168082178552505050505050905001925050506040516020818303038152906040529150505b919050565b600080611a448361204e565b611a99576040517f08c379a000000000000000000000000000000000000000000000000000000000815260040180806020018281038252602f815260200180613c83602f913960400191505060405180910390fd5b600f600084815260200190815260200160002060000160009054906101000a900460ff1660ff169150600f600084815260200190815260200160002060000160019054906101000a900460ff1660ff169050915091565b6006811115611b67576040517f08c379a000000000000000000000000000000000000000000000000000000000815260040180806020018281038252601c8152602001807f36454c454d454e543a20696e76616c696420656c656d656e742069640000000081525060200191505060405180910390fd5b600060048211611b7a5760039050611b7f565b600290505b60606000611b8c33611021565b905060008090505b81811015611c35576000611ba83383610eaa565b905085600f600083815260200190815260200160002060000160009054906101000a900460ff1660ff161415611c27578084600f600084815260200190815260200160002060000160019054906101000a900460ff1660ff1681518110611c0b57fe5b6020026020010181815250508484511415611c265750611c35565b5b508080600101915050611b94565b5082825114611c8f576040517f08c379a000000000000000000000000000000000000000000000000000000000815260040180806020018281038252602c815260200180613cd3602c913960400191505060405180910390fd5b60008090505b8251811015611cc757611cba838281518110611cad57fe5b6020026020010151612772565b8080600101915050611c95565b5060004790506000611d086064611cfa600d60008a815260200190815260200160002054856128ac90919063ffffffff16565b61293290919063ffffffff16565b90503373ffffffffffffffffffffffffffffffffffffffff166108fc829081150290604051600060405180830381858888f19350505050158015611d50573d6000803e3d6000fd5b503373ffffffffffffffffffffffffffffffffffffffff167fe5b754fb1abb7f01b499791d0b820ae3b6af3424ac1c59768edb53f4ec31a9298783604051808381526020018281526020019250505060405180910390a2505050505050565b60007f000000000000000000000000000000000000000000000000000000000000000073ffffffffffffffffffffffffffffffffffffffff16634000aea07f000000000000000000000000000000000000000000000000000000000000000085878660405160200180838152602001828152602001925050506040516020818303038152906040526040518463ffffffff1660e01b8152600401808473ffffffffffffffffffffffffffffffffffffffff1673ffffffffffffffffffffffffffffffffffffffff16815260200183815260200180602001828103825283818151815260200191508051906020019080838360005b83811015611ebe578082015181840152602081019050611ea3565b50505050905090810190601f168015611eeb5780820380516001836020036101000a031916815260200191505b50945050505050602060405180830381600087803b158015611f0c57600080fd5b505af1158015611f20573d6000803e3d6000fd5b505050506040513d6020811015611f3657600080fd5b8101908080519060200190929190505050506000611f688584306000808a81526020019081526020016000205461297c565b9050611f906001600080888152602001908152602001600020546129f690919063ffffffff16565b60008087815260200190815260200160002081905550611fb08582612a7e565b9150509392505050565b6000600660008473ffffffffffffffffffffffffffffffffffffffff1673ffffffffffffffffffffffffffffffffffffffff16815260200190815260200160002060008373ffffffffffffffffffffffffffffffffffffffff1673ffffffffffffffffffffffffffffffffffffffff16815260200190815260200160002060009054906101000a900460ff16905092915050565b6000612064826003612ab790919063ffffffff16565b9050919050565b600033905090565b816005600083815260200190815260200160002060006101000a81548173ffffffffffffffffffffffffffffffffffffffff021916908373ffffffffffffffffffffffffffffffffffffffff160217905550808273ffffffffffffffffffffffffffffffffffffffff166120e683610f48565b73ffffffffffffffffffffffffffffffffffffffff167f8c5be1e5ebec7d5bd14f71427d1e84f3dd0314c0f7b2291e5b200ac8c7c3b92560405160405180910390a45050565b600061213a82600001612ad1565b9050919050565b600061214c8261204e565b6121a1576040517f08c379a000000000000000000000000000000000000000000000000000000000815260040180806020018281038252602c815260200180613b34602c913960400191505060405180910390fd5b60006121ac83610f48565b90508073ffffffffffffffffffffffffffffffffffffffff168473ffffffffffffffffffffffffffffffffffffffff16148061221b57508373ffffffffffffffffffffffffffffffffffffffff1661220384610c44565b73ffffffffffffffffffffffffffffffffffffffff16145b8061222c575061222b8185611fba565b5b91505092915050565b8273ffffffffffffffffffffffffffffffffffffffff1661225582610f48565b73ffffffffffffffffffffffffffffffffffffffff16146122c1576040517f08c379a0000000000000000000000000000000000000000000000000000000008152600401808060200182810382526029815260200180613c5a6029913960400191505060405180910390fd5b600073ffffffffffffffffffffffffffffffffffffffff168273ffffffffffffffffffffffffffffffffffffffff161415612347576040517f08c379a0000000000000000000000000000000000000000000000000000000008152600401808060200182810382526024815260200180613ae56024913960400191505060405180910390fd5b612352838383612ae2565b61235d600082612073565b6123ae81600260008673ffffffffffffffffffffffffffffffffffffffff1673ffffffffffffffffffffffffffffffffffffffff168152602001908152602001600020612ae790919063ffffffff16565b5061240081600260008573ffffffffffffffffffffffffffffffffffffffff1673ffffffffffffffffffffffffffffffffffffffff168152602001908152602001600020612b0190919063ffffffff16565b5061241781836003612b1b9092919063ffffffff16565b50808273ffffffffffffffffffffffffffffffffffffffff168473ffffffffffffffffffffffffffffffffffffffff167fddf252ad1be2c89b69c2b068fc378daa952ba7f163c4a11628f55a4df523b3ef60405160405180910390a4505050565b60006124878360000183612b50565b60001c905092915050565b6000806000806124a58660000186612bd3565b915091508160001c8160001c8090509350935050509250929050565b60006124d4846000018460001b84612c6c565b60001c90509392505050565b60006124ee82600001612d62565b9050919050565b6000600e600084815260200190815260200160002060009054906101000a900473ffffffffffffffffffffffffffffffffffffffff16905060008061253984612d73565b9150915060006125498383612ec1565b90506125558482612f46565b8373ffffffffffffffffffffffffffffffffffffffff167f7baf877f743c7240b0ee6b03d05a9d82c1d5b9c590beb886830f6f8edd07d8818484604051808360ff1681526020018260ff1681526020019250505060405180910390a2505050505050565b6125c4848484612235565b6125d08484848461313a565b612625576040517f08c379a0000000000000000000000000000000000000000000000000000000008152600401808060200182810382526032815260200180613ab36032913960400191505060405180910390fd5b50505050565b60606000821415612673576040518060400160405280600181526020017f3000000000000000000000000000000000000000000000000000000000000000815250905061276d565b600082905060005b6000821461269d578080600101915050600a828161269557fe5b04915061267b565b60608167ffffffffffffffff811180156126b657600080fd5b506040519080825280601f01601f1916602001820160405280156126e95781602001600182028036833780820191505090505b50905060006001830390508593505b6000841461276557600a848161270a57fe5b0660300160f81b8282806001900393508151811061272457fe5b60200101907effffffffffffffffffffffffffffffffffffffffffffffffffffffffffffff1916908160001a905350600a848161275d57fe5b0493506126f8565b819450505050505b919050565b600061277d82610f48565b905061278b81600084612ae2565b612796600083612073565b600060096000848152602001908152602001600020805460018160011615610100020316600290049050146127e5576009600083815260200190815260200160002060006127e49190613a23565b5b61283682600260008473ffffffffffffffffffffffffffffffffffffffff1673ffffffffffffffffffffffffffffffffffffffff168152602001908152602001600020612ae790919063ffffffff16565b5061284b82600361337f90919063ffffffff16565b5081600073ffffffffffffffffffffffffffffffffffffffff168273ffffffffffffffffffffffffffffffffffffffff167fddf252ad1be2c89b69c2b068fc378daa952ba7f163c4a11628f55a4df523b3ef60405160405180910390a45050565b6000808314156128bf576000905061292c565b60008284029050828482816128d057fe5b0414612927576040517f08c379a0000000000000000000000000000000000000000000000000000000008152600401808060200182810382526021815260200180613c0d6021913960400191505060405180910390fd5b809150505b92915050565b600061297483836040518060400160405280601a81526020017f536166654d6174683a206469766973696f6e206279207a65726f000000000000815250613399565b905092915050565b600084848484604051602001808581526020018481526020018373ffffffffffffffffffffffffffffffffffffffff1673ffffffffffffffffffffffffffffffffffffffff1681526020018281526020019450505050506040516020818303038152906040528051906020012060001c9050949350505050565b600080828401905083811015612a74576040517f08c379a000000000000000000000000000000000000000000000000000000000815260040180806020018281038252601b8152602001807f536166654d6174683a206164646974696f6e206f766572666c6f77000000000081525060200191505060405180910390fd5b8091505092915050565b60008282604051602001808381526020018281526020019250505060405160208183030381529060405280519060200120905092915050565b6000612ac9836000018360001b61345f565b905092915050565b600081600001805490509050919050565b505050565b6000612af9836000018360001b613482565b905092915050565b6000612b13836000018360001b61356a565b905092915050565b6000612b47846000018460001b8473ffffffffffffffffffffffffffffffffffffffff1660001b6135da565b90509392505050565b600081836000018054905011612bb1576040517f08c379a0000000000000000000000000000000000000000000000000000000008152600401808060200182810382526022815260200180613a916022913960400191505060405180910390fd5b826000018281548110612bc057fe5b9060005260206000200154905092915050565b60008082846000018054905011612c35576040517f08c379a0000000000000000000000000000000000000000000000000000000008152600401808060200182810382526022815260200180613beb6022913960400191505060405180910390fd5b6000846000018481548110612c4657fe5b906000526020600020906002020190508060000154816001015492509250509250929050565b60008084600101600085815260200190815260200160002054905060008114158390612d33576040517f08c379a00000000000000000000000000000000000000000000000000000000081526004018080602001828103825283818151815260200191508051906020019080838360005b83811015612cf8578082015181840152602081019050612cdd565b50505050905090810190601f168015612d255780820380516001836020036101000a031916815260200191505b509250505060405180910390fd5b50846000016001820381548110612d4657fe5b9060005260206000209060020201600101549150509392505050565b600081600001805490509050919050565b6000806000629896808481612d8457fe5b069050600080600090505b601080549050811015612e6a57612df760108281548110612dac57fe5b9060005260206000200160000160009054906101000a90046fffffffffffffffffffffffffffffffff166fffffffffffffffffffffffffffffffff16836129f690919063ffffffff16565b915081831015612e5d5760108181548110612e0e57fe5b9060005260206000200160000160109054906101000a900460ff1660108281548110612e3657fe5b9060005260206000200160000160119054906101000a900460ff1694509450505050612ebc565b8080600101915050612d8f565b506040517f08c379a0000000000000000000000000000000000000000000000000000000008152600401808060200182810382526021815260200180613cb26021913960400191505060405180910390fd5b915091565b6000612ecb610e23565b905060405180604001604052808460ff1681526020018360ff16815250600f600083815260200190815260200160002060008201518160000160006101000a81548160ff021916908360ff16021790555060208201518160000160016101000a81548160ff021916908360ff16021790555090505092915050565b600073ffffffffffffffffffffffffffffffffffffffff168273ffffffffffffffffffffffffffffffffffffffff161415612fe9576040517f08c379a00000000000000000000000000000000000000000000000000000000081526004018080602001828103825260208152602001807f4552433732313a206d696e7420746f20746865207a65726f206164647265737381525060200191505060405180910390fd5b612ff28161204e565b15613065576040517f08c379a000000000000000000000000000000000000000000000000000000000815260040180806020018281038252601c8152602001807f4552433732313a20746f6b656e20616c7265616479206d696e7465640000000081525060200191505060405180910390fd5b61307160008383612ae2565b6130c281600260008573ffffffffffffffffffffffffffffffffffffffff1673ffffffffffffffffffffffffffffffffffffffff168152602001908152602001600020612b0190919063ffffffff16565b506130d981836003612b1b9092919063ffffffff16565b50808273ffffffffffffffffffffffffffffffffffffffff16600073ffffffffffffffffffffffffffffffffffffffff167fddf252ad1be2c89b69c2b068fc378daa952ba7f163c4a11628f55a4df523b3ef60405160405180910390a45050565b600061315b8473ffffffffffffffffffffffffffffffffffffffff166136b6565b6131685760019050613377565b60606132fe63150b7a0260e01b61317d61206b565b888787604051602401808573ffffffffffffffffffffffffffffffffffffffff1673ffffffffffffffffffffffffffffffffffffffff1681526020018473ffffffffffffffffffffffffffffffffffffffff1673ffffffffffffffffffffffffffffffffffffffff16815260200183815260200180602001828103825283818151815260200191508051906020019080838360005b8381101561322d578082015181840152602081019050613212565b50505050905090810190601f16801561325a5780820380516001836020036101000a031916815260200191505b5095505050505050604051602081830303815290604052907bffffffffffffffffffffffffffffffffffffffffffffffffffffffff19166020820180517bffffffffffffffffffffffffffffffffffffffffffffffffffffffff8381831617835250505050604051806060016040528060328152602001613ab3603291398773ffffffffffffffffffffffffffffffffffffffff166136c99092919063ffffffff16565b9050600081806020019051602081101561331757600080fd5b8101908080519060200190929190505050905063150b7a0260e01b7bffffffffffffffffffffffffffffffffffffffffffffffffffffffff1916817bffffffffffffffffffffffffffffffffffffffffffffffffffffffff191614925050505b949350505050565b6000613391836000018360001b6136e1565b905092915050565b60008083118290613445576040517f08c379a00000000000000000000000000000000000000000000000000000000081526004018080602001828103825283818151815260200191508051906020019080838360005b8381101561340a5780820151818401526020810190506133ef565b50505050905090810190601f1680156134375780820380516001836020036101000a031916815260200191505b509250505060405180910390fd5b50600083858161345157fe5b049050809150509392505050565b600080836001016000848152602001908152602001600020541415905092915050565b6000808360010160008481526020019081526020016000205490506000811461355e57600060018203905060006001866000018054905003905060008660000182815481106134cd57fe5b90600052602060002001549050808760000184815481106134ea57fe5b906000526020600020018190555060018301876001016000838152602001908152602001600020819055508660000180548061352257fe5b60019003818190600052602060002001600090559055866001016000878152602001908152602001600020600090556001945050505050613564565b60009150505b92915050565b600061357683836137fa565b6135cf5782600001829080600181540180825580915050600190039060005260206000200160009091909190915055826000018054905083600101600084815260200190815260200160002081905550600190506135d4565b600090505b92915050565b6000808460010160008581526020019081526020016000205490506000811415613681578460000160405180604001604052808681526020018581525090806001815401808255809150506001900390600052602060002090600202016000909190919091506000820151816000015560208201518160010155505084600001805490508560010160008681526020019081526020016000208190555060019150506136af565b8285600001600183038154811061369457fe5b90600052602060002090600202016001018190555060009150505b9392505050565b600080823b905060008111915050919050565b60606136d8848460008561381d565b90509392505050565b600080836001016000848152602001908152602001600020549050600081146137ee576000600182039050600060018660000180549050039050600086600001828154811061372c57fe5b906000526020600020906002020190508087600001848154811061374c57fe5b906000526020600020906002020160008201548160000155600182015481600101559050506001830187600101600083600001548152602001908152602001600020819055508660000180548061379f57fe5b60019003818190600052602060002090600202016000808201600090556001820160009055505090558660010160008781526020019081526020016000206000905560019450505050506137f4565b60009150505b92915050565b600080836001016000848152602001908152602001600020541415905092915050565b6060613828856136b6565b61389a576040517f08c379a000000000000000000000000000000000000000000000000000000000815260040180806020018281038252601d8152602001807f416464726573733a2063616c6c20746f206e6f6e2d636f6e747261637400000081525060200191505060405180910390fd5b600060608673ffffffffffffffffffffffffffffffffffffffff1685876040518082805190602001908083835b602083106138ea57805182526020820191506020810190506020830392506138c7565b6001836020036101000a03801982511681845116808217855250505050505090500191505060006040518083038185875af1925050503d806000811461394c576040519150601f19603f3d011682016040523d82523d6000602084013e613951565b606091505b50915091508115613966578092505050613a1b565b6000815111156139795780518082602001fd5b836040517f08c379a00000000000000000000000000000000000000000000000000000000081526004018080602001828103825283818151815260200191508051906020019080838360005b838110156139e05780820151818401526020810190506139c5565b50505050905090810190601f168015613a0d5780820380516001836020036101000a031916815260200191505b509250505060405180910390fd5b949350505050565b50805460018160011615610100020316600290046000825580601f10613a495750613a68565b601f016020900490600052602060002090810190613a679190613a6b565b5b50565b613a8d91905b80821115613a89576000816000905550600101613a71565b5090565b9056fe456e756d657261626c655365743a20696e646578206f7574206f6620626f756e64734552433732313a207472616e7366657220746f206e6f6e20455243373231526563656976657220696d706c656d656e7465724552433732313a207472616e7366657220746f20746865207a65726f20616464726573734e6f7420656e6f756768204c494e4b202d2066696c6c20636f6e74726163742077697468206661756365744552433732313a206f70657261746f7220717565727920666f72206e6f6e6578697374656e7420746f6b656e4552433732313a20617070726f76652063616c6c6572206973206e6f74206f776e6572206e6f7220617070726f76656420666f7220616c6c4552433732313a2062616c616e636520717565727920666f7220746865207a65726f20616464726573734552433732313a206f776e657220717565727920666f72206e6f6e6578697374656e7420746f6b656e456e756d657261626c654d61703a20696e646578206f7574206f6620626f756e6473536166654d6174683a206d756c7469706c69636174696f6e206f766572666c6f774552433732313a20617070726f76656420717565727920666f72206e6f6e6578697374656e7420746f6b656e4552433732313a207472616e73666572206f6620746f6b656e2074686174206973206e6f74206f776e4552433732314d657461646174613a2055524920717565727920666f72206e6f6e6578697374656e7420746f6b656e36454c454d454e543a2053656c656374696e6720656c656d656e74206572726f7236454c454d454e543a20796f7520646f206e6f742068617665206e656365737361727920656c656d656e74734552433732313a20617070726f76616c20746f2063757272656e74206f776e65724552433732313a207472616e736665722063616c6c6572206973206e6f74206f776e6572206e6f7220617070726f766564a264697066735822122063efd48c7422e80e8cc484f8c6b7ace8cb3eebb1cac401cf25594963f75d45eb64736f6c63430006060033",
  "immutableReferences": {
    "877": [
      {
        "length": 32,
        "start": 5180
      },
      {
        "length": 32,
        "start": 7603
      }
    ],
    "879": [
      {
        "length": 32,
        "start": 4344
      },
      {
        "length": 32,
        "start": 7663
      }
    ]
  },
  "source": "// SPDX-License-Identifier: MIT\npragma solidity >=0.4.21 <0.7.0;\n\n// import \"@chainlink/contracts/src/v0.6/VRFConsumerBase.sol\";\nimport \"./chainlink/VRFConsumerBase.sol\";// prevent to load double safemath\nimport \"@openzeppelin/contracts/token/ERC721/ERC721.sol\";\n\ncontract SixElements is VRFConsumerBase, ERC721 {\n    bytes32 internal keyHash;\n    uint256 internal fee;\n    \n    mapping(uint256 => uint256) rewardRates;\n    mapping(bytes32 => address) private _receivers;\n    mapping(uint256 => Token) tokens;\n    Rate[] rates;\n\n    struct Rate {\n        uint128 number;\n        uint8 element;\n        uint8 rank;\n    }\n\n    struct Token {\n        uint8 element;\n        uint8 rank;\n    }\n\n    event Receive(address indexed player, uint256 element, uint256 rank );\n    event Redeem(address indexed player, uint256 element, uint256 reward );\n    \n    /**\n     * Constructor inherits VRFConsumerBase\n     * \n     * Network: Kovan\n     * Chainlink VRF Coordinator address: 0xdD3782915140c8f3b190B5D67eAc6dc5760C46E9\n     * LINK token address:                0xa36085F69e2889c224210F603D836748e7dC0088\n     * Key Hash: 0x6c3699283bda56ad74f6b855546325b68d482e983852a7a82979cc4807b641f4\n     */\n    constructor(string memory name, string memory symbol) \n        VRFConsumerBase(\n            0xdD3782915140c8f3b190B5D67eAc6dc5760C46E9, // VRF Coordinator\n            0xa36085F69e2889c224210F603D836748e7dC0088  // LINK Token\n        ) ERC721(name, symbol) public\n    {\n        keyHash = 0x6c3699283bda56ad74f6b855546325b68d482e983852a7a82979cc4807b641f4;\n        fee = 0.1 * 10 ** 18; // 0.1 LINK\n        rewardRates[0] = 4;\n        rewardRates[1] = 7;\n        rewardRates[2] = 9;\n        rewardRates[3] = 11;\n        rewardRates[4] = 35;\n        rewardRates[5] = 80;\n        rates.push(Rate({ number: 1800000, element: 0, rank: 0 }));\n        rates.push(Rate({ number: 800000, element: 0, rank: 1 }));\n        rates.push(Rate({ number: 200000, element: 0, rank: 2 }));\n        rates.push(Rate({ number: 1600000, element: 1, rank: 0 }));\n        rates.push(Rate({ number: 700000, element: 1, rank: 1 }));\n        rates.push(Rate({ number: 75000, element: 1, rank: 2 }));\n        rates.push(Rate({ number: 1400000, element: 2, rank: 0 }));\n        rates.push(Rate({ number: 600000, element: 2, rank: 1 }));\n        rates.push(Rate({ number: 8000, element: 2, rank: 2 }));\n        rates.push(Rate({ number: 1200000, element: 3, rank: 0 }));\n        rates.push(Rate({ number: 400000, element: 3, rank: 1 }));\n        rates.push(Rate({ number: 990, element: 3, rank: 2 }));\n        rates.push(Rate({ number: 715999, element: 4, rank: 0 }));\n        rates.push(Rate({ number: 10, element: 4, rank: 1 }));\n        rates.push(Rate({ number: 500000, element: 5, rank: 0 }));\n        rates.push(Rate({ number: 1, element: 5, rank: 1 }));\n    }\n\n    function tokenInfo(uint256 tokenId) public view returns(uint256 element, uint256 rank) {\n        require(_exists(tokenId), \"ERC721Metadata: URI query for nonexistent token\");\n\n        element = tokens[tokenId].element;\n        rank = tokens[tokenId].rank;\n    }\n    \n    /** \n     * Requests randomness from a user-provided seed\n     */\n    function getElements() external payable {\n        require(LINK.balanceOf(address(this)) >= fee, \"Not enough LINK - fill contract with faucet\");\n        require(msg.value == 0.01 ether, \"not enough ETH\");\n\n        uint256 seed = uint256(blockhash(block.number - 1));\n        bytes32 requestId1 = requestRandomness(keyHash, fee, seed);\n        _receivers[requestId1] = msg.sender;\n\n        bytes32 requestId2 = requestRandomness(keyHash, fee, seed);\n        _receivers[requestId2] = msg.sender;\n\n        // DELETE: For local test\n        fulfillRandomness(requestId1, block.timestamp);\n        fulfillRandomness(requestId2, block.timestamp * 7);// could be overflow\n    }\n\n    /**\n     * Callback function used by VRF Coordinator\n     */\n    function fulfillRandomness(bytes32 requestId, uint256 randomness) internal override {\n        address receiver = _receivers[requestId];\n\n        (uint8 element, uint8 rank) = _selectElement(randomness);\n        uint256 tokenId = _createToken(element, rank);\n        _mint(receiver, tokenId);\n\n        emit Receive(receiver, element, rank);\n    }\n\n    function redeem(uint256 element) external{\n        require(element <= 6, \"6ELEMENT: invalid element id\");\n        uint256 necessaryCount;\n        if (element <= 4) {\n            necessaryCount = 3;\n        } else {\n            necessaryCount = 2;\n        }\n\n        uint256[] memory tokenIds;\n        uint256 length = balanceOf(msg.sender);\n        for (uint256 i = 0; i < length; i++) {\n            uint256 tokenId = tokenOfOwnerByIndex(msg.sender, i);\n            if (tokens[tokenId].element == element) {\n                tokenIds[tokens[tokenId].rank] = tokenId;\n                if (tokenIds.length == necessaryCount) {\n                    break;\n                }\n            }\n        }\n        require(tokenIds.length == necessaryCount, \"6ELEMENT: you do not have necessary elements\");\n\n        for (uint256 i = 0; i < tokenIds.length; i++) {\n            _burn(tokenIds[i]);\n        }\n\n        uint256 totalBalance = address(this).balance;\n        uint256 reward = totalBalance.mul(rewardRates[element]).div(100);\n        msg.sender.transfer(reward);\n\n        emit Redeem(msg.sender, element, reward);\n    }\n\n    function _selectElement(uint256 randomness) private view returns(uint8 element, uint8 rank) {\n        uint256 target = randomness % 10000000;\n        uint256 sum;\n\n        for (uint256 i = 0; i < rates.length; i++) {\n            sum = sum.add(rates[i].number);\n            if (target < sum) {\n                return (rates[i].element, rates[i].rank);\n            }\n        }\n\n        revert('6ELEMENT: Selecting element error');\n    }\n\n    function _createToken(uint8 element, uint8 rank) private returns(uint256 tokenId) {\n        tokenId = totalSupply();\n\n        tokens[tokenId] = Token({ element: element, rank: rank});\n    }\n}",
  "sourcePath": "/Users/tomohiro/Documents/Projects/cre8/6elements/contracts/SixElements.sol",
  "compiler": {
    "name": "solc",
    "version": "0.6.6+commit.6c089d02.Emscripten.clang"
  },
  "schemaVersion": "3.2.0",
  "updatedAt": "2020-10-21T18:45:19.466Z",
  "networkType": "ethereum",
  "devdoc": {
    "methods": {
      "approve(address,uint256)": {
        "details": "See {IERC721-approve}."
      },
      "balanceOf(address)": {
        "details": "See {IERC721-balanceOf}."
      },
      "baseURI()": {
        "details": "Returns the base URI set via {_setBaseURI}. This will be automatically added as a prefix in {tokenURI} to each token's URI, or to the token ID if no specific URI is set for that token ID."
      },
      "getApproved(uint256)": {
        "details": "See {IERC721-getApproved}."
      },
      "isApprovedForAll(address,address)": {
        "details": "See {IERC721-isApprovedForAll}."
      },
      "name()": {
        "details": "See {IERC721Metadata-name}."
      },
      "ownerOf(uint256)": {
        "details": "See {IERC721-ownerOf}."
      },
      "requestRandomness(bytes32,uint256,uint256)": {
        "details": "See \"SECURITY CONSIDERATIONS\" above for more information on _seed.The fulfillRandomness method receives the output, once it's providedby the Oracle, and verified by the vrfCoordinator.The _keyHash must already be registered with the VRFCoordinator, andthe _fee must exceed the fee specified during registration of the_keyHash.The returned requestId can be used to distinguish responses to *concurrent requests. It is passed as the first argument tofulfillRandomness.",
        "params": {
          "_fee": "The amount of LINK to send with the request",
          "_keyHash": "ID of public key against which randomness is generated",
          "_seed": "seed mixed into the input of the VRF"
        },
        "returns": {
          "requestId": "unique ID for this request"
        }
      },
      "safeTransferFrom(address,address,uint256)": {
        "details": "See {IERC721-safeTransferFrom}."
      },
      "safeTransferFrom(address,address,uint256,bytes)": {
        "details": "See {IERC721-safeTransferFrom}."
      },
      "setApprovalForAll(address,bool)": {
        "details": "See {IERC721-setApprovalForAll}."
      },
      "supportsInterface(bytes4)": {
        "details": "See {IERC165-supportsInterface}.     * Time complexity O(1), guaranteed to always use less than 30 000 gas."
      },
      "symbol()": {
        "details": "See {IERC721Metadata-symbol}."
      },
      "tokenByIndex(uint256)": {
        "details": "See {IERC721Enumerable-tokenByIndex}."
      },
      "tokenOfOwnerByIndex(address,uint256)": {
        "details": "See {IERC721Enumerable-tokenOfOwnerByIndex}."
      },
      "tokenURI(uint256)": {
        "details": "See {IERC721Metadata-tokenURI}."
      },
      "totalSupply()": {
        "details": "See {IERC721Enumerable-totalSupply}."
      },
      "transferFrom(address,address,uint256)": {
        "details": "See {IERC721-transferFrom}."
      }
    }
  },
  "userdoc": {
    "methods": {
      "constructor": "Constructor inherits VRFConsumerBase      * Network: Kovan Chainlink VRF Coordinator address: 0xdD3782915140c8f3b190B5D67eAc6dc5760C46E9 LINK token address:                0xa36085F69e2889c224210F603D836748e7dC0088 Key Hash: 0x6c3699283bda56ad74f6b855546325b68d482e983852a7a82979cc4807b641f4",
      "getElements()": {
        "notice": "Requests randomness from a user-provided seed"
      },
      "requestRandomness(bytes32,uint256,uint256)": {
        "notice": "requestRandomness initiates a request for VRF output given _seed"
      }
    }
  }
}