{
  "contractName": "SixElements",
  "abi": [
    {
      "inputs": [
        {
          "internalType": "string",
          "name": "name",
          "type": "string"
        },
        {
          "internalType": "string",
          "name": "symbol",
          "type": "string"
        }
      ],
      "stateMutability": "nonpayable",
      "type": "constructor"
    },
    {
      "anonymous": false,
      "inputs": [
        {
          "indexed": true,
          "internalType": "address",
          "name": "owner",
          "type": "address"
        },
        {
          "indexed": true,
          "internalType": "address",
          "name": "approved",
          "type": "address"
        },
        {
          "indexed": true,
          "internalType": "uint256",
          "name": "tokenId",
          "type": "uint256"
        }
      ],
      "name": "Approval",
      "type": "event"
    },
    {
      "anonymous": false,
      "inputs": [
        {
          "indexed": true,
          "internalType": "address",
          "name": "owner",
          "type": "address"
        },
        {
          "indexed": true,
          "internalType": "address",
          "name": "operator",
          "type": "address"
        },
        {
          "indexed": false,
          "internalType": "bool",
          "name": "approved",
          "type": "bool"
        }
      ],
      "name": "ApprovalForAll",
      "type": "event"
    },
    {
      "anonymous": false,
      "inputs": [
        {
          "indexed": true,
          "internalType": "address",
          "name": "previousOwner",
          "type": "address"
        },
        {
          "indexed": true,
          "internalType": "address",
          "name": "newOwner",
          "type": "address"
        }
      ],
      "name": "OwnershipTransferred",
      "type": "event"
    },
    {
      "anonymous": false,
      "inputs": [
        {
          "indexed": true,
          "internalType": "address",
          "name": "player",
          "type": "address"
        },
        {
          "indexed": false,
          "internalType": "uint256",
          "name": "element1",
          "type": "uint256"
        },
        {
          "indexed": false,
          "internalType": "uint256",
          "name": "rank1",
          "type": "uint256"
        },
        {
          "indexed": false,
          "internalType": "uint256",
          "name": "element2",
          "type": "uint256"
        },
        {
          "indexed": false,
          "internalType": "uint256",
          "name": "rank2",
          "type": "uint256"
        }
      ],
      "name": "Receive",
      "type": "event"
    },
    {
      "anonymous": false,
      "inputs": [
        {
          "indexed": true,
          "internalType": "address",
          "name": "player",
          "type": "address"
        },
        {
          "indexed": false,
          "internalType": "uint256",
          "name": "element",
          "type": "uint256"
        },
        {
          "indexed": false,
          "internalType": "uint256",
          "name": "reward",
          "type": "uint256"
        }
      ],
      "name": "Redeem",
      "type": "event"
    },
    {
      "anonymous": false,
      "inputs": [
        {
          "indexed": true,
          "internalType": "address",
          "name": "from",
          "type": "address"
        },
        {
          "indexed": true,
          "internalType": "address",
          "name": "to",
          "type": "address"
        },
        {
          "indexed": true,
          "internalType": "uint256",
          "name": "tokenId",
          "type": "uint256"
        }
      ],
      "name": "Transfer",
      "type": "event"
    },
    {
      "inputs": [
        {
          "internalType": "address",
          "name": "to",
          "type": "address"
        },
        {
          "internalType": "uint256",
          "name": "tokenId",
          "type": "uint256"
        }
      ],
      "name": "approve",
      "outputs": [],
      "stateMutability": "nonpayable",
      "type": "function"
    },
    {
      "inputs": [
        {
          "internalType": "address",
          "name": "owner",
          "type": "address"
        }
      ],
      "name": "balanceOf",
      "outputs": [
        {
          "internalType": "uint256",
          "name": "",
          "type": "uint256"
        }
      ],
      "stateMutability": "view",
      "type": "function",
      "constant": true
    },
    {
      "inputs": [],
      "name": "baseURI",
      "outputs": [
        {
          "internalType": "string",
          "name": "",
          "type": "string"
        }
      ],
      "stateMutability": "view",
      "type": "function",
      "constant": true
    },
    {
      "inputs": [
        {
          "internalType": "uint256",
          "name": "tokenId",
          "type": "uint256"
        }
      ],
      "name": "getApproved",
      "outputs": [
        {
          "internalType": "address",
          "name": "",
          "type": "address"
        }
      ],
      "stateMutability": "view",
      "type": "function",
      "constant": true
    },
    {
      "inputs": [
        {
          "internalType": "address",
          "name": "owner",
          "type": "address"
        },
        {
          "internalType": "address",
          "name": "operator",
          "type": "address"
        }
      ],
      "name": "isApprovedForAll",
      "outputs": [
        {
          "internalType": "bool",
          "name": "",
          "type": "bool"
        }
      ],
      "stateMutability": "view",
      "type": "function",
      "constant": true
    },
    {
      "inputs": [],
      "name": "managementFee",
      "outputs": [
        {
          "internalType": "uint256",
          "name": "",
          "type": "uint256"
        }
      ],
      "stateMutability": "view",
      "type": "function",
      "constant": true
    },
    {
      "inputs": [],
      "name": "name",
      "outputs": [
        {
          "internalType": "string",
          "name": "",
          "type": "string"
        }
      ],
      "stateMutability": "view",
      "type": "function",
      "constant": true
    },
    {
      "inputs": [
        {
          "internalType": "bytes32",
          "name": "",
          "type": "bytes32"
        }
      ],
      "name": "nonces",
      "outputs": [
        {
          "internalType": "uint256",
          "name": "",
          "type": "uint256"
        }
      ],
      "stateMutability": "view",
      "type": "function",
      "constant": true
    },
    {
      "inputs": [],
      "name": "owner",
      "outputs": [
        {
          "internalType": "address",
          "name": "",
          "type": "address"
        }
      ],
      "stateMutability": "view",
      "type": "function",
      "constant": true
    },
    {
      "inputs": [
        {
          "internalType": "uint256",
          "name": "tokenId",
          "type": "uint256"
        }
      ],
      "name": "ownerOf",
      "outputs": [
        {
          "internalType": "address",
          "name": "",
          "type": "address"
        }
      ],
      "stateMutability": "view",
      "type": "function",
      "constant": true
    },
    {
      "inputs": [],
      "name": "playFee",
      "outputs": [
        {
          "internalType": "uint256",
          "name": "",
          "type": "uint256"
        }
      ],
      "stateMutability": "view",
      "type": "function",
      "constant": true
    },
    {
      "inputs": [
        {
          "internalType": "uint256",
          "name": "",
          "type": "uint256"
        }
      ],
      "name": "rates",
      "outputs": [
        {
          "internalType": "uint128",
          "name": "number",
          "type": "uint128"
        },
        {
          "internalType": "uint8",
          "name": "element",
          "type": "uint8"
        },
        {
          "internalType": "uint8",
          "name": "rank",
          "type": "uint8"
        }
      ],
      "stateMutability": "view",
      "type": "function",
      "constant": true
    },
    {
      "inputs": [
        {
          "internalType": "bytes32",
          "name": "requestId",
          "type": "bytes32"
        },
        {
          "internalType": "uint256",
          "name": "randomness",
          "type": "uint256"
        }
      ],
      "name": "rawFulfillRandomness",
      "outputs": [],
      "stateMutability": "nonpayable",
      "type": "function"
    },
    {
      "inputs": [],
      "name": "renounceOwnership",
      "outputs": [],
      "stateMutability": "nonpayable",
      "type": "function"
    },
    {
      "inputs": [
        {
          "internalType": "bytes32",
          "name": "_keyHash",
          "type": "bytes32"
        },
        {
          "internalType": "uint256",
          "name": "_fee",
          "type": "uint256"
        },
        {
          "internalType": "uint256",
          "name": "_seed",
          "type": "uint256"
        }
      ],
      "name": "requestRandomness",
      "outputs": [
        {
          "internalType": "bytes32",
          "name": "requestId",
          "type": "bytes32"
        }
      ],
      "stateMutability": "nonpayable",
      "type": "function"
    },
    {
      "inputs": [
        {
          "internalType": "uint256",
          "name": "",
          "type": "uint256"
        }
      ],
      "name": "rewardRates",
      "outputs": [
        {
          "internalType": "uint256",
          "name": "",
          "type": "uint256"
        }
      ],
      "stateMutability": "view",
      "type": "function",
      "constant": true
    },
    {
      "inputs": [
        {
          "internalType": "address",
          "name": "from",
          "type": "address"
        },
        {
          "internalType": "address",
          "name": "to",
          "type": "address"
        },
        {
          "internalType": "uint256",
          "name": "tokenId",
          "type": "uint256"
        }
      ],
      "name": "safeTransferFrom",
      "outputs": [],
      "stateMutability": "nonpayable",
      "type": "function"
    },
    {
      "inputs": [
        {
          "internalType": "address",
          "name": "from",
          "type": "address"
        },
        {
          "internalType": "address",
          "name": "to",
          "type": "address"
        },
        {
          "internalType": "uint256",
          "name": "tokenId",
          "type": "uint256"
        },
        {
          "internalType": "bytes",
          "name": "_data",
          "type": "bytes"
        }
      ],
      "name": "safeTransferFrom",
      "outputs": [],
      "stateMutability": "nonpayable",
      "type": "function"
    },
    {
      "inputs": [
        {
          "internalType": "address",
          "name": "operator",
          "type": "address"
        },
        {
          "internalType": "bool",
          "name": "approved",
          "type": "bool"
        }
      ],
      "name": "setApprovalForAll",
      "outputs": [],
      "stateMutability": "nonpayable",
      "type": "function"
    },
    {
      "inputs": [
        {
          "internalType": "bytes4",
          "name": "interfaceId",
          "type": "bytes4"
        }
      ],
      "name": "supportsInterface",
      "outputs": [
        {
          "internalType": "bool",
          "name": "",
          "type": "bool"
        }
      ],
      "stateMutability": "view",
      "type": "function",
      "constant": true
    },
    {
      "inputs": [],
      "name": "symbol",
      "outputs": [
        {
          "internalType": "string",
          "name": "",
          "type": "string"
        }
      ],
      "stateMutability": "view",
      "type": "function",
      "constant": true
    },
    {
      "inputs": [
        {
          "internalType": "uint256",
          "name": "index",
          "type": "uint256"
        }
      ],
      "name": "tokenByIndex",
      "outputs": [
        {
          "internalType": "uint256",
          "name": "",
          "type": "uint256"
        }
      ],
      "stateMutability": "view",
      "type": "function",
      "constant": true
    },
    {
      "inputs": [
        {
          "internalType": "address",
          "name": "owner",
          "type": "address"
        },
        {
          "internalType": "uint256",
          "name": "index",
          "type": "uint256"
        }
      ],
      "name": "tokenOfOwnerByIndex",
      "outputs": [
        {
          "internalType": "uint256",
          "name": "",
          "type": "uint256"
        }
      ],
      "stateMutability": "view",
      "type": "function",
      "constant": true
    },
    {
      "inputs": [
        {
          "internalType": "uint256",
          "name": "tokenId",
          "type": "uint256"
        }
      ],
      "name": "tokenURI",
      "outputs": [
        {
          "internalType": "string",
          "name": "",
          "type": "string"
        }
      ],
      "stateMutability": "view",
      "type": "function",
      "constant": true
    },
    {
      "inputs": [
        {
          "internalType": "uint256",
          "name": "",
          "type": "uint256"
        }
      ],
      "name": "tokens",
      "outputs": [
        {
          "internalType": "uint8",
          "name": "element",
          "type": "uint8"
        },
        {
          "internalType": "uint8",
          "name": "rank",
          "type": "uint8"
        }
      ],
      "stateMutability": "view",
      "type": "function",
      "constant": true
    },
    {
      "inputs": [],
      "name": "totalSupply",
      "outputs": [
        {
          "internalType": "uint256",
          "name": "",
          "type": "uint256"
        }
      ],
      "stateMutability": "view",
      "type": "function",
      "constant": true
    },
    {
      "inputs": [
        {
          "internalType": "address",
          "name": "from",
          "type": "address"
        },
        {
          "internalType": "address",
          "name": "to",
          "type": "address"
        },
        {
          "internalType": "uint256",
          "name": "tokenId",
          "type": "uint256"
        }
      ],
      "name": "transferFrom",
      "outputs": [],
      "stateMutability": "nonpayable",
      "type": "function"
    },
    {
      "inputs": [
        {
          "internalType": "address",
          "name": "newOwner",
          "type": "address"
        }
      ],
      "name": "transferOwnership",
      "outputs": [],
      "stateMutability": "nonpayable",
      "type": "function"
    },
    {
      "inputs": [
        {
          "internalType": "uint256",
          "name": "tokenId",
          "type": "uint256"
        }
      ],
      "name": "tokenInfo",
      "outputs": [
        {
          "internalType": "uint256",
          "name": "element",
          "type": "uint256"
        },
        {
          "internalType": "uint256",
          "name": "rank",
          "type": "uint256"
        }
      ],
      "stateMutability": "view",
      "type": "function",
      "constant": true
    },
    {
      "inputs": [
        {
          "internalType": "address",
          "name": "_from",
          "type": "address"
        },
        {
          "internalType": "uint256",
          "name": "_amount",
          "type": "uint256"
        },
        {
          "internalType": "bytes",
          "name": "_data",
          "type": "bytes"
        }
      ],
      "name": "onTokenTransfer",
      "outputs": [],
      "stateMutability": "nonpayable",
      "type": "function"
    },
    {
      "inputs": [
        {
          "internalType": "uint256",
          "name": "element",
          "type": "uint256"
        }
      ],
      "name": "redeem",
      "outputs": [],
      "stateMutability": "nonpayable",
      "type": "function"
    },
    {
      "inputs": [],
      "name": "withdraw",
      "outputs": [],
      "stateMutability": "nonpayable",
      "type": "function"
    }
  ],
  "bytecode": "0x60c06040523480156200001157600080fd5b5060405162005f8c38038062005f8c833981810160405260408110156200003757600080fd5b81019080805160405193929190846401000000008211156200005857600080fd5b838201915060208201858111156200006f57600080fd5b82518660018202830111640100000000821117156200008d57600080fd5b8083526020830192505050908051906020019080838360005b83811015620000c3578082015181840152602081019050620000a6565b50505050905090810190601f168015620000f15780820380516001836020036101000a031916815260200191505b50604052602001805160405193929190846401000000008211156200011557600080fd5b838201915060208201858111156200012c57600080fd5b82518660018202830111640100000000821117156200014a57600080fd5b8083526020830192505050908051906020019080838360005b838110156200018057808201518184015260208101905062000163565b50505050905090810190601f168015620001ae5780820380516001836020036101000a031916815260200191505b50604052505050818173dd3782915140c8f3b190b5d67eac6dc5760c46e973a36085f69e2889c224210f603d836748e7dc00888173ffffffffffffffffffffffffffffffffffffffff1660a08173ffffffffffffffffffffffffffffffffffffffff1660601b815250508073ffffffffffffffffffffffffffffffffffffffff1660808173ffffffffffffffffffffffffffffffffffffffff1660601b815250505050620002696301ffc9a760e01b6200127560201b60201c565b81600790805190602001906200028192919062001386565b5080600890805190602001906200029a92919062001386565b50620002b36380ac58cd60e01b6200127560201b60201c565b620002cb635b5e139f60e01b6200127560201b60201c565b620002e363780e9d6360e01b6200127560201b60201c565b50506000620002f76200137e60201b60201c565b905080600b60006101000a81548173ffffffffffffffffffffffffffffffffffffffff021916908373ffffffffffffffffffffffffffffffffffffffff1602179055508073ffffffffffffffffffffffffffffffffffffffff16600073ffffffffffffffffffffffffffffffffffffffff167f8be0079c531659141344cd1fd0a4f28419497f9722a3daafe3b4186f6b6457e060405160405180910390a3507f6c3699283bda56ad74f6b855546325b68d482e983852a7a82979cc4807b641f460001b600c8190555067016345785d8a0000600d8190555060056010600060068110620003e057fe5b018190555060166040518060600160405280621cfde06fffffffffffffffffffffffffffffffff168152602001600060ff168152602001600060ff168152509080600181540180825580915050600190039060005260206000200160009091909190915060008201518160000160006101000a8154816fffffffffffffffffffffffffffffffff02191690836fffffffffffffffffffffffffffffffff16021790555060208201518160000160106101000a81548160ff021916908360ff16021790555060408201518160000160116101000a81548160ff021916908360ff160217905550505060166040518060600160405280620aae606fffffffffffffffffffffffffffffffff168152602001600060ff168152602001600160ff168152509080600181540180825580915050600190039060005260206000200160009091909190915060008201518160000160006101000a8154816fffffffffffffffffffffffffffffffff02191690836fffffffffffffffffffffffffffffffff16021790555060208201518160000160106101000a81548160ff021916908360ff16021790555060408201518160000160116101000a81548160ff021916908360ff160217905550505060166040518060600160405280620493e06fffffffffffffffffffffffffffffffff168152602001600060ff168152602001600260ff168152509080600181540180825580915050600190039060005260206000200160009091909190915060008201518160000160006101000a8154816fffffffffffffffffffffffffffffffff02191690836fffffffffffffffffffffffffffffffff16021790555060208201518160000160106101000a81548160ff021916908360ff16021790555060408201518160000160116101000a81548160ff021916908360ff1602179055505050600760106001600681106200069c57fe5b018190555060166040518060600160405280621b77406fffffffffffffffffffffffffffffffff168152602001600160ff168152602001600060ff168152509080600181540180825580915050600190039060005260206000200160009091909190915060008201518160000160006101000a8154816fffffffffffffffffffffffffffffffff02191690836fffffffffffffffffffffffffffffffff16021790555060208201518160000160106101000a81548160ff021916908360ff16021790555060408201518160000160116101000a81548160ff021916908360ff160217905550505060166040518060600160405280620927c06fffffffffffffffffffffffffffffffff168152602001600160ff168152602001600160ff168152509080600181540180825580915050600190039060005260206000200160009091909190915060008201518160000160006101000a8154816fffffffffffffffffffffffffffffffff02191690836fffffffffffffffffffffffffffffffff16021790555060208201518160000160106101000a81548160ff021916908360ff16021790555060408201518160000160116101000a81548160ff021916908360ff160217905550505060166040518060600160405280620249f06fffffffffffffffffffffffffffffffff168152602001600160ff168152602001600260ff168152509080600181540180825580915050600190039060005260206000200160009091909190915060008201518160000160006101000a8154816fffffffffffffffffffffffffffffffff02191690836fffffffffffffffffffffffffffffffff16021790555060208201518160000160106101000a81548160ff021916908360ff16021790555060408201518160000160116101000a81548160ff021916908360ff1602179055505050600f60106002600681106200095857fe5b0181905550601660405180606001604052806213d6206fffffffffffffffffffffffffffffffff168152602001600260ff168152602001600060ff168152509080600181540180825580915050600190039060005260206000200160009091909190915060008201518160000160006101000a8154816fffffffffffffffffffffffffffffffff02191690836fffffffffffffffffffffffffffffffff16021790555060208201518160000160106101000a81548160ff021916908360ff16021790555060408201518160000160116101000a81548160ff021916908360ff1602179055505050601660405180606001604052806207a1206fffffffffffffffffffffffffffffffff168152602001600260ff168152602001600160ff168152509080600181540180825580915050600190039060005260206000200160009091909190915060008201518160000160006101000a8154816fffffffffffffffffffffffffffffffff02191690836fffffffffffffffffffffffffffffffff16021790555060208201518160000160106101000a81548160ff021916908360ff16021790555060408201518160000160116101000a81548160ff021916908360ff16021790555050506016604051806060016040528061c3506fffffffffffffffffffffffffffffffff168152602001600260ff168152602001600260ff168152509080600181540180825580915050600190039060005260206000200160009091909190915060008201518160000160006101000a8154816fffffffffffffffffffffffffffffffff02191690836fffffffffffffffffffffffffffffffff16021790555060208201518160000160106101000a81548160ff021916908360ff16021790555060408201518160000160116101000a81548160ff021916908360ff16021790555050506019601060036006811062000c1357fe5b0181905550601660405180606001604052806213babd6fffffffffffffffffffffffffffffffff168152602001600360ff168152602001600060ff168152509080600181540180825580915050600190039060005260206000200160009091909190915060008201518160000160006101000a8154816fffffffffffffffffffffffffffffffff02191690836fffffffffffffffffffffffffffffffff16021790555060208201518160000160106101000a81548160ff021916908360ff16021790555060408201518160000160116101000a81548160ff021916908360ff16021790555050506016604051806060016040528062061a806fffffffffffffffffffffffffffffffff168152602001600360ff168152602001600160ff168152509080600181540180825580915050600190039060005260206000200160009091909190915060008201518160000160006101000a8154816fffffffffffffffffffffffffffffffff02191690836fffffffffffffffffffffffffffffffff16021790555060208201518160000160106101000a81548160ff021916908360ff16021790555060408201518160000160116101000a81548160ff021916908360ff160217905550505060166040518060600160405280611b586fffffffffffffffffffffffffffffffff168152602001600360ff168152602001600260ff168152509080600181540180825580915050600190039060005260206000200160009091909190915060008201518160000160006101000a8154816fffffffffffffffffffffffffffffffff02191690836fffffffffffffffffffffffffffffffff16021790555060208201518160000160106101000a81548160ff021916908360ff16021790555060408201518160000160116101000a81548160ff021916908360ff16021790555050506032601060046006811062000ece57fe5b018190555060166040518060600160405280620aae606fffffffffffffffffffffffffffffffff168152602001600460ff168152602001600060ff168152509080600181540180825580915050600190039060005260206000200160009091909190915060008201518160000160006101000a8154816fffffffffffffffffffffffffffffffff02191690836fffffffffffffffffffffffffffffffff16021790555060208201518160000160106101000a81548160ff021916908360ff16021790555060408201518160000160116101000a81548160ff021916908360ff160217905550505060166040518060600160405280600a6fffffffffffffffffffffffffffffffff168152602001600460ff168152602001600160ff168152509080600181540180825580915050600190039060005260206000200160009091909190915060008201518160000160006101000a8154816fffffffffffffffffffffffffffffffff02191690836fffffffffffffffffffffffffffffffff16021790555060208201518160000160106101000a81548160ff021916908360ff16021790555060408201518160000160116101000a81548160ff021916908360ff1602179055505050605f6010600560068110620010a657fe5b018190555060166040518060600160405280620493e06fffffffffffffffffffffffffffffffff168152602001600560ff168152602001600060ff168152509080600181540180825580915050600190039060005260206000200160009091909190915060008201518160000160006101000a8154816fffffffffffffffffffffffffffffffff02191690836fffffffffffffffffffffffffffffffff16021790555060208201518160000160106101000a81548160ff021916908360ff16021790555060408201518160000160116101000a81548160ff021916908360ff16021790555050506016604051806060016040528060016fffffffffffffffffffffffffffffffff168152602001600560ff168152602001600160ff168152509080600181540180825580915050600190039060005260206000200160009091909190915060008201518160000160006101000a8154816fffffffffffffffffffffffffffffffff02191690836fffffffffffffffffffffffffffffffff16021790555060208201518160000160106101000a81548160ff021916908360ff16021790555060408201518160000160116101000a81548160ff021916908360ff1602179055505050505062001435565b63ffffffff60e01b817bffffffffffffffffffffffffffffffffffffffffffffffffffffffff1916141562001312576040517f08c379a000000000000000000000000000000000000000000000000000000000815260040180806020018281038252601c8152602001807f4552433136353a20696e76616c696420696e746572666163652069640000000081525060200191505060405180910390fd5b6001806000837bffffffffffffffffffffffffffffffffffffffffffffffffffffffff19167bffffffffffffffffffffffffffffffffffffffffffffffffffffffff1916815260200190815260200160002060006101000a81548160ff02191690831515021790555050565b600033905090565b828054600181600116156101000203166002900490600052602060002090601f016020900481019282601f10620013c957805160ff1916838001178555620013fa565b82800160010185558215620013fa579182015b82811115620013f9578251825591602001919060010190620013dc565b5b5090506200140991906200140d565b5090565b6200143291905b808211156200142e57600081600090555060010162001414565b5090565b90565b60805160601c60a05160601c614b0f6200147d6000398061180e528061281f5250806111fd528061123a5280611c64528061251c528061262e52806127e35250614b0f6000f3fe608060405234801561001057600080fd5b50600436106101f05760003560e01c80638da5cb5b1161010f578063c87b56dd116100a2578063dd418ae211610071578063dd418ae214610bd8578063e985e9c514610c58578063f2caeb1e14610cd4578063f2fde38b14610d16576101f0565b8063c87b56dd14610a64578063cc33c87514610b0b578063db006a7514610b54578063dc6cfe1014610b82576101f0565b8063a22cb465116100de578063a22cb4651461084e578063a4c0ed361461089e578063a6f7f5d614610941578063b88d4fde1461095f576101f0565b80638da5cb5b1461070757806394985ddd1461075157806395d89b41146107895780639e317f121461080c576101f0565b80633ccfd60b116101875780636352211e116101565780636352211e146105b45780636c0360eb1461062257806370a08231146106a5578063715018a6146106fd576101f0565b80633ccfd60b146104a557806342842e0e146104af5780634f64b2be1461051d5780634f6ccce714610572576101f0565b806318160ddd116101c357806318160ddd1461039957806323b872dd146103b7578063283d314a146104255780632f745c5914610443576101f0565b806301ffc9a7146101f557806306fdde031461025a578063081812fc146102dd578063095ea7b31461034b575b600080fd5b6102406004803603602081101561020b57600080fd5b8101908080357bffffffffffffffffffffffffffffffffffffffffffffffffffffffff19169060200190929190505050610d5a565b604051808215151515815260200191505060405180910390f35b610262610dc2565b6040518080602001828103825283818151815260200191508051906020019080838360005b838110156102a2578082015181840152602081019050610287565b50505050905090810190601f1680156102cf5780820380516001836020036101000a031916815260200191505b509250505060405180910390f35b610309600480360360208110156102f357600080fd5b8101908080359060200190929190505050610e64565b604051808273ffffffffffffffffffffffffffffffffffffffff1673ffffffffffffffffffffffffffffffffffffffff16815260200191505060405180910390f35b6103976004803603604081101561036157600080fd5b81019080803573ffffffffffffffffffffffffffffffffffffffff16906020019092919080359060200190929190505050610eff565b005b6103a1611043565b6040518082815260200191505060405180910390f35b610423600480360360608110156103cd57600080fd5b81019080803573ffffffffffffffffffffffffffffffffffffffff169060200190929190803573ffffffffffffffffffffffffffffffffffffffff16906020019092919080359060200190929190505050611054565b005b61042d6110ca565b6040518082815260200191505060405180910390f35b61048f6004803603604081101561045957600080fd5b81019080803573ffffffffffffffffffffffffffffffffffffffff169060200190929190803590602001909291905050506110d6565b6040518082815260200191505060405180910390f35b6104ad611131565b005b61051b600480360360608110156104c557600080fd5b81019080803573ffffffffffffffffffffffffffffffffffffffff169060200190929190803573ffffffffffffffffffffffffffffffffffffffff16906020019092919080359060200190929190505050611428565b005b6105496004803603602081101561053357600080fd5b8101908080359060200190929190505050611448565b604051808360ff1660ff1681526020018260ff1660ff1681526020019250505060405180910390f35b61059e6004803603602081101561058857600080fd5b8101908080359060200190929190505050611486565b6040518082815260200191505060405180910390f35b6105e0600480360360208110156105ca57600080fd5b81019080803590602001909291905050506114a9565b604051808273ffffffffffffffffffffffffffffffffffffffff1673ffffffffffffffffffffffffffffffffffffffff16815260200191505060405180910390f35b61062a6114e0565b6040518080602001828103825283818151815260200191508051906020019080838360005b8381101561066a57808201518184015260208101905061064f565b50505050905090810190601f1680156106975780820380516001836020036101000a031916815260200191505b509250505060405180910390f35b6106e7600480360360208110156106bb57600080fd5b81019080803573ffffffffffffffffffffffffffffffffffffffff169060200190929190505050611582565b6040518082815260200191505060405180910390f35b610705611657565b005b61070f6117e2565b604051808273ffffffffffffffffffffffffffffffffffffffff1673ffffffffffffffffffffffffffffffffffffffff16815260200191505060405180910390f35b6107876004803603604081101561076757600080fd5b81019080803590602001909291908035906020019092919050505061180c565b005b6107916118db565b6040518080602001828103825283818151815260200191508051906020019080838360005b838110156107d15780820151818401526020810190506107b6565b50505050905090810190601f1680156107fe5780820380516001836020036101000a031916815260200191505b509250505060405180910390f35b6108386004803603602081101561082257600080fd5b810190808035906020019092919050505061197d565b6040518082815260200191505060405180910390f35b61089c6004803603604081101561086457600080fd5b81019080803573ffffffffffffffffffffffffffffffffffffffff169060200190929190803515159060200190929190505050611995565b005b61093f600480360360608110156108b457600080fd5b81019080803573ffffffffffffffffffffffffffffffffffffffff16906020019092919080359060200190929190803590602001906401000000008111156108fb57600080fd5b82018360208201111561090d57600080fd5b8035906020019184600183028401116401000000008311171561092f57600080fd5b9091929391929390505050611b4d565b005b610949611e3e565b6040518082815260200191505060405180910390f35b610a626004803603608081101561097557600080fd5b81019080803573ffffffffffffffffffffffffffffffffffffffff169060200190929190803573ffffffffffffffffffffffffffffffffffffffff16906020019092919080359060200190929190803590602001906401000000008111156109dc57600080fd5b8201836020820111156109ee57600080fd5b80359060200191846001830284011164010000000083111715610a1057600080fd5b91908080601f016020809104026020016040519081016040528093929190818152602001838380828437600081840152601f19601f820116905080830192505050505050509192919290505050611e4a565b005b610a9060048036036020811015610a7a57600080fd5b8101908080359060200190929190505050611ec2565b6040518080602001828103825283818151815260200191508051906020019080838360005b83811015610ad0578082015181840152602081019050610ab5565b50505050905090810190601f168015610afd5780820380516001836020036101000a031916815260200191505b509250505060405180910390f35b610b3760048036036020811015610b2157600080fd5b81019080803590602001909291905050506121ab565b604051808381526020018281526020019250505060405180910390f35b610b8060048036036020811015610b6a57600080fd5b8101908080359060200190929190505050612263565b005b610bc260048036036060811015610b9857600080fd5b810190808035906020019092919080359060200190929190803590602001909291905050506127df565b6040518082815260200191505060405180910390f35b610c0460048036036020811015610bee57600080fd5b81019080803590602001909291905050506129ea565b60405180846fffffffffffffffffffffffffffffffff166fffffffffffffffffffffffffffffffff1681526020018360ff1660ff1681526020018260ff1660ff168152602001935050505060405180910390f35b610cba60048036036040811015610c6e57600080fd5b81019080803573ffffffffffffffffffffffffffffffffffffffff169060200190929190803573ffffffffffffffffffffffffffffffffffffffff169060200190929190505050612a53565b604051808215151515815260200191505060405180910390f35b610d0060048036036020811015610cea57600080fd5b8101908080359060200190929190505050612ae7565b6040518082815260200191505060405180910390f35b610d5860048036036020811015610d2c57600080fd5b81019080803573ffffffffffffffffffffffffffffffffffffffff169060200190929190505050612aff565b005b600060016000837bffffffffffffffffffffffffffffffffffffffffffffffffffffffff19167bffffffffffffffffffffffffffffffffffffffffffffffffffffffff1916815260200190815260200160002060009054906101000a900460ff169050919050565b606060078054600181600116156101000203166002900480601f016020809104026020016040519081016040528092919081815260200182805460018160011615610100020316600290048015610e5a5780601f10610e2f57610100808354040283529160200191610e5a565b820191906000526020600020905b815481529060010190602001808311610e3d57829003601f168201915b5050505050905090565b6000610e6f82612d0f565b610ec4576040517f08c379a000000000000000000000000000000000000000000000000000000000815260040180806020018281038252602c815260200180614990602c913960400191505060405180910390fd5b6005600083815260200190815260200160002060009054906101000a900473ffffffffffffffffffffffffffffffffffffffff169050919050565b6000610f0a826114a9565b90508073ffffffffffffffffffffffffffffffffffffffff168373ffffffffffffffffffffffffffffffffffffffff161415610f91576040517f08c379a0000000000000000000000000000000000000000000000000000000008152600401808060200182810382526021815260200180614a616021913960400191505060405180910390fd5b8073ffffffffffffffffffffffffffffffffffffffff16610fb0612d2c565b73ffffffffffffffffffffffffffffffffffffffff161480610fdf5750610fde81610fd9612d2c565b612a53565b5b611034576040517f08c379a00000000000000000000000000000000000000000000000000000000081526004018080602001828103825260388152602001806148c26038913960400191505060405180910390fd5b61103e8383612d34565b505050565b600061104f6003612ded565b905090565b61106561105f612d2c565b82612e02565b6110ba576040517f08c379a0000000000000000000000000000000000000000000000000000000008152600401808060200182810382526031815260200180614a826031913960400191505060405180910390fd5b6110c5838383612ef6565b505050565b6706f05b59d3b2000081565b600061112982600260008673ffffffffffffffffffffffffffffffffffffffff1673ffffffffffffffffffffffffffffffffffffffff16815260200190815260200160002061313990919063ffffffff16565b905092915050565b611139612d2c565b73ffffffffffffffffffffffffffffffffffffffff16600b60009054906101000a900473ffffffffffffffffffffffffffffffffffffffff1673ffffffffffffffffffffffffffffffffffffffff16146111fb576040517f08c379a00000000000000000000000000000000000000000000000000000000081526004018080602001828103825260208152602001807f4f776e61626c653a2063616c6c6572206973206e6f7420746865206f776e657281525060200191505060405180910390fd5b7f000000000000000000000000000000000000000000000000000000000000000073ffffffffffffffffffffffffffffffffffffffff1663a9059cbb337f000000000000000000000000000000000000000000000000000000000000000073ffffffffffffffffffffffffffffffffffffffff166370a08231306040518263ffffffff1660e01b8152600401808273ffffffffffffffffffffffffffffffffffffffff1673ffffffffffffffffffffffffffffffffffffffff16815260200191505060206040518083038186803b1580156112d557600080fd5b505afa1580156112e9573d6000803e3d6000fd5b505050506040513d60208110156112ff57600080fd5b81019080805190602001909291905050506040518363ffffffff1660e01b8152600401808373ffffffffffffffffffffffffffffffffffffffff1673ffffffffffffffffffffffffffffffffffffffff16815260200182815260200192505050602060405180830381600087803b15801561137957600080fd5b505af115801561138d573d6000803e3d6000fd5b505050506040513d60208110156113a357600080fd5b8101908080519060200190929190505050611426576040517f08c379a00000000000000000000000000000000000000000000000000000000081526004018080602001828103825260188152602001807f36454c454d454e543a207472616e73666572206572726f72000000000000000081525060200191505060405180910390fd5b565b61144383838360405180602001604052806000815250611e4a565b505050565b600e6020528060005260406000206000915090508060000160009054906101000a900460ff16908060000160019054906101000a900460ff16905082565b60008061149d83600361315390919063ffffffff16565b50905080915050919050565b60006114d9826040518060600160405280602981526020016149246029913960036131829092919063ffffffff16565b9050919050565b6060600a8054600181600116156101000203166002900480601f0160208091040260200160405190810160405280929190818152602001828054600181600116156101000203166002900480156115785780601f1061154d57610100808354040283529160200191611578565b820191906000526020600020905b81548152906001019060200180831161155b57829003601f168201915b5050505050905090565b60008073ffffffffffffffffffffffffffffffffffffffff168273ffffffffffffffffffffffffffffffffffffffff161415611609576040517f08c379a000000000000000000000000000000000000000000000000000000000815260040180806020018281038252602a8152602001806148fa602a913960400191505060405180910390fd5b611650600260008473ffffffffffffffffffffffffffffffffffffffff1673ffffffffffffffffffffffffffffffffffffffff1681526020019081526020016000206131a1565b9050919050565b61165f612d2c565b73ffffffffffffffffffffffffffffffffffffffff16600b60009054906101000a900473ffffffffffffffffffffffffffffffffffffffff1673ffffffffffffffffffffffffffffffffffffffff1614611721576040517f08c379a00000000000000000000000000000000000000000000000000000000081526004018080602001828103825260208152602001807f4f776e61626c653a2063616c6c6572206973206e6f7420746865206f776e657281525060200191505060405180910390fd5b600073ffffffffffffffffffffffffffffffffffffffff16600b60009054906101000a900473ffffffffffffffffffffffffffffffffffffffff1673ffffffffffffffffffffffffffffffffffffffff167f8be0079c531659141344cd1fd0a4f28419497f9722a3daafe3b4186f6b6457e060405160405180910390a36000600b60006101000a81548173ffffffffffffffffffffffffffffffffffffffff021916908373ffffffffffffffffffffffffffffffffffffffff160217905550565b6000600b60009054906101000a900473ffffffffffffffffffffffffffffffffffffffff16905090565b7f000000000000000000000000000000000000000000000000000000000000000073ffffffffffffffffffffffffffffffffffffffff163373ffffffffffffffffffffffffffffffffffffffff16146118cd576040517f08c379a000000000000000000000000000000000000000000000000000000000815260040180806020018281038252601f8152602001807f4f6e6c7920565246436f6f7264696e61746f722063616e2066756c66696c6c0081525060200191505060405180910390fd5b6118d782826131b6565b5050565b606060088054600181600116156101000203166002900480601f0160208091040260200160405190810160405280929190818152602001828054600181600116156101000203166002900480156119735780601f1061194857610100808354040283529160200191611973565b820191906000526020600020905b81548152906001019060200180831161195657829003601f168201915b5050505050905090565b60006020528060005260406000206000915090505481565b61199d612d2c565b73ffffffffffffffffffffffffffffffffffffffff168273ffffffffffffffffffffffffffffffffffffffff161415611a3e576040517f08c379a00000000000000000000000000000000000000000000000000000000081526004018080602001828103825260198152602001807f4552433732313a20617070726f766520746f2063616c6c65720000000000000081525060200191505060405180910390fd5b8060066000611a4b612d2c565b73ffffffffffffffffffffffffffffffffffffffff1673ffffffffffffffffffffffffffffffffffffffff16815260200190815260200160002060008473ffffffffffffffffffffffffffffffffffffffff1673ffffffffffffffffffffffffffffffffffffffff16815260200190815260200160002060006101000a81548160ff0219169083151502179055508173ffffffffffffffffffffffffffffffffffffffff16611af8612d2c565b73ffffffffffffffffffffffffffffffffffffffff167f17307eab39ab6107e8899845ad3d59bd9653f200f220920489ca2b5937696c3183604051808215151515815260200191505060405180910390a35050565b73a36085f69e2889c224210f603d836748e7dc008873ffffffffffffffffffffffffffffffffffffffff163373ffffffffffffffffffffffffffffffffffffffff1614611be5576040517f08c379a0000000000000000000000000000000000000000000000000000000008152600401808060200182810382526027815260200180614ab36027913960400191505060405180910390fd5b6706f05b59d3b200008314611c62576040517f08c379a00000000000000000000000000000000000000000000000000000000081526004018080602001828103825260198152602001807f36454c454d454e543a204e6f7420656e6f756768204c494e4b0000000000000081525060200191505060405180910390fd5b7f000000000000000000000000000000000000000000000000000000000000000073ffffffffffffffffffffffffffffffffffffffff1663a9059cbb611ca66117e2565b67016345785d8a00006040518363ffffffff1660e01b8152600401808373ffffffffffffffffffffffffffffffffffffffff1673ffffffffffffffffffffffffffffffffffffffff16815260200182815260200192505050602060405180830381600087803b158015611d1857600080fd5b505af1158015611d2c573d6000803e3d6000fd5b505050506040513d6020811015611d4257600080fd5b8101908080519060200190929190505050611dc5576040517f08c379a00000000000000000000000000000000000000000000000000000000081526004018080602001828103825260188152602001807f36454c454d454e543a207472616e73666572206572726f72000000000000000081525060200191505060405180910390fd5b6000600143034060001c90506000611de2600c54600d54846127df565b905085600f600083815260200190815260200160002060006101000a81548173ffffffffffffffffffffffffffffffffffffffff021916908373ffffffffffffffffffffffffffffffffffffffff160217905550505050505050565b67016345785d8a000081565b611e5b611e55612d2c565b83612e02565b611eb0576040517f08c379a0000000000000000000000000000000000000000000000000000000008152600401808060200182810382526031815260200180614a826031913960400191505060405180910390fd5b611ebc848484846132e4565b50505050565b6060611ecd82612d0f565b611f22576040517f08c379a000000000000000000000000000000000000000000000000000000000815260040180806020018281038252602f8152602001806149e5602f913960400191505060405180910390fd5b6060600960008481526020019081526020016000208054600181600116156101000203166002900480601f016020809104026020016040519081016040528092919081815260200182805460018160011615610100020316600290048015611fcb5780601f10611fa057610100808354040283529160200191611fcb565b820191906000526020600020905b815481529060010190602001808311611fae57829003601f168201915b505050505090506000600a8054600181600116156101000203166002900490501415611ffa57809150506121a6565b6000815111156120d357600a8160405160200180838054600181600116156101000203166002900480156120655780601f10612043576101008083540402835291820191612065565b820191906000526020600020905b815481529060010190602001808311612051575b505082805190602001908083835b602083106120965780518252602082019150602081019050602083039250612073565b6001836020036101000a038019825116818451168082178552505050505050905001925050506040516020818303038152906040529150506121a6565b600a6120de84613356565b604051602001808380546001816001161561010002031660029004801561213c5780601f1061211a57610100808354040283529182019161213c565b820191906000526020600020905b815481529060010190602001808311612128575b505082805190602001908083835b6020831061216d578051825260208201915060208101905060208303925061214a565b6001836020036101000a038019825116818451168082178552505050505050905001925050506040516020818303038152906040529150505b919050565b6000806121b783612d0f565b61220c576040517f08c379a000000000000000000000000000000000000000000000000000000000815260040180806020018281038252602f8152602001806149e5602f913960400191505060405180910390fd5b600e600084815260200190815260200160002060000160009054906101000a900460ff1660ff169150600e600084815260200190815260200160002060000160019054906101000a900460ff1660ff169050915091565b60068111156122da576040517f08c379a000000000000000000000000000000000000000000000000000000000815260040180806020018281038252601c8152602001807f36454c454d454e543a20696e76616c696420656c656d656e742069640000000081525060200191505060405180910390fd5b6000600482116122ed57600390506122f2565b600290505b60608167ffffffffffffffff8111801561230b57600080fd5b5060405190808252806020026020018201604052801561234557816020015b61233261474e565b81526020019060019003908161232a5790505b509050600061235333611582565b9050600080600090505b8281101561248257600061237133836110d6565b905061237b61476a565b600e60008381526020019081526020016000206040518060400160405290816000820160009054906101000a900460ff1660ff1660ff1681526020016000820160019054906101000a900460ff1660ff1660ff1681525050905087816000015160ff16148015612407575085816020015160ff16815181106123f957fe5b602002602001015160000151155b1561247357600186826020015160ff168151811061242157fe5b602002602001015160000190151590811515815250508186826020015160ff168151811061244b57fe5b60200260200101516020018181525050838060010194505086841415612472575050612482565b5b5050808060010191505061235d565b508381146124db576040517f08c379a000000000000000000000000000000000000000000000000000000000815260040180806020018281038252602c815260200180614a35602c913960400191505060405180910390fd5b60008090505b83518110156125175761250a8482815181106124f957fe5b60200260200101516020015161349d565b80806001019150506124e1565b5060007f000000000000000000000000000000000000000000000000000000000000000073ffffffffffffffffffffffffffffffffffffffff166370a08231306040518263ffffffff1660e01b8152600401808273ffffffffffffffffffffffffffffffffffffffff1673ffffffffffffffffffffffffffffffffffffffff16815260200191505060206040518083038186803b1580156125b757600080fd5b505afa1580156125cb573d6000803e3d6000fd5b505050506040513d60208110156125e157600080fd5b81019080805190602001909291905050509050600061262a606461261c60108a6006811061260b57fe5b0154856135d790919063ffffffff16565b61365d90919063ffffffff16565b90507f000000000000000000000000000000000000000000000000000000000000000073ffffffffffffffffffffffffffffffffffffffff1663a9059cbb33836040518363ffffffff1660e01b8152600401808373ffffffffffffffffffffffffffffffffffffffff1673ffffffffffffffffffffffffffffffffffffffff16815260200182815260200192505050602060405180830381600087803b1580156126d357600080fd5b505af11580156126e7573d6000803e3d6000fd5b505050506040513d60208110156126fd57600080fd5b8101908080519060200190929190505050612780576040517f08c379a00000000000000000000000000000000000000000000000000000000081526004018080602001828103825260188152602001807f36454c454d454e543a207472616e73666572206572726f72000000000000000081525060200191505060405180910390fd5b3373ffffffffffffffffffffffffffffffffffffffff167fe5b754fb1abb7f01b499791d0b820ae3b6af3424ac1c59768edb53f4ec31a9298883604051808381526020018281526020019250505060405180910390a250505050505050565b60007f000000000000000000000000000000000000000000000000000000000000000073ffffffffffffffffffffffffffffffffffffffff16634000aea07f000000000000000000000000000000000000000000000000000000000000000085878660405160200180838152602001828152602001925050506040516020818303038152906040526040518463ffffffff1660e01b8152600401808473ffffffffffffffffffffffffffffffffffffffff1673ffffffffffffffffffffffffffffffffffffffff16815260200183815260200180602001828103825283818151815260200191508051906020019080838360005b838110156128ee5780820151818401526020810190506128d3565b50505050905090810190601f16801561291b5780820380516001836020036101000a031916815260200191505b50945050505050602060405180830381600087803b15801561293c57600080fd5b505af1158015612950573d6000803e3d6000fd5b505050506040513d602081101561296657600080fd5b81019080805190602001909291905050505060006129988584306000808a8152602001908152602001600020546136a7565b90506129c060016000808881526020019081526020016000205461372190919063ffffffff16565b600080878152602001908152602001600020819055506129e085826137a9565b9150509392505050565b601681815481106129f757fe5b906000526020600020016000915090508060000160009054906101000a90046fffffffffffffffffffffffffffffffff16908060000160109054906101000a900460ff16908060000160119054906101000a900460ff16905083565b6000600660008473ffffffffffffffffffffffffffffffffffffffff1673ffffffffffffffffffffffffffffffffffffffff16815260200190815260200160002060008373ffffffffffffffffffffffffffffffffffffffff1673ffffffffffffffffffffffffffffffffffffffff16815260200190815260200160002060009054906101000a900460ff16905092915050565b60108160068110612af457fe5b016000915090505481565b612b07612d2c565b73ffffffffffffffffffffffffffffffffffffffff16600b60009054906101000a900473ffffffffffffffffffffffffffffffffffffffff1673ffffffffffffffffffffffffffffffffffffffff1614612bc9576040517f08c379a00000000000000000000000000000000000000000000000000000000081526004018080602001828103825260208152602001807f4f776e61626c653a2063616c6c6572206973206e6f7420746865206f776e657281525060200191505060405180910390fd5b600073ffffffffffffffffffffffffffffffffffffffff168173ffffffffffffffffffffffffffffffffffffffff161415612c4f576040517f08c379a000000000000000000000000000000000000000000000000000000000815260040180806020018281038252602681526020018061484c6026913960400191505060405180910390fd5b8073ffffffffffffffffffffffffffffffffffffffff16600b60009054906101000a900473ffffffffffffffffffffffffffffffffffffffff1673ffffffffffffffffffffffffffffffffffffffff167f8be0079c531659141344cd1fd0a4f28419497f9722a3daafe3b4186f6b6457e060405160405180910390a380600b60006101000a81548173ffffffffffffffffffffffffffffffffffffffff021916908373ffffffffffffffffffffffffffffffffffffffff16021790555050565b6000612d258260036137e290919063ffffffff16565b9050919050565b600033905090565b816005600083815260200190815260200160002060006101000a81548173ffffffffffffffffffffffffffffffffffffffff021916908373ffffffffffffffffffffffffffffffffffffffff160217905550808273ffffffffffffffffffffffffffffffffffffffff16612da7836114a9565b73ffffffffffffffffffffffffffffffffffffffff167f8c5be1e5ebec7d5bd14f71427d1e84f3dd0314c0f7b2291e5b200ac8c7c3b92560405160405180910390a45050565b6000612dfb826000016137fc565b9050919050565b6000612e0d82612d0f565b612e62576040517f08c379a000000000000000000000000000000000000000000000000000000000815260040180806020018281038252602c815260200180614896602c913960400191505060405180910390fd5b6000612e6d836114a9565b90508073ffffffffffffffffffffffffffffffffffffffff168473ffffffffffffffffffffffffffffffffffffffff161480612edc57508373ffffffffffffffffffffffffffffffffffffffff16612ec484610e64565b73ffffffffffffffffffffffffffffffffffffffff16145b80612eed5750612eec8185612a53565b5b91505092915050565b8273ffffffffffffffffffffffffffffffffffffffff16612f16826114a9565b73ffffffffffffffffffffffffffffffffffffffff1614612f82576040517f08c379a00000000000000000000000000000000000000000000000000000000081526004018080602001828103825260298152602001806149bc6029913960400191505060405180910390fd5b600073ffffffffffffffffffffffffffffffffffffffff168273ffffffffffffffffffffffffffffffffffffffff161415613008576040517f08c379a00000000000000000000000000000000000000000000000000000000081526004018080602001828103825260248152602001806148726024913960400191505060405180910390fd5b61301383838361380d565b61301e600082612d34565b61306f81600260008673ffffffffffffffffffffffffffffffffffffffff1673ffffffffffffffffffffffffffffffffffffffff16815260200190815260200160002061381290919063ffffffff16565b506130c181600260008573ffffffffffffffffffffffffffffffffffffffff1673ffffffffffffffffffffffffffffffffffffffff16815260200190815260200160002061382c90919063ffffffff16565b506130d8818360036138469092919063ffffffff16565b50808273ffffffffffffffffffffffffffffffffffffffff168473ffffffffffffffffffffffffffffffffffffffff167fddf252ad1be2c89b69c2b068fc378daa952ba7f163c4a11628f55a4df523b3ef60405160405180910390a4505050565b6000613148836000018361387b565b60001c905092915050565b60008060008061316686600001866138fe565b915091508160001c8160001c8090509350935050509250929050565b6000613195846000018460001b84613997565b60001c90509392505050565b60006131af82600001613a8d565b9050919050565b6000600f600084815260200190815260200160002060009054906101000a900473ffffffffffffffffffffffffffffffffffffffff1690506000806131fa84613a9e565b91509150600061320a8383613bec565b90506132168482613c71565b60008061324b87604051602001808281526020019150506040516020818303038152906040528051906020012060001c613a9e565b91509150600061325b8383613bec565b90506132678782613c71565b8673ffffffffffffffffffffffffffffffffffffffff167fb8825fb708f9eda380d406826b16913c475d01019f8cecab77dd45da0b8f336587878686604051808560ff1681526020018460ff1681526020018360ff1681526020018260ff16815260200194505050505060405180910390a2505050505050505050565b6132ef848484612ef6565b6132fb84848484613e65565b613350576040517f08c379a000000000000000000000000000000000000000000000000000000000815260040180806020018281038252603281526020018061481a6032913960400191505060405180910390fd5b50505050565b6060600082141561339e576040518060400160405280600181526020017f30000000000000000000000000000000000000000000000000000000000000008152509050613498565b600082905060005b600082146133c8578080600101915050600a82816133c057fe5b0491506133a6565b60608167ffffffffffffffff811180156133e157600080fd5b506040519080825280601f01601f1916602001820160405280156134145781602001600182028036833780820191505090505b50905060006001830390508593505b6000841461349057600a848161343557fe5b0660300160f81b8282806001900393508151811061344f57fe5b60200101907effffffffffffffffffffffffffffffffffffffffffffffffffffffffffffff1916908160001a905350600a848161348857fe5b049350613423565b819450505050505b919050565b60006134a8826114a9565b90506134b68160008461380d565b6134c1600083612d34565b600060096000848152602001908152602001600020805460018160011615610100020316600290049050146135105760096000838152602001908152602001600020600061350f919061478a565b5b61356182600260008473ffffffffffffffffffffffffffffffffffffffff1673ffffffffffffffffffffffffffffffffffffffff16815260200190815260200160002061381290919063ffffffff16565b506135768260036140aa90919063ffffffff16565b5081600073ffffffffffffffffffffffffffffffffffffffff168273ffffffffffffffffffffffffffffffffffffffff167fddf252ad1be2c89b69c2b068fc378daa952ba7f163c4a11628f55a4df523b3ef60405160405180910390a45050565b6000808314156135ea5760009050613657565b60008284029050828482816135fb57fe5b0414613652576040517f08c379a000000000000000000000000000000000000000000000000000000000815260040180806020018281038252602181526020018061496f6021913960400191505060405180910390fd5b809150505b92915050565b600061369f83836040518060400160405280601a81526020017f536166654d6174683a206469766973696f6e206279207a65726f0000000000008152506140c4565b905092915050565b600084848484604051602001808581526020018481526020018373ffffffffffffffffffffffffffffffffffffffff1673ffffffffffffffffffffffffffffffffffffffff1681526020018281526020019450505050506040516020818303038152906040528051906020012060001c9050949350505050565b60008082840190508381101561379f576040517f08c379a000000000000000000000000000000000000000000000000000000000815260040180806020018281038252601b8152602001807f536166654d6174683a206164646974696f6e206f766572666c6f77000000000081525060200191505060405180910390fd5b8091505092915050565b60008282604051602001808381526020018281526020019250505060405160208183030381529060405280519060200120905092915050565b60006137f4836000018360001b61418a565b905092915050565b600081600001805490509050919050565b505050565b6000613824836000018360001b6141ad565b905092915050565b600061383e836000018360001b614295565b905092915050565b6000613872846000018460001b8473ffffffffffffffffffffffffffffffffffffffff1660001b614305565b90509392505050565b6000818360000180549050116138dc576040517f08c379a00000000000000000000000000000000000000000000000000000000081526004018080602001828103825260228152602001806147f86022913960400191505060405180910390fd5b8260000182815481106138eb57fe5b9060005260206000200154905092915050565b60008082846000018054905011613960576040517f08c379a000000000000000000000000000000000000000000000000000000000815260040180806020018281038252602281526020018061494d6022913960400191505060405180910390fd5b600084600001848154811061397157fe5b906000526020600020906002020190508060000154816001015492509250509250929050565b60008084600101600085815260200190815260200160002054905060008114158390613a5e576040517f08c379a00000000000000000000000000000000000000000000000000000000081526004018080602001828103825283818151815260200191508051906020019080838360005b83811015613a23578082015181840152602081019050613a08565b50505050905090810190601f168015613a505780820380516001836020036101000a031916815260200191505b509250505060405180910390fd5b50846000016001820381548110613a7157fe5b9060005260206000209060020201600101549150509392505050565b600081600001805490509050919050565b6000806000629896808481613aaf57fe5b069050600080600090505b601680549050811015613b9557613b2260168281548110613ad757fe5b9060005260206000200160000160009054906101000a90046fffffffffffffffffffffffffffffffff166fffffffffffffffffffffffffffffffff168361372190919063ffffffff16565b915081831015613b885760168181548110613b3957fe5b9060005260206000200160000160109054906101000a900460ff1660168281548110613b6157fe5b9060005260206000200160000160119054906101000a900460ff1694509450505050613be7565b8080600101915050613aba565b506040517f08c379a0000000000000000000000000000000000000000000000000000000008152600401808060200182810382526021815260200180614a146021913960400191505060405180910390fd5b915091565b6000613bf6611043565b905060405180604001604052808460ff1681526020018360ff16815250600e600083815260200190815260200160002060008201518160000160006101000a81548160ff021916908360ff16021790555060208201518160000160016101000a81548160ff021916908360ff16021790555090505092915050565b600073ffffffffffffffffffffffffffffffffffffffff168273ffffffffffffffffffffffffffffffffffffffff161415613d14576040517f08c379a00000000000000000000000000000000000000000000000000000000081526004018080602001828103825260208152602001807f4552433732313a206d696e7420746f20746865207a65726f206164647265737381525060200191505060405180910390fd5b613d1d81612d0f565b15613d90576040517f08c379a000000000000000000000000000000000000000000000000000000000815260040180806020018281038252601c8152602001807f4552433732313a20746f6b656e20616c7265616479206d696e7465640000000081525060200191505060405180910390fd5b613d9c6000838361380d565b613ded81600260008573ffffffffffffffffffffffffffffffffffffffff1673ffffffffffffffffffffffffffffffffffffffff16815260200190815260200160002061382c90919063ffffffff16565b50613e04818360036138469092919063ffffffff16565b50808273ffffffffffffffffffffffffffffffffffffffff16600073ffffffffffffffffffffffffffffffffffffffff167fddf252ad1be2c89b69c2b068fc378daa952ba7f163c4a11628f55a4df523b3ef60405160405180910390a45050565b6000613e868473ffffffffffffffffffffffffffffffffffffffff166143e1565b613e9357600190506140a2565b606061402963150b7a0260e01b613ea8612d2c565b888787604051602401808573ffffffffffffffffffffffffffffffffffffffff1673ffffffffffffffffffffffffffffffffffffffff1681526020018473ffffffffffffffffffffffffffffffffffffffff1673ffffffffffffffffffffffffffffffffffffffff16815260200183815260200180602001828103825283818151815260200191508051906020019080838360005b83811015613f58578082015181840152602081019050613f3d565b50505050905090810190601f168015613f855780820380516001836020036101000a031916815260200191505b5095505050505050604051602081830303815290604052907bffffffffffffffffffffffffffffffffffffffffffffffffffffffff19166020820180517bffffffffffffffffffffffffffffffffffffffffffffffffffffffff838183161783525050505060405180606001604052806032815260200161481a603291398773ffffffffffffffffffffffffffffffffffffffff166143f49092919063ffffffff16565b9050600081806020019051602081101561404257600080fd5b8101908080519060200190929190505050905063150b7a0260e01b7bffffffffffffffffffffffffffffffffffffffffffffffffffffffff1916817bffffffffffffffffffffffffffffffffffffffffffffffffffffffff191614925050505b949350505050565b60006140bc836000018360001b61440c565b905092915050565b60008083118290614170576040517f08c379a00000000000000000000000000000000000000000000000000000000081526004018080602001828103825283818151815260200191508051906020019080838360005b8381101561413557808201518184015260208101905061411a565b50505050905090810190601f1680156141625780820380516001836020036101000a031916815260200191505b509250505060405180910390fd5b50600083858161417c57fe5b049050809150509392505050565b600080836001016000848152602001908152602001600020541415905092915050565b6000808360010160008481526020019081526020016000205490506000811461428957600060018203905060006001866000018054905003905060008660000182815481106141f857fe5b906000526020600020015490508087600001848154811061421557fe5b906000526020600020018190555060018301876001016000838152602001908152602001600020819055508660000180548061424d57fe5b6001900381819060005260206000200160009055905586600101600087815260200190815260200160002060009055600194505050505061428f565b60009150505b92915050565b60006142a18383614525565b6142fa5782600001829080600181540180825580915050600190039060005260206000200160009091909190915055826000018054905083600101600084815260200190815260200160002081905550600190506142ff565b600090505b92915050565b60008084600101600085815260200190815260200160002054905060008114156143ac578460000160405180604001604052808681526020018581525090806001815401808255809150506001900390600052602060002090600202016000909190919091506000820151816000015560208201518160010155505084600001805490508560010160008681526020019081526020016000208190555060019150506143da565b828560000160018303815481106143bf57fe5b90600052602060002090600202016001018190555060009150505b9392505050565b600080823b905060008111915050919050565b60606144038484600085614548565b90509392505050565b60008083600101600084815260200190815260200160002054905060008114614519576000600182039050600060018660000180549050039050600086600001828154811061445757fe5b906000526020600020906002020190508087600001848154811061447757fe5b90600052602060002090600202016000820154816000015560018201548160010155905050600183018760010160008360000154815260200190815260200160002081905550866000018054806144ca57fe5b600190038181906000526020600020906002020160008082016000905560018201600090555050905586600101600087815260200190815260200160002060009055600194505050505061451f565b60009150505b92915050565b600080836001016000848152602001908152602001600020541415905092915050565b6060614553856143e1565b6145c5576040517f08c379a000000000000000000000000000000000000000000000000000000000815260040180806020018281038252601d8152602001807f416464726573733a2063616c6c20746f206e6f6e2d636f6e747261637400000081525060200191505060405180910390fd5b600060608673ffffffffffffffffffffffffffffffffffffffff1685876040518082805190602001908083835b6020831061461557805182526020820191506020810190506020830392506145f2565b6001836020036101000a03801982511681845116808217855250505050505090500191505060006040518083038185875af1925050503d8060008114614677576040519150601f19603f3d011682016040523d82523d6000602084013e61467c565b606091505b50915091508115614691578092505050614746565b6000815111156146a45780518082602001fd5b836040517f08c379a00000000000000000000000000000000000000000000000000000000081526004018080602001828103825283818151815260200191508051906020019080838360005b8381101561470b5780820151818401526020810190506146f0565b50505050905090810190601f1680156147385780820380516001836020036101000a031916815260200191505b509250505060405180910390fd5b949350505050565b6040518060400160405280600015158152602001600081525090565b6040518060400160405280600060ff168152602001600060ff1681525090565b50805460018160011615610100020316600290046000825580601f106147b057506147cf565b601f0160209004906000526020600020908101906147ce91906147d2565b5b50565b6147f491905b808211156147f05760008160009055506001016147d8565b5090565b9056fe456e756d657261626c655365743a20696e646578206f7574206f6620626f756e64734552433732313a207472616e7366657220746f206e6f6e20455243373231526563656976657220696d706c656d656e7465724f776e61626c653a206e6577206f776e657220697320746865207a65726f20616464726573734552433732313a207472616e7366657220746f20746865207a65726f20616464726573734552433732313a206f70657261746f7220717565727920666f72206e6f6e6578697374656e7420746f6b656e4552433732313a20617070726f76652063616c6c6572206973206e6f74206f776e6572206e6f7220617070726f76656420666f7220616c6c4552433732313a2062616c616e636520717565727920666f7220746865207a65726f20616464726573734552433732313a206f776e657220717565727920666f72206e6f6e6578697374656e7420746f6b656e456e756d657261626c654d61703a20696e646578206f7574206f6620626f756e6473536166654d6174683a206d756c7469706c69636174696f6e206f766572666c6f774552433732313a20617070726f76656420717565727920666f72206e6f6e6578697374656e7420746f6b656e4552433732313a207472616e73666572206f6620746f6b656e2074686174206973206e6f74206f776e4552433732314d657461646174613a2055524920717565727920666f72206e6f6e6578697374656e7420746f6b656e36454c454d454e543a2053656c656374696e6720656c656d656e74206572726f7236454c454d454e543a20796f7520646f206e6f742068617665206e656365737361727920656c656d656e74734552433732313a20617070726f76616c20746f2063757272656e74206f776e65724552433732313a207472616e736665722063616c6c6572206973206e6f74206f776e6572206e6f7220617070726f76656436454c454d454e543a204f6e6c79204c494e4b20746f6b656e2069732061636365707461626c65a264697066735822122048ce7a3e0bce22c219f84beec7d4179fbcb2067c714c3df18a05051ef7f2bf0e64736f6c63430006060033",
  "immutableReferences": {
    "976": [
      {
        "length": 32,
        "start": 4605
      },
      {
        "length": 32,
        "start": 4666
      },
      {
        "length": 32,
        "start": 7268
      },
      {
        "length": 32,
        "start": 9500
      },
      {
        "length": 32,
        "start": 9774
      },
      {
        "length": 32,
        "start": 10211
      }
    ],
    "978": [
      {
        "length": 32,
        "start": 6158
      },
      {
        "length": 32,
        "start": 10271
      }
    ]
  },
  "source": "// SPDX-License-Identifier: MIT\npragma solidity >=0.4.21 <0.7.0;\n\n// import \"@chainlink/contracts/src/v0.6/VRFConsumerBase.sol\";\nimport './chainlink/VRFConsumerBase.sol'; // prevent to load double safemath\nimport '@openzeppelin/contracts/token/ERC721/ERC721.sol';\nimport '@openzeppelin/contracts/access/Ownable.sol';\n\ncontract SixElements is VRFConsumerBase, ERC721, Ownable {\n  bytes32 internal keyHash;\n  uint256 internal fee;\n  uint256 public constant playFee = 0.5 * (10**18);\n  uint256 public constant managementFee = 0.1 * (10**18);\n\n  mapping(uint256 => Token) public tokens;\n  mapping(bytes32 => address) private _receivers;\n  uint256[6] public rewardRates;\n  Rate[] public rates;\n\n  struct Rate {\n    uint128 number;\n    uint8 element;\n    uint8 rank;\n  }\n\n  struct Token {\n    uint8 element;\n    uint8 rank;\n  }\n\n  struct BurnToken {\n    bool set;\n    uint256 tokenId;\n  }\n\n  event Receive(address indexed player, uint256 element1, uint256 rank1, uint256 element2, uint256 rank2);\n  event Redeem(address indexed player, uint256 element, uint256 reward);\n\n  address constant vrf = 0xdD3782915140c8f3b190B5D67eAc6dc5760C46E9;\n  address constant link = 0xa36085F69e2889c224210F603D836748e7dC0088;\n\n  /**\n   * Constructor inherits VRFConsumerBase\n   *\n   * Network: Kovan\n   * Chainlink VRF Coordinator address: 0xdD3782915140c8f3b190B5D67eAc6dc5760C46E9\n   * LINK token address:                0xa36085F69e2889c224210F603D836748e7dC0088\n   * Key Hash: 0x6c3699283bda56ad74f6b855546325b68d482e983852a7a82979cc4807b641f4\n   */\n  constructor(string memory name, string memory symbol)\n    public\n    VRFConsumerBase(\n      vrf, // VRF Coordinator\n      link // LINK Token\n    )\n    Ownable()\n    ERC721(name, symbol)\n  {\n    keyHash = 0x6c3699283bda56ad74f6b855546325b68d482e983852a7a82979cc4807b641f4;\n    fee = 0.1 * 10**18; // 0.1 LINK\n    // Fire\n    rewardRates[0] = 5;\n    rates.push(Rate({number: 1900000, element: 0, rank: 0}));\n    rates.push(Rate({number: 700000, element: 0, rank: 1}));\n    rates.push(Rate({number: 300000, element: 0, rank: 2}));\n    // Water\n    rewardRates[1] = 7;\n    rates.push(Rate({number: 1800000, element: 1, rank: 0}));\n    rates.push(Rate({number: 600000, element: 1, rank: 1}));\n    rates.push(Rate({number: 150000, element: 1, rank: 2}));\n    // Earth\n    rewardRates[2] = 15;\n    rates.push(Rate({number: 1300000, element: 2, rank: 0}));\n    rates.push(Rate({number: 500000, element: 2, rank: 1}));\n    rates.push(Rate({number: 50000, element: 2, rank: 2}));\n    // Wind\n    rewardRates[3] = 25;\n    rates.push(Rate({number: 1292989, element: 3, rank: 0}));\n    rates.push(Rate({number: 400000, element: 3, rank: 1}));\n    rates.push(Rate({number: 7000, element: 3, rank: 2}));\n    // Light\n    rewardRates[4] = 50;\n    rates.push(Rate({number: 700000, element: 4, rank: 0}));\n    rates.push(Rate({number: 10, element: 4, rank: 1}));\n    // Dark\n    rewardRates[5] = 95;\n    rates.push(Rate({number: 300000, element: 5, rank: 0}));\n    rates.push(Rate({number: 1, element: 5, rank: 1}));\n  }\n\n  function tokenInfo(uint256 tokenId) public view returns (uint256 element, uint256 rank) {\n    require(_exists(tokenId), 'ERC721Metadata: URI query for nonexistent token');\n\n    element = tokens[tokenId].element;\n    rank = tokens[tokenId].rank;\n  }\n\n  /**\n   * Receiver function for ERC677\n   */\n  function onTokenTransfer(\n    address _from,\n    uint256 _amount,\n    bytes calldata _data\n  ) external {\n    require(msg.sender == link, '6ELEMENT: Only LINK token is acceptable');\n    require(_amount == playFee, '6ELEMENT: Not enough LINK');\n    require(LINK.transfer(owner(), managementFee), '6ELEMENT: transfer error');\n\n    uint256 seed = uint256(blockhash(block.number - 1));\n    bytes32 requestId = requestRandomness(keyHash, fee, seed);\n    _receivers[requestId] = _from;\n  }\n\n  /**\n   * Callback function used by VRF Coordinator\n   */\n  function fulfillRandomness(bytes32 requestId, uint256 randomness) internal override {\n    address receiver = _receivers[requestId];\n\n    (uint8 element1, uint8 rank1) = _selectElement(randomness);\n    uint256 tokenId1 = _createToken(element1, rank1);\n    _mint(receiver, tokenId1);\n\n    (uint8 element2, uint8 rank2) = _selectElement(uint256(keccak256(abi.encodePacked(randomness))));\n    uint256 tokenId2 = _createToken(element2, rank2);\n    _mint(receiver, tokenId2);\n\n    emit Receive(receiver, element1, rank1, element2, rank2);\n  }\n\n  function redeem(uint256 element) external {\n    require(element <= 6, '6ELEMENT: invalid element id');\n    uint256 necessaryCount;\n    if (element <= 4) {\n      necessaryCount = 3;\n    } else {\n      necessaryCount = 2;\n    }\n\n    BurnToken[] memory burnTokens = new BurnToken[](necessaryCount);\n    uint256 length = balanceOf(msg.sender);\n    uint256 count;\n    for (uint256 i = 0; i < length; i++) {\n      uint256 tokenId = tokenOfOwnerByIndex(msg.sender, i);\n      Token memory token = tokens[tokenId];\n      if (token.element == element && !burnTokens[token.rank].set) {\n        burnTokens[token.rank].set = true;\n        burnTokens[token.rank].tokenId = tokenId;\n        count++;\n        if (count == necessaryCount) {\n          break;\n        }\n      }\n    }\n    require(count == necessaryCount, '6ELEMENT: you do not have necessary elements');\n\n    for (uint256 i = 0; i < burnTokens.length; i++) {\n      _burn(burnTokens[i].tokenId);\n    }\n\n    uint256 totalBalance = LINK.balanceOf(address(this));\n    uint256 reward = totalBalance.mul(rewardRates[element]).div(100);\n    require(LINK.transfer(msg.sender, reward), '6ELEMENT: transfer error');\n\n    emit Redeem(msg.sender, element, reward);\n  }\n\n  function _selectElement(uint256 randomness) private view returns (uint8 element, uint8 rank) {\n    uint256 target = randomness % 10000000;\n    uint256 sum;\n\n    for (uint256 i = 0; i < rates.length; i++) {\n      sum = sum.add(rates[i].number);\n      if (target < sum) {\n        return (rates[i].element, rates[i].rank);\n      }\n    }\n\n    revert('6ELEMENT: Selecting element error');\n  }\n\n  function _createToken(uint8 element, uint8 rank) private returns (uint256 tokenId) {\n    tokenId = totalSupply();\n\n    tokens[tokenId] = Token({element: element, rank: rank});\n  }\n\n  function withdraw() external onlyOwner {\n    require(LINK.transfer(msg.sender, LINK.balanceOf(address(this))), '6ELEMENT: transfer error');\n  }\n}\n",
  "sourcePath": "/Users/tomohiro/Documents/Projects/cre8/6elements/contracts/SixElements.sol",
  "compiler": {
    "name": "solc",
    "version": "0.6.6+commit.6c089d02.Emscripten.clang"
  },
  "schemaVersion": "3.2.0",
  "updatedAt": "2020-10-28T02:04:57.684Z",
  "networkType": "ethereum",
  "devdoc": {
    "methods": {
      "approve(address,uint256)": {
        "details": "See {IERC721-approve}."
      },
      "balanceOf(address)": {
        "details": "See {IERC721-balanceOf}."
      },
      "baseURI()": {
        "details": "Returns the base URI set via {_setBaseURI}. This will be automatically added as a prefix in {tokenURI} to each token's URI, or to the token ID if no specific URI is set for that token ID."
      },
      "getApproved(uint256)": {
        "details": "See {IERC721-getApproved}."
      },
      "isApprovedForAll(address,address)": {
        "details": "See {IERC721-isApprovedForAll}."
      },
      "name()": {
        "details": "See {IERC721Metadata-name}."
      },
      "owner()": {
        "details": "Returns the address of the current owner."
      },
      "ownerOf(uint256)": {
        "details": "See {IERC721-ownerOf}."
      },
      "renounceOwnership()": {
        "details": "Leaves the contract without owner. It will not be possible to call `onlyOwner` functions anymore. Can only be called by the current owner.     * NOTE: Renouncing ownership will leave the contract without an owner, thereby removing any functionality that is only available to the owner."
      },
      "requestRandomness(bytes32,uint256,uint256)": {
        "details": "See \"SECURITY CONSIDERATIONS\" above for more information on _seed.The fulfillRandomness method receives the output, once it's providedby the Oracle, and verified by the vrfCoordinator.The _keyHash must already be registered with the VRFCoordinator, andthe _fee must exceed the fee specified during registration of the_keyHash.The returned requestId can be used to distinguish responses to *concurrent requests. It is passed as the first argument tofulfillRandomness.",
        "params": {
          "_fee": "The amount of LINK to send with the request",
          "_keyHash": "ID of public key against which randomness is generated",
          "_seed": "seed mixed into the input of the VRF"
        },
        "returns": {
          "requestId": "unique ID for this request"
        }
      },
      "safeTransferFrom(address,address,uint256)": {
        "details": "See {IERC721-safeTransferFrom}."
      },
      "safeTransferFrom(address,address,uint256,bytes)": {
        "details": "See {IERC721-safeTransferFrom}."
      },
      "setApprovalForAll(address,bool)": {
        "details": "See {IERC721-setApprovalForAll}."
      },
      "supportsInterface(bytes4)": {
        "details": "See {IERC165-supportsInterface}.     * Time complexity O(1), guaranteed to always use less than 30 000 gas."
      },
      "symbol()": {
        "details": "See {IERC721Metadata-symbol}."
      },
      "tokenByIndex(uint256)": {
        "details": "See {IERC721Enumerable-tokenByIndex}."
      },
      "tokenOfOwnerByIndex(address,uint256)": {
        "details": "See {IERC721Enumerable-tokenOfOwnerByIndex}."
      },
      "tokenURI(uint256)": {
        "details": "See {IERC721Metadata-tokenURI}."
      },
      "totalSupply()": {
        "details": "See {IERC721Enumerable-totalSupply}."
      },
      "transferFrom(address,address,uint256)": {
        "details": "See {IERC721-transferFrom}."
      },
      "transferOwnership(address)": {
        "details": "Transfers ownership of the contract to a new account (`newOwner`). Can only be called by the current owner."
      }
    }
  },
  "userdoc": {
    "methods": {
      "constructor": "Constructor inherits VRFConsumerBase   * Network: Kovan Chainlink VRF Coordinator address: 0xdD3782915140c8f3b190B5D67eAc6dc5760C46E9 LINK token address:                0xa36085F69e2889c224210F603D836748e7dC0088 Key Hash: 0x6c3699283bda56ad74f6b855546325b68d482e983852a7a82979cc4807b641f4",
      "onTokenTransfer(address,uint256,bytes)": {
        "notice": "Receiver function for ERC677"
      },
      "requestRandomness(bytes32,uint256,uint256)": {
        "notice": "requestRandomness initiates a request for VRF output given _seed"
      }
    }
  }
}