{
  "contractName": "SixElements",
  "abi": [
    {
      "inputs": [
        {
          "internalType": "string",
          "name": "name",
          "type": "string"
        },
        {
          "internalType": "string",
          "name": "symbol",
          "type": "string"
        },
        {
          "internalType": "address",
          "name": "_vrf",
          "type": "address"
        },
        {
          "internalType": "address",
          "name": "_link",
          "type": "address"
        }
      ],
      "stateMutability": "nonpayable",
      "type": "constructor"
    },
    {
      "anonymous": false,
      "inputs": [
        {
          "indexed": true,
          "internalType": "address",
          "name": "owner",
          "type": "address"
        },
        {
          "indexed": true,
          "internalType": "address",
          "name": "approved",
          "type": "address"
        },
        {
          "indexed": true,
          "internalType": "uint256",
          "name": "tokenId",
          "type": "uint256"
        }
      ],
      "name": "Approval",
      "type": "event"
    },
    {
      "anonymous": false,
      "inputs": [
        {
          "indexed": true,
          "internalType": "address",
          "name": "owner",
          "type": "address"
        },
        {
          "indexed": true,
          "internalType": "address",
          "name": "operator",
          "type": "address"
        },
        {
          "indexed": false,
          "internalType": "bool",
          "name": "approved",
          "type": "bool"
        }
      ],
      "name": "ApprovalForAll",
      "type": "event"
    },
    {
      "anonymous": false,
      "inputs": [
        {
          "indexed": true,
          "internalType": "address",
          "name": "previousOwner",
          "type": "address"
        },
        {
          "indexed": true,
          "internalType": "address",
          "name": "newOwner",
          "type": "address"
        }
      ],
      "name": "OwnershipTransferred",
      "type": "event"
    },
    {
      "anonymous": false,
      "inputs": [
        {
          "indexed": true,
          "internalType": "address",
          "name": "player",
          "type": "address"
        },
        {
          "indexed": false,
          "internalType": "uint256",
          "name": "element1",
          "type": "uint256"
        },
        {
          "indexed": false,
          "internalType": "uint256",
          "name": "rank1",
          "type": "uint256"
        },
        {
          "indexed": false,
          "internalType": "uint256",
          "name": "element2",
          "type": "uint256"
        },
        {
          "indexed": false,
          "internalType": "uint256",
          "name": "rank2",
          "type": "uint256"
        }
      ],
      "name": "Receive",
      "type": "event"
    },
    {
      "anonymous": false,
      "inputs": [
        {
          "indexed": true,
          "internalType": "address",
          "name": "player",
          "type": "address"
        },
        {
          "indexed": false,
          "internalType": "uint256",
          "name": "element",
          "type": "uint256"
        },
        {
          "indexed": false,
          "internalType": "uint256",
          "name": "reward",
          "type": "uint256"
        }
      ],
      "name": "Redeem",
      "type": "event"
    },
    {
      "anonymous": false,
      "inputs": [
        {
          "indexed": true,
          "internalType": "address",
          "name": "from",
          "type": "address"
        },
        {
          "indexed": true,
          "internalType": "address",
          "name": "to",
          "type": "address"
        },
        {
          "indexed": true,
          "internalType": "uint256",
          "name": "tokenId",
          "type": "uint256"
        }
      ],
      "name": "Transfer",
      "type": "event"
    },
    {
      "inputs": [
        {
          "internalType": "address",
          "name": "to",
          "type": "address"
        },
        {
          "internalType": "uint256",
          "name": "tokenId",
          "type": "uint256"
        }
      ],
      "name": "approve",
      "outputs": [],
      "stateMutability": "nonpayable",
      "type": "function"
    },
    {
      "inputs": [
        {
          "internalType": "address",
          "name": "owner",
          "type": "address"
        }
      ],
      "name": "balanceOf",
      "outputs": [
        {
          "internalType": "uint256",
          "name": "",
          "type": "uint256"
        }
      ],
      "stateMutability": "view",
      "type": "function"
    },
    {
      "inputs": [],
      "name": "baseURI",
      "outputs": [
        {
          "internalType": "string",
          "name": "",
          "type": "string"
        }
      ],
      "stateMutability": "view",
      "type": "function"
    },
    {
      "inputs": [
        {
          "internalType": "uint256",
          "name": "tokenId",
          "type": "uint256"
        }
      ],
      "name": "getApproved",
      "outputs": [
        {
          "internalType": "address",
          "name": "",
          "type": "address"
        }
      ],
      "stateMutability": "view",
      "type": "function"
    },
    {
      "inputs": [
        {
          "internalType": "address",
          "name": "owner",
          "type": "address"
        },
        {
          "internalType": "address",
          "name": "operator",
          "type": "address"
        }
      ],
      "name": "isApprovedForAll",
      "outputs": [
        {
          "internalType": "bool",
          "name": "",
          "type": "bool"
        }
      ],
      "stateMutability": "view",
      "type": "function"
    },
    {
      "inputs": [],
      "name": "managementFee",
      "outputs": [
        {
          "internalType": "uint256",
          "name": "",
          "type": "uint256"
        }
      ],
      "stateMutability": "view",
      "type": "function"
    },
    {
      "inputs": [],
      "name": "name",
      "outputs": [
        {
          "internalType": "string",
          "name": "",
          "type": "string"
        }
      ],
      "stateMutability": "view",
      "type": "function"
    },
    {
      "inputs": [
        {
          "internalType": "bytes32",
          "name": "",
          "type": "bytes32"
        }
      ],
      "name": "nonces",
      "outputs": [
        {
          "internalType": "uint256",
          "name": "",
          "type": "uint256"
        }
      ],
      "stateMutability": "view",
      "type": "function"
    },
    {
      "inputs": [],
      "name": "owner",
      "outputs": [
        {
          "internalType": "address",
          "name": "",
          "type": "address"
        }
      ],
      "stateMutability": "view",
      "type": "function"
    },
    {
      "inputs": [
        {
          "internalType": "uint256",
          "name": "tokenId",
          "type": "uint256"
        }
      ],
      "name": "ownerOf",
      "outputs": [
        {
          "internalType": "address",
          "name": "",
          "type": "address"
        }
      ],
      "stateMutability": "view",
      "type": "function"
    },
    {
      "inputs": [],
      "name": "playFee",
      "outputs": [
        {
          "internalType": "uint256",
          "name": "",
          "type": "uint256"
        }
      ],
      "stateMutability": "view",
      "type": "function"
    },
    {
      "inputs": [
        {
          "internalType": "uint256",
          "name": "",
          "type": "uint256"
        }
      ],
      "name": "rates",
      "outputs": [
        {
          "internalType": "uint128",
          "name": "number",
          "type": "uint128"
        },
        {
          "internalType": "uint8",
          "name": "element",
          "type": "uint8"
        },
        {
          "internalType": "uint8",
          "name": "rank",
          "type": "uint8"
        }
      ],
      "stateMutability": "view",
      "type": "function"
    },
    {
      "inputs": [
        {
          "internalType": "bytes32",
          "name": "requestId",
          "type": "bytes32"
        },
        {
          "internalType": "uint256",
          "name": "randomness",
          "type": "uint256"
        }
      ],
      "name": "rawFulfillRandomness",
      "outputs": [],
      "stateMutability": "nonpayable",
      "type": "function"
    },
    {
      "inputs": [],
      "name": "renounceOwnership",
      "outputs": [],
      "stateMutability": "nonpayable",
      "type": "function"
    },
    {
      "inputs": [
        {
          "internalType": "bytes32",
          "name": "_keyHash",
          "type": "bytes32"
        },
        {
          "internalType": "uint256",
          "name": "_fee",
          "type": "uint256"
        },
        {
          "internalType": "uint256",
          "name": "_seed",
          "type": "uint256"
        }
      ],
      "name": "requestRandomness",
      "outputs": [
        {
          "internalType": "bytes32",
          "name": "requestId",
          "type": "bytes32"
        }
      ],
      "stateMutability": "nonpayable",
      "type": "function"
    },
    {
      "inputs": [
        {
          "internalType": "uint256",
          "name": "",
          "type": "uint256"
        }
      ],
      "name": "rewardRates",
      "outputs": [
        {
          "internalType": "uint256",
          "name": "",
          "type": "uint256"
        }
      ],
      "stateMutability": "view",
      "type": "function"
    },
    {
      "inputs": [
        {
          "internalType": "address",
          "name": "from",
          "type": "address"
        },
        {
          "internalType": "address",
          "name": "to",
          "type": "address"
        },
        {
          "internalType": "uint256",
          "name": "tokenId",
          "type": "uint256"
        }
      ],
      "name": "safeTransferFrom",
      "outputs": [],
      "stateMutability": "nonpayable",
      "type": "function"
    },
    {
      "inputs": [
        {
          "internalType": "address",
          "name": "from",
          "type": "address"
        },
        {
          "internalType": "address",
          "name": "to",
          "type": "address"
        },
        {
          "internalType": "uint256",
          "name": "tokenId",
          "type": "uint256"
        },
        {
          "internalType": "bytes",
          "name": "_data",
          "type": "bytes"
        }
      ],
      "name": "safeTransferFrom",
      "outputs": [],
      "stateMutability": "nonpayable",
      "type": "function"
    },
    {
      "inputs": [
        {
          "internalType": "address",
          "name": "operator",
          "type": "address"
        },
        {
          "internalType": "bool",
          "name": "approved",
          "type": "bool"
        }
      ],
      "name": "setApprovalForAll",
      "outputs": [],
      "stateMutability": "nonpayable",
      "type": "function"
    },
    {
      "inputs": [
        {
          "internalType": "bytes4",
          "name": "interfaceId",
          "type": "bytes4"
        }
      ],
      "name": "supportsInterface",
      "outputs": [
        {
          "internalType": "bool",
          "name": "",
          "type": "bool"
        }
      ],
      "stateMutability": "view",
      "type": "function"
    },
    {
      "inputs": [],
      "name": "symbol",
      "outputs": [
        {
          "internalType": "string",
          "name": "",
          "type": "string"
        }
      ],
      "stateMutability": "view",
      "type": "function"
    },
    {
      "inputs": [
        {
          "internalType": "uint256",
          "name": "index",
          "type": "uint256"
        }
      ],
      "name": "tokenByIndex",
      "outputs": [
        {
          "internalType": "uint256",
          "name": "",
          "type": "uint256"
        }
      ],
      "stateMutability": "view",
      "type": "function"
    },
    {
      "inputs": [
        {
          "internalType": "address",
          "name": "owner",
          "type": "address"
        },
        {
          "internalType": "uint256",
          "name": "index",
          "type": "uint256"
        }
      ],
      "name": "tokenOfOwnerByIndex",
      "outputs": [
        {
          "internalType": "uint256",
          "name": "",
          "type": "uint256"
        }
      ],
      "stateMutability": "view",
      "type": "function"
    },
    {
      "inputs": [
        {
          "internalType": "uint256",
          "name": "tokenId",
          "type": "uint256"
        }
      ],
      "name": "tokenURI",
      "outputs": [
        {
          "internalType": "string",
          "name": "",
          "type": "string"
        }
      ],
      "stateMutability": "view",
      "type": "function"
    },
    {
      "inputs": [
        {
          "internalType": "uint256",
          "name": "",
          "type": "uint256"
        }
      ],
      "name": "tokens",
      "outputs": [
        {
          "internalType": "uint8",
          "name": "element",
          "type": "uint8"
        },
        {
          "internalType": "uint8",
          "name": "rank",
          "type": "uint8"
        }
      ],
      "stateMutability": "view",
      "type": "function"
    },
    {
      "inputs": [],
      "name": "totalSupply",
      "outputs": [
        {
          "internalType": "uint256",
          "name": "",
          "type": "uint256"
        }
      ],
      "stateMutability": "view",
      "type": "function"
    },
    {
      "inputs": [
        {
          "internalType": "address",
          "name": "from",
          "type": "address"
        },
        {
          "internalType": "address",
          "name": "to",
          "type": "address"
        },
        {
          "internalType": "uint256",
          "name": "tokenId",
          "type": "uint256"
        }
      ],
      "name": "transferFrom",
      "outputs": [],
      "stateMutability": "nonpayable",
      "type": "function"
    },
    {
      "inputs": [
        {
          "internalType": "address",
          "name": "newOwner",
          "type": "address"
        }
      ],
      "name": "transferOwnership",
      "outputs": [],
      "stateMutability": "nonpayable",
      "type": "function"
    },
    {
      "inputs": [
        {
          "internalType": "uint256",
          "name": "tokenId",
          "type": "uint256"
        }
      ],
      "name": "tokenInfo",
      "outputs": [
        {
          "internalType": "uint256",
          "name": "element",
          "type": "uint256"
        },
        {
          "internalType": "uint256",
          "name": "rank",
          "type": "uint256"
        }
      ],
      "stateMutability": "view",
      "type": "function"
    },
    {
      "inputs": [],
      "name": "generating",
      "outputs": [
        {
          "internalType": "uint256",
          "name": "",
          "type": "uint256"
        }
      ],
      "stateMutability": "view",
      "type": "function"
    },
    {
      "inputs": [
        {
          "internalType": "address",
          "name": "_from",
          "type": "address"
        },
        {
          "internalType": "uint256",
          "name": "_amount",
          "type": "uint256"
        },
        {
          "internalType": "bytes",
          "name": "_data",
          "type": "bytes"
        }
      ],
      "name": "onTokenTransfer",
      "outputs": [],
      "stateMutability": "nonpayable",
      "type": "function"
    },
    {
      "inputs": [
        {
          "internalType": "uint256[]",
          "name": "tokenIds",
          "type": "uint256[]"
        }
      ],
      "name": "redeem",
      "outputs": [],
      "stateMutability": "nonpayable",
      "type": "function"
    },
    {
      "inputs": [],
      "name": "withdraw",
      "outputs": [],
      "stateMutability": "nonpayable",
      "type": "function"
    }
  ],
  "bytecode": "0x60c06040523480156200001157600080fd5b506040516200652338038062006523833981810160405260808110156200003757600080fd5b81019080805160405193929190846401000000008211156200005857600080fd5b838201915060208201858111156200006f57600080fd5b82518660018202830111640100000000821117156200008d57600080fd5b8083526020830192505050908051906020019080838360005b83811015620000c3578082015181840152602081019050620000a6565b50505050905090810190601f168015620000f15780820380516001836020036101000a031916815260200191505b50604052602001805160405193929190846401000000008211156200011557600080fd5b838201915060208201858111156200012c57600080fd5b82518660018202830111640100000000821117156200014a57600080fd5b8083526020830192505050908051906020019080838360005b838110156200018057808201518184015260208101905062000163565b50505050905090810190601f168015620001ae5780820380516001836020036101000a031916815260200191505b506040526020018051906020019092919080519060200190929190505050838383838173ffffffffffffffffffffffffffffffffffffffff1660a08173ffffffffffffffffffffffffffffffffffffffff1660601b815250508073ffffffffffffffffffffffffffffffffffffffff1660808173ffffffffffffffffffffffffffffffffffffffff1660601b815250505050620002586301ffc9a760e01b620012a760201b60201c565b816007908051906020019062000270929190620013b8565b50806008908051906020019062000289929190620013b8565b50620002a26380ac58cd60e01b620012a760201b60201c565b620002ba635b5e139f60e01b620012a760201b60201c565b620002d263780e9d6360e01b620012a760201b60201c565b50506000620002e6620013b060201b60201c565b905080600b60006101000a81548173ffffffffffffffffffffffffffffffffffffffff021916908373ffffffffffffffffffffffffffffffffffffffff1602179055508073ffffffffffffffffffffffffffffffffffffffff16600073ffffffffffffffffffffffffffffffffffffffff167f8be0079c531659141344cd1fd0a4f28419497f9722a3daafe3b4186f6b6457e060405160405180910390a35080600c60006101000a81548173ffffffffffffffffffffffffffffffffffffffff021916908373ffffffffffffffffffffffffffffffffffffffff1602179055507f6c3699283bda56ad74f6b855546325b68d482e983852a7a82979cc4807b641f460001b600d8190555067016345785d8a0000600e81905550600160136000600681106200041057fe5b018190555060196040518060600160405280621cfde06fffffffffffffffffffffffffffffffff168152602001600060ff168152602001600060ff168152509080600181540180825580915050600190039060005260206000200160009091909190915060008201518160000160006101000a8154816fffffffffffffffffffffffffffffffff02191690836fffffffffffffffffffffffffffffffff16021790555060208201518160000160106101000a81548160ff021916908360ff16021790555060408201518160000160116101000a81548160ff021916908360ff160217905550505060196040518060600160405280620aae606fffffffffffffffffffffffffffffffff168152602001600060ff168152602001600160ff168152509080600181540180825580915050600190039060005260206000200160009091909190915060008201518160000160006101000a8154816fffffffffffffffffffffffffffffffff02191690836fffffffffffffffffffffffffffffffff16021790555060208201518160000160106101000a81548160ff021916908360ff16021790555060408201518160000160116101000a81548160ff021916908360ff160217905550505060196040518060600160405280620493e06fffffffffffffffffffffffffffffffff168152602001600060ff168152602001600260ff168152509080600181540180825580915050600190039060005260206000200160009091909190915060008201518160000160006101000a8154816fffffffffffffffffffffffffffffffff02191690836fffffffffffffffffffffffffffffffff16021790555060208201518160000160106101000a81548160ff021916908360ff16021790555060408201518160000160116101000a81548160ff021916908360ff160217905550505060056013600160068110620006cc57fe5b018190555060196040518060600160405280621b77406fffffffffffffffffffffffffffffffff168152602001600160ff168152602001600060ff168152509080600181540180825580915050600190039060005260206000200160009091909190915060008201518160000160006101000a8154816fffffffffffffffffffffffffffffffff02191690836fffffffffffffffffffffffffffffffff16021790555060208201518160000160106101000a81548160ff021916908360ff16021790555060408201518160000160116101000a81548160ff021916908360ff160217905550505060196040518060600160405280620927c06fffffffffffffffffffffffffffffffff168152602001600160ff168152602001600160ff168152509080600181540180825580915050600190039060005260206000200160009091909190915060008201518160000160006101000a8154816fffffffffffffffffffffffffffffffff02191690836fffffffffffffffffffffffffffffffff16021790555060208201518160000160106101000a81548160ff021916908360ff16021790555060408201518160000160116101000a81548160ff021916908360ff160217905550505060196040518060600160405280620249f06fffffffffffffffffffffffffffffffff168152602001600160ff168152602001600260ff168152509080600181540180825580915050600190039060005260206000200160009091909190915060008201518160000160006101000a8154816fffffffffffffffffffffffffffffffff02191690836fffffffffffffffffffffffffffffffff16021790555060208201518160000160106101000a81548160ff021916908360ff16021790555060408201518160000160116101000a81548160ff021916908360ff1602179055505050600a60136002600681106200098857fe5b0181905550601960405180606001604052806213d6206fffffffffffffffffffffffffffffffff168152602001600260ff168152602001600060ff168152509080600181540180825580915050600190039060005260206000200160009091909190915060008201518160000160006101000a8154816fffffffffffffffffffffffffffffffff02191690836fffffffffffffffffffffffffffffffff16021790555060208201518160000160106101000a81548160ff021916908360ff16021790555060408201518160000160116101000a81548160ff021916908360ff1602179055505050601960405180606001604052806207a1206fffffffffffffffffffffffffffffffff168152602001600260ff168152602001600160ff168152509080600181540180825580915050600190039060005260206000200160009091909190915060008201518160000160006101000a8154816fffffffffffffffffffffffffffffffff02191690836fffffffffffffffffffffffffffffffff16021790555060208201518160000160106101000a81548160ff021916908360ff16021790555060408201518160000160116101000a81548160ff021916908360ff16021790555050506019604051806060016040528061c3506fffffffffffffffffffffffffffffffff168152602001600260ff168152602001600260ff168152509080600181540180825580915050600190039060005260206000200160009091909190915060008201518160000160006101000a8154816fffffffffffffffffffffffffffffffff02191690836fffffffffffffffffffffffffffffffff16021790555060208201518160000160106101000a81548160ff021916908360ff16021790555060408201518160000160116101000a81548160ff021916908360ff16021790555050506019601360036006811062000c4357fe5b0181905550601960405180606001604052806213babd6fffffffffffffffffffffffffffffffff168152602001600360ff168152602001600060ff168152509080600181540180825580915050600190039060005260206000200160009091909190915060008201518160000160006101000a8154816fffffffffffffffffffffffffffffffff02191690836fffffffffffffffffffffffffffffffff16021790555060208201518160000160106101000a81548160ff021916908360ff16021790555060408201518160000160116101000a81548160ff021916908360ff16021790555050506019604051806060016040528062061a806fffffffffffffffffffffffffffffffff168152602001600360ff168152602001600160ff168152509080600181540180825580915050600190039060005260206000200160009091909190915060008201518160000160006101000a8154816fffffffffffffffffffffffffffffffff02191690836fffffffffffffffffffffffffffffffff16021790555060208201518160000160106101000a81548160ff021916908360ff16021790555060408201518160000160116101000a81548160ff021916908360ff160217905550505060196040518060600160405280611b586fffffffffffffffffffffffffffffffff168152602001600360ff168152602001600260ff168152509080600181540180825580915050600190039060005260206000200160009091909190915060008201518160000160006101000a8154816fffffffffffffffffffffffffffffffff02191690836fffffffffffffffffffffffffffffffff16021790555060208201518160000160106101000a81548160ff021916908360ff16021790555060408201518160000160116101000a81548160ff021916908360ff16021790555050506032601360046006811062000efe57fe5b018190555060196040518060600160405280620aae606fffffffffffffffffffffffffffffffff168152602001600460ff168152602001600060ff168152509080600181540180825580915050600190039060005260206000200160009091909190915060008201518160000160006101000a8154816fffffffffffffffffffffffffffffffff02191690836fffffffffffffffffffffffffffffffff16021790555060208201518160000160106101000a81548160ff021916908360ff16021790555060408201518160000160116101000a81548160ff021916908360ff160217905550505060196040518060600160405280600a6fffffffffffffffffffffffffffffffff168152602001600460ff168152602001600160ff168152509080600181540180825580915050600190039060005260206000200160009091909190915060008201518160000160006101000a8154816fffffffffffffffffffffffffffffffff02191690836fffffffffffffffffffffffffffffffff16021790555060208201518160000160106101000a81548160ff021916908360ff16021790555060408201518160000160116101000a81548160ff021916908360ff1602179055505050605f6013600560068110620010d657fe5b018190555060196040518060600160405280620493e06fffffffffffffffffffffffffffffffff168152602001600560ff168152602001600060ff168152509080600181540180825580915050600190039060005260206000200160009091909190915060008201518160000160006101000a8154816fffffffffffffffffffffffffffffffff02191690836fffffffffffffffffffffffffffffffff16021790555060208201518160000160106101000a81548160ff021916908360ff16021790555060408201518160000160116101000a81548160ff021916908360ff16021790555050506019604051806060016040528060016fffffffffffffffffffffffffffffffff168152602001600560ff168152602001600160ff168152509080600181540180825580915050600190039060005260206000200160009091909190915060008201518160000160006101000a8154816fffffffffffffffffffffffffffffffff02191690836fffffffffffffffffffffffffffffffff16021790555060208201518160000160106101000a81548160ff021916908360ff16021790555060408201518160000160116101000a81548160ff021916908360ff16021790555050505050505062001467565b63ffffffff60e01b817bffffffffffffffffffffffffffffffffffffffffffffffffffffffff1916141562001344576040517f08c379a000000000000000000000000000000000000000000000000000000000815260040180806020018281038252601c8152602001807f4552433136353a20696e76616c696420696e746572666163652069640000000081525060200191505060405180910390fd5b6001806000837bffffffffffffffffffffffffffffffffffffffffffffffffffffffff19167bffffffffffffffffffffffffffffffffffffffffffffffffffffffff1916815260200190815260200160002060006101000a81548160ff02191690831515021790555050565b600033905090565b828054600181600116156101000203166002900490600052602060002090601f016020900481019282601f10620013fb57805160ff19168380011785556200142c565b828001600101855582156200142c579182015b828111156200142b5782518255916020019190600101906200140e565b5b5090506200143b91906200143f565b5090565b6200146491905b808211156200146057600081600090555060010162001446565b5090565b90565b60805160601c60a05160601c615074620014af600039806118c9528061240252508061127152806112ae5280611d2d52806123c65280612e405280612f5552506150746000f3fe608060405234801561001057600080fd5b50600436106101fb5760003560e01c80638da5cb5b1161011a578063b88d4fde116100ad578063dd418ae21161007c578063dd418ae214610bd3578063e985e9c514610c53578063f2caeb1e14610ccf578063f2fde38b14610d11578063f9afb26a14610d55576101fb565b8063b88d4fde14610988578063c87b56dd14610a8d578063cc33c87514610b34578063dc6cfe1014610b7d576101fb565b80639e317f12116100e95780639e317f1214610835578063a22cb46514610877578063a4c0ed36146108c7578063a6f7f5d61461096a576101fb565b80638da5cb5b1461071257806390a2d90e1461075c57806394985ddd1461077a57806395d89b41146107b2576101fb565b80633ccfd60b116101925780636352211e116101615780636352211e146105bf5780636c0360eb1461062d57806370a08231146106b0578063715018a614610708576101fb565b80633ccfd60b146104b057806342842e0e146104ba5780634f64b2be146105285780634f6ccce71461057d576101fb565b806318160ddd116101ce57806318160ddd146103a457806323b872dd146103c2578063283d314a146104305780632f745c591461044e576101fb565b806301ffc9a71461020057806306fdde0314610265578063081812fc146102e8578063095ea7b314610356575b600080fd5b61024b6004803603602081101561021657600080fd5b8101908080357bffffffffffffffffffffffffffffffffffffffffffffffffffffffff19169060200190929190505050610dce565b604051808215151515815260200191505060405180910390f35b61026d610e36565b6040518080602001828103825283818151815260200191508051906020019080838360005b838110156102ad578082015181840152602081019050610292565b50505050905090810190601f1680156102da5780820380516001836020036101000a031916815260200191505b509250505060405180910390f35b610314600480360360208110156102fe57600080fd5b8101908080359060200190929190505050610ed8565b604051808273ffffffffffffffffffffffffffffffffffffffff1673ffffffffffffffffffffffffffffffffffffffff16815260200191505060405180910390f35b6103a26004803603604081101561036c57600080fd5b81019080803573ffffffffffffffffffffffffffffffffffffffff16906020019092919080359060200190929190505050610f73565b005b6103ac6110b7565b6040518082815260200191505060405180910390f35b61042e600480360360608110156103d857600080fd5b81019080803573ffffffffffffffffffffffffffffffffffffffff169060200190929190803573ffffffffffffffffffffffffffffffffffffffff169060200190929190803590602001909291905050506110c8565b005b61043861113e565b6040518082815260200191505060405180910390f35b61049a6004803603604081101561046457600080fd5b81019080803573ffffffffffffffffffffffffffffffffffffffff1690602001909291908035906020019092919050505061114a565b6040518082815260200191505060405180910390f35b6104b86111a5565b005b610526600480360360608110156104d057600080fd5b81019080803573ffffffffffffffffffffffffffffffffffffffff169060200190929190803573ffffffffffffffffffffffffffffffffffffffff1690602001909291908035906020019092919050505061149c565b005b6105546004803603602081101561053e57600080fd5b81019080803590602001909291905050506114bc565b604051808360ff1660ff1681526020018260ff1660ff1681526020019250505060405180910390f35b6105a96004803603602081101561059357600080fd5b81019080803590602001909291905050506114fa565b6040518082815260200191505060405180910390f35b6105eb600480360360208110156105d557600080fd5b810190808035906020019092919050505061151d565b604051808273ffffffffffffffffffffffffffffffffffffffff1673ffffffffffffffffffffffffffffffffffffffff16815260200191505060405180910390f35b610635611554565b6040518080602001828103825283818151815260200191508051906020019080838360005b8381101561067557808201518184015260208101905061065a565b50505050905090810190601f1680156106a25780820380516001836020036101000a031916815260200191505b509250505060405180910390f35b6106f2600480360360208110156106c657600080fd5b81019080803573ffffffffffffffffffffffffffffffffffffffff1690602001909291905050506115f6565b6040518082815260200191505060405180910390f35b6107106116cb565b005b61071a611856565b604051808273ffffffffffffffffffffffffffffffffffffffff1673ffffffffffffffffffffffffffffffffffffffff16815260200191505060405180910390f35b610764611880565b6040518082815260200191505060405180910390f35b6107b06004803603604081101561079057600080fd5b8101908080359060200190929190803590602001909291905050506118c7565b005b6107ba611996565b6040518080602001828103825283818151815260200191508051906020019080838360005b838110156107fa5780820151818401526020810190506107df565b50505050905090810190601f1680156108275780820380516001836020036101000a031916815260200191505b509250505060405180910390f35b6108616004803603602081101561084b57600080fd5b8101908080359060200190929190505050611a38565b6040518082815260200191505060405180910390f35b6108c56004803603604081101561088d57600080fd5b81019080803573ffffffffffffffffffffffffffffffffffffffff169060200190929190803515159060200190929190505050611a50565b005b610968600480360360608110156108dd57600080fd5b81019080803573ffffffffffffffffffffffffffffffffffffffff169060200190929190803590602001909291908035906020019064010000000081111561092457600080fd5b82018360208201111561093657600080fd5b8035906020019184600183028401116401000000008311171561095857600080fd5b9091929391929390505050611c08565b005b610972611f9d565b6040518082815260200191505060405180910390f35b610a8b6004803603608081101561099e57600080fd5b81019080803573ffffffffffffffffffffffffffffffffffffffff169060200190929190803573ffffffffffffffffffffffffffffffffffffffff1690602001909291908035906020019092919080359060200190640100000000811115610a0557600080fd5b820183602082011115610a1757600080fd5b80359060200191846001830284011164010000000083111715610a3957600080fd5b91908080601f016020809104026020016040519081016040528093929190818152602001838380828437600081840152601f19601f820116905080830192505050505050509192919290505050611fa9565b005b610ab960048036036020811015610aa357600080fd5b8101908080359060200190929190505050612021565b6040518080602001828103825283818151815260200191508051906020019080838360005b83811015610af9578082015181840152602081019050610ade565b50505050905090810190601f168015610b265780820380516001836020036101000a031916815260200191505b509250505060405180910390f35b610b6060048036036020811015610b4a57600080fd5b810190808035906020019092919050505061230a565b604051808381526020018281526020019250505060405180910390f35b610bbd60048036036060811015610b9357600080fd5b810190808035906020019092919080359060200190929190803590602001909291905050506123c2565b6040518082815260200191505060405180910390f35b610bff60048036036020811015610be957600080fd5b81019080803590602001909291905050506125cd565b60405180846fffffffffffffffffffffffffffffffff166fffffffffffffffffffffffffffffffff1681526020018360ff1660ff1681526020018260ff1660ff168152602001935050505060405180910390f35b610cb560048036036040811015610c6957600080fd5b81019080803573ffffffffffffffffffffffffffffffffffffffff169060200190929190803573ffffffffffffffffffffffffffffffffffffffff169060200190929190505050612636565b604051808215151515815260200191505060405180910390f35b610cfb60048036036020811015610ce557600080fd5b81019080803590602001909291905050506126ca565b6040518082815260200191505060405180910390f35b610d5360048036036020811015610d2757600080fd5b81019080803573ffffffffffffffffffffffffffffffffffffffff1690602001909291905050506126e2565b005b610dcc60048036036020811015610d6b57600080fd5b8101908080359060200190640100000000811115610d8857600080fd5b820183602082011115610d9a57600080fd5b80359060200191846020830284011164010000000083111715610dbc57600080fd5b90919293919293905050506128f2565b005b600060016000837bffffffffffffffffffffffffffffffffffffffffffffffffffffffff19167bffffffffffffffffffffffffffffffffffffffffffffffffffffffff1916815260200190815260200160002060009054906101000a900460ff169050919050565b606060078054600181600116156101000203166002900480601f016020809104026020016040519081016040528092919081815260200182805460018160011615610100020316600290048015610ece5780601f10610ea357610100808354040283529160200191610ece565b820191906000526020600020905b815481529060010190602001808311610eb157829003601f168201915b5050505050905090565b6000610ee382613108565b610f38576040517f08c379a000000000000000000000000000000000000000000000000000000000815260040180806020018281038252602c815260200180614f21602c913960400191505060405180910390fd5b6005600083815260200190815260200160002060009054906101000a900473ffffffffffffffffffffffffffffffffffffffff169050919050565b6000610f7e8261151d565b90508073ffffffffffffffffffffffffffffffffffffffff168373ffffffffffffffffffffffffffffffffffffffff161415611005576040517f08c379a0000000000000000000000000000000000000000000000000000000008152600401808060200182810382526021815260200180614fc66021913960400191505060405180910390fd5b8073ffffffffffffffffffffffffffffffffffffffff16611024613125565b73ffffffffffffffffffffffffffffffffffffffff16148061105357506110528161104d613125565b612636565b5b6110a8576040517f08c379a0000000000000000000000000000000000000000000000000000000008152600401808060200182810382526038815260200180614e536038913960400191505060405180910390fd5b6110b2838361312d565b505050565b60006110c360036131e6565b905090565b6110d96110d3613125565b826131fb565b61112e576040517f08c379a0000000000000000000000000000000000000000000000000000000008152600401808060200182810382526031815260200180614fe76031913960400191505060405180910390fd5b6111398383836132ef565b505050565b6706f05b59d3b2000081565b600061119d82600260008673ffffffffffffffffffffffffffffffffffffffff1673ffffffffffffffffffffffffffffffffffffffff16815260200190815260200160002061353290919063ffffffff16565b905092915050565b6111ad613125565b73ffffffffffffffffffffffffffffffffffffffff16600b60009054906101000a900473ffffffffffffffffffffffffffffffffffffffff1673ffffffffffffffffffffffffffffffffffffffff161461126f576040517f08c379a00000000000000000000000000000000000000000000000000000000081526004018080602001828103825260208152602001807f4f776e61626c653a2063616c6c6572206973206e6f7420746865206f776e657281525060200191505060405180910390fd5b7f000000000000000000000000000000000000000000000000000000000000000073ffffffffffffffffffffffffffffffffffffffff1663a9059cbb337f000000000000000000000000000000000000000000000000000000000000000073ffffffffffffffffffffffffffffffffffffffff166370a08231306040518263ffffffff1660e01b8152600401808273ffffffffffffffffffffffffffffffffffffffff1673ffffffffffffffffffffffffffffffffffffffff16815260200191505060206040518083038186803b15801561134957600080fd5b505afa15801561135d573d6000803e3d6000fd5b505050506040513d602081101561137357600080fd5b81019080805190602001909291905050506040518363ffffffff1660e01b8152600401808373ffffffffffffffffffffffffffffffffffffffff1673ffffffffffffffffffffffffffffffffffffffff16815260200182815260200192505050602060405180830381600087803b1580156113ed57600080fd5b505af1158015611401573d6000803e3d6000fd5b505050506040513d602081101561141757600080fd5b810190808051906020019092919050505061149a576040517f08c379a00000000000000000000000000000000000000000000000000000000081526004018080602001828103825260188152602001807f36454c454d454e543a207472616e73666572206572726f72000000000000000081525060200191505060405180910390fd5b565b6114b783838360405180602001604052806000815250611fa9565b505050565b60106020528060005260406000206000915090508060000160009054906101000a900460ff16908060000160019054906101000a900460ff16905082565b60008061151183600361354c90919063ffffffff16565b50905080915050919050565b600061154d82604051806060016040528060298152602001614eb560299139600361357b9092919063ffffffff16565b9050919050565b6060600a8054600181600116156101000203166002900480601f0160208091040260200160405190810160405280929190818152602001828054600181600116156101000203166002900480156115ec5780601f106115c1576101008083540402835291602001916115ec565b820191906000526020600020905b8154815290600101906020018083116115cf57829003601f168201915b5050505050905090565b60008073ffffffffffffffffffffffffffffffffffffffff168273ffffffffffffffffffffffffffffffffffffffff16141561167d576040517f08c379a000000000000000000000000000000000000000000000000000000000815260040180806020018281038252602a815260200180614e8b602a913960400191505060405180910390fd5b6116c4600260008473ffffffffffffffffffffffffffffffffffffffff1673ffffffffffffffffffffffffffffffffffffffff16815260200190815260200160002061359a565b9050919050565b6116d3613125565b73ffffffffffffffffffffffffffffffffffffffff16600b60009054906101000a900473ffffffffffffffffffffffffffffffffffffffff1673ffffffffffffffffffffffffffffffffffffffff1614611795576040517f08c379a00000000000000000000000000000000000000000000000000000000081526004018080602001828103825260208152602001807f4f776e61626c653a2063616c6c6572206973206e6f7420746865206f776e657281525060200191505060405180910390fd5b600073ffffffffffffffffffffffffffffffffffffffff16600b60009054906101000a900473ffffffffffffffffffffffffffffffffffffffff1673ffffffffffffffffffffffffffffffffffffffff167f8be0079c531659141344cd1fd0a4f28419497f9722a3daafe3b4186f6b6457e060405160405180910390a36000600b60006101000a81548173ffffffffffffffffffffffffffffffffffffffff021916908373ffffffffffffffffffffffffffffffffffffffff160217905550565b6000600b60009054906101000a900473ffffffffffffffffffffffffffffffffffffffff16905090565b6000601260003373ffffffffffffffffffffffffffffffffffffffff1673ffffffffffffffffffffffffffffffffffffffff16815260200190815260200160002054905090565b7f000000000000000000000000000000000000000000000000000000000000000073ffffffffffffffffffffffffffffffffffffffff163373ffffffffffffffffffffffffffffffffffffffff1614611988576040517f08c379a000000000000000000000000000000000000000000000000000000000815260040180806020018281038252601f8152602001807f4f6e6c7920565246436f6f7264696e61746f722063616e2066756c66696c6c0081525060200191505060405180910390fd5b61199282826135af565b5050565b606060088054600181600116156101000203166002900480601f016020809104026020016040519081016040528092919081815260200182805460018160011615610100020316600290048015611a2e5780601f10611a0357610100808354040283529160200191611a2e565b820191906000526020600020905b815481529060010190602001808311611a1157829003601f168201915b5050505050905090565b60006020528060005260406000206000915090505481565b611a58613125565b73ffffffffffffffffffffffffffffffffffffffff168273ffffffffffffffffffffffffffffffffffffffff161415611af9576040517f08c379a00000000000000000000000000000000000000000000000000000000081526004018080602001828103825260198152602001807f4552433732313a20617070726f766520746f2063616c6c65720000000000000081525060200191505060405180910390fd5b8060066000611b06613125565b73ffffffffffffffffffffffffffffffffffffffff1673ffffffffffffffffffffffffffffffffffffffff16815260200190815260200160002060008473ffffffffffffffffffffffffffffffffffffffff1673ffffffffffffffffffffffffffffffffffffffff16815260200190815260200160002060006101000a81548160ff0219169083151502179055508173ffffffffffffffffffffffffffffffffffffffff16611bb3613125565b73ffffffffffffffffffffffffffffffffffffffff167f17307eab39ab6107e8899845ad3d59bd9653f200f220920489ca2b5937696c3183604051808215151515815260200191505060405180910390a35050565b600c60009054906101000a900473ffffffffffffffffffffffffffffffffffffffff1673ffffffffffffffffffffffffffffffffffffffff163373ffffffffffffffffffffffffffffffffffffffff1614611cae576040517f08c379a00000000000000000000000000000000000000000000000000000000081526004018080602001828103825260278152602001806150186027913960400191505060405180910390fd5b6706f05b59d3b200008314611d2b576040517f08c379a00000000000000000000000000000000000000000000000000000000081526004018080602001828103825260198152602001807f36454c454d454e543a204e6f7420656e6f756768204c494e4b0000000000000081525060200191505060405180910390fd5b7f000000000000000000000000000000000000000000000000000000000000000073ffffffffffffffffffffffffffffffffffffffff1663a9059cbb611d6f611856565b67016345785d8a00006040518363ffffffff1660e01b8152600401808373ffffffffffffffffffffffffffffffffffffffff1673ffffffffffffffffffffffffffffffffffffffff16815260200182815260200192505050602060405180830381600087803b158015611de157600080fd5b505af1158015611df5573d6000803e3d6000fd5b505050506040513d6020811015611e0b57600080fd5b8101908080519060200190929190505050611e8e576040517f08c379a00000000000000000000000000000000000000000000000000000000081526004018080602001828103825260188152602001807f36454c454d454e543a207472616e73666572206572726f72000000000000000081525060200191505060405180910390fd5b6000600143034060001c90506000611eab600d54600e54846123c2565b9050856011600083815260200190815260200160002060006101000a81548173ffffffffffffffffffffffffffffffffffffffff021916908373ffffffffffffffffffffffffffffffffffffffff160217905550611f526002601260003373ffffffffffffffffffffffffffffffffffffffff1673ffffffffffffffffffffffffffffffffffffffff1681526020019081526020016000205461379190919063ffffffff16565b601260003373ffffffffffffffffffffffffffffffffffffffff1673ffffffffffffffffffffffffffffffffffffffff16815260200190815260200160002081905550505050505050565b67016345785d8a000081565b611fba611fb4613125565b836131fb565b61200f576040517f08c379a0000000000000000000000000000000000000000000000000000000008152600401808060200182810382526031815260200180614fe76031913960400191505060405180910390fd5b61201b84848484613819565b50505050565b606061202c82613108565b612081576040517f08c379a000000000000000000000000000000000000000000000000000000000815260040180806020018281038252602f815260200180614f76602f913960400191505060405180910390fd5b6060600960008481526020019081526020016000208054600181600116156101000203166002900480601f01602080910402602001604051908101604052809291908181526020018280546001816001161561010002031660029004801561212a5780601f106120ff5761010080835404028352916020019161212a565b820191906000526020600020905b81548152906001019060200180831161210d57829003601f168201915b505050505090506000600a80546001816001161561010002031660029004905014156121595780915050612305565b60008151111561223257600a8160405160200180838054600181600116156101000203166002900480156121c45780601f106121a25761010080835404028352918201916121c4565b820191906000526020600020905b8154815290600101906020018083116121b0575b505082805190602001908083835b602083106121f557805182526020820191506020810190506020830392506121d2565b6001836020036101000a03801982511681845116808217855250505050505090500192505050604051602081830303815290604052915050612305565b600a61223d8461388b565b604051602001808380546001816001161561010002031660029004801561229b5780601f1061227957610100808354040283529182019161229b565b820191906000526020600020905b815481529060010190602001808311612287575b505082805190602001908083835b602083106122cc57805182526020820191506020810190506020830392506122a9565b6001836020036101000a038019825116818451168082178552505050505050905001925050506040516020818303038152906040529150505b919050565b60008061231683613108565b61236b576040517f08c379a000000000000000000000000000000000000000000000000000000000815260040180806020018281038252602f815260200180614f76602f913960400191505060405180910390fd5b6010600084815260200190815260200160002060000160009054906101000a900460ff1660ff1691506010600084815260200190815260200160002060000160019054906101000a900460ff1660ff169050915091565b60007f000000000000000000000000000000000000000000000000000000000000000073ffffffffffffffffffffffffffffffffffffffff16634000aea07f000000000000000000000000000000000000000000000000000000000000000085878660405160200180838152602001828152602001925050506040516020818303038152906040526040518463ffffffff1660e01b8152600401808473ffffffffffffffffffffffffffffffffffffffff1673ffffffffffffffffffffffffffffffffffffffff16815260200183815260200180602001828103825283818151815260200191508051906020019080838360005b838110156124d15780820151818401526020810190506124b6565b50505050905090810190601f1680156124fe5780820380516001836020036101000a031916815260200191505b50945050505050602060405180830381600087803b15801561251f57600080fd5b505af1158015612533573d6000803e3d6000fd5b505050506040513d602081101561254957600080fd5b810190808051906020019092919050505050600061257b8584306000808a8152602001908152602001600020546139d2565b90506125a360016000808881526020019081526020016000205461379190919063ffffffff16565b600080878152602001908152602001600020819055506125c38582613a4c565b9150509392505050565b601981815481106125da57fe5b906000526020600020016000915090508060000160009054906101000a90046fffffffffffffffffffffffffffffffff16908060000160109054906101000a900460ff16908060000160119054906101000a900460ff16905083565b6000600660008473ffffffffffffffffffffffffffffffffffffffff1673ffffffffffffffffffffffffffffffffffffffff16815260200190815260200160002060008373ffffffffffffffffffffffffffffffffffffffff1673ffffffffffffffffffffffffffffffffffffffff16815260200190815260200160002060009054906101000a900460ff16905092915050565b601381600681106126d757fe5b016000915090505481565b6126ea613125565b73ffffffffffffffffffffffffffffffffffffffff16600b60009054906101000a900473ffffffffffffffffffffffffffffffffffffffff1673ffffffffffffffffffffffffffffffffffffffff16146127ac576040517f08c379a00000000000000000000000000000000000000000000000000000000081526004018080602001828103825260208152602001807f4f776e61626c653a2063616c6c6572206973206e6f7420746865206f776e657281525060200191505060405180910390fd5b600073ffffffffffffffffffffffffffffffffffffffff168173ffffffffffffffffffffffffffffffffffffffff161415612832576040517f08c379a0000000000000000000000000000000000000000000000000000000008152600401808060200182810382526026815260200180614ddd6026913960400191505060405180910390fd5b8073ffffffffffffffffffffffffffffffffffffffff16600b60009054906101000a900473ffffffffffffffffffffffffffffffffffffffff1673ffffffffffffffffffffffffffffffffffffffff167f8be0079c531659141344cd1fd0a4f28419497f9722a3daafe3b4186f6b6457e060405160405180910390a380600b60006101000a81548173ffffffffffffffffffffffffffffffffffffffff021916908373ffffffffffffffffffffffffffffffffffffffff16021790555050565b3373ffffffffffffffffffffffffffffffffffffffff166129258383600081811061291957fe5b9050602002013561151d565b73ffffffffffffffffffffffffffffffffffffffff16146129ae576040517f08c379a000000000000000000000000000000000000000000000000000000000815260040180806020018281038252601b8152602001807f36454c454d454e543a20796f7520617265206e6f74206f776e6572000000000081525060200191505060405180910390fd5b600060106000848460008181106129c157fe5b90506020020135815260200190815260200160002060000160009054906101000a900460ff1690506129f1614cf9565b60048260ff161015612a7b5760038484905014612a76576040517f08c379a000000000000000000000000000000000000000000000000000000000815260040180806020018281038252601a8152602001807f36454c454d454e543a20696e76616c696420696420636f756e7400000000000081525060200191505060405180910390fd5b612b13565b60028484905014612af4576040517f08c379a000000000000000000000000000000000000000000000000000000000815260040180806020018281038252601a8152602001807f36454c454d454e543a20696e76616c696420696420636f756e7400000000000081525060200191505060405180910390fd5b600181600260038110612b0357fe5b6020020190151590811515815250505b6001816010600087876000818110612b2757fe5b90506020020135815260200190815260200160002060000160019054906101000a900460ff1660ff1660038110612b5a57fe5b6020020190151590811515815250506000600190505b848490508160ff161015612d54573373ffffffffffffffffffffffffffffffffffffffff16612bb386868460ff16818110612ba757fe5b9050602002013561151d565b73ffffffffffffffffffffffffffffffffffffffff1614612c3c576040517f08c379a000000000000000000000000000000000000000000000000000000000815260040180806020018281038252601b8152602001807f36454c454d454e543a20796f7520617265206e6f74206f776e6572000000000081525060200191505060405180910390fd5b6010600086868460ff16818110612c4f57fe5b90506020020135815260200190815260200160002060000160009054906101000a900460ff1660ff168360ff1614612cef576040517f08c379a000000000000000000000000000000000000000000000000000000000815260040180806020018281038252601a8152602001807f36454c454d454e543a20696e76616c696420746f6b656e20696400000000000081525060200191505060405180910390fd5b6001826010600088888660ff16818110612d0557fe5b90506020020135815260200190815260200160002060000160019054906101000a900460ff1660ff1660038110612d3857fe5b6020020190151590811515815250508080600101915050612b70565b5060008090505b60038160ff161015612e015760011515828260ff1660038110612d7a57fe5b6020020151151514612df4576040517f08c379a000000000000000000000000000000000000000000000000000000000815260040180806020018281038252601a8152602001807f36454c454d454e543a20696e76616c696420746f6b656e20696400000000000081525060200191505060405180910390fd5b8080600101915050612d5b565b5060008090505b84849050811015612e3b57612e2e858583818110612e2257fe5b90506020020135613a85565b8080600101915050612e08565b5060007f000000000000000000000000000000000000000000000000000000000000000073ffffffffffffffffffffffffffffffffffffffff166370a08231306040518263ffffffff1660e01b8152600401808273ffffffffffffffffffffffffffffffffffffffff1673ffffffffffffffffffffffffffffffffffffffff16815260200191505060206040518083038186803b158015612edb57600080fd5b505afa158015612eef573d6000803e3d6000fd5b505050506040513d6020811015612f0557600080fd5b810190808051906020019092919050505090506000612f516064612f4360138760ff1660068110612f3257fe5b015485613bbf90919063ffffffff16565b613c4590919063ffffffff16565b90507f000000000000000000000000000000000000000000000000000000000000000073ffffffffffffffffffffffffffffffffffffffff1663a9059cbb33836040518363ffffffff1660e01b8152600401808373ffffffffffffffffffffffffffffffffffffffff1673ffffffffffffffffffffffffffffffffffffffff16815260200182815260200192505050602060405180830381600087803b158015612ffa57600080fd5b505af115801561300e573d6000803e3d6000fd5b505050506040513d602081101561302457600080fd5b81019080805190602001909291905050506130a7576040517f08c379a00000000000000000000000000000000000000000000000000000000081526004018080602001828103825260188152602001807f36454c454d454e543a207472616e73666572206572726f72000000000000000081525060200191505060405180910390fd5b3373ffffffffffffffffffffffffffffffffffffffff167fe5b754fb1abb7f01b499791d0b820ae3b6af3424ac1c59768edb53f4ec31a9298583604051808360ff1681526020018281526020019250505060405180910390a2505050505050565b600061311e826003613c8f90919063ffffffff16565b9050919050565b600033905090565b816005600083815260200190815260200160002060006101000a81548173ffffffffffffffffffffffffffffffffffffffff021916908373ffffffffffffffffffffffffffffffffffffffff160217905550808273ffffffffffffffffffffffffffffffffffffffff166131a08361151d565b73ffffffffffffffffffffffffffffffffffffffff167f8c5be1e5ebec7d5bd14f71427d1e84f3dd0314c0f7b2291e5b200ac8c7c3b92560405160405180910390a45050565b60006131f482600001613ca9565b9050919050565b600061320682613108565b61325b576040517f08c379a000000000000000000000000000000000000000000000000000000000815260040180806020018281038252602c815260200180614e27602c913960400191505060405180910390fd5b60006132668361151d565b90508073ffffffffffffffffffffffffffffffffffffffff168473ffffffffffffffffffffffffffffffffffffffff1614806132d557508373ffffffffffffffffffffffffffffffffffffffff166132bd84610ed8565b73ffffffffffffffffffffffffffffffffffffffff16145b806132e657506132e58185612636565b5b91505092915050565b8273ffffffffffffffffffffffffffffffffffffffff1661330f8261151d565b73ffffffffffffffffffffffffffffffffffffffff161461337b576040517f08c379a0000000000000000000000000000000000000000000000000000000008152600401808060200182810382526029815260200180614f4d6029913960400191505060405180910390fd5b600073ffffffffffffffffffffffffffffffffffffffff168273ffffffffffffffffffffffffffffffffffffffff161415613401576040517f08c379a0000000000000000000000000000000000000000000000000000000008152600401808060200182810382526024815260200180614e036024913960400191505060405180910390fd5b61340c838383613cba565b61341760008261312d565b61346881600260008673ffffffffffffffffffffffffffffffffffffffff1673ffffffffffffffffffffffffffffffffffffffff168152602001908152602001600020613cbf90919063ffffffff16565b506134ba81600260008573ffffffffffffffffffffffffffffffffffffffff1673ffffffffffffffffffffffffffffffffffffffff168152602001908152602001600020613cd990919063ffffffff16565b506134d181836003613cf39092919063ffffffff16565b50808273ffffffffffffffffffffffffffffffffffffffff168473ffffffffffffffffffffffffffffffffffffffff167fddf252ad1be2c89b69c2b068fc378daa952ba7f163c4a11628f55a4df523b3ef60405160405180910390a4505050565b60006135418360000183613d28565b60001c905092915050565b60008060008061355f8660000186613dab565b915091508160001c8160001c8090509350935050509250929050565b600061358e846000018460001b84613e44565b60001c90509392505050565b60006135a882600001613f3a565b9050919050565b60006011600084815260200190815260200160002060009054906101000a900473ffffffffffffffffffffffffffffffffffffffff1690506000806135f384613f4b565b915091506136018282614099565b61360d83600f54614112565b600f6000815480929190600101919050555060008061365486604051602001808281526020019150506040516020818303038152906040528051906020012060001c613f4b565b915091506136628282614099565b61366e85600f54614112565b600f600081548092919060010191905055506136d36002601260003373ffffffffffffffffffffffffffffffffffffffff1673ffffffffffffffffffffffffffffffffffffffff1681526020019081526020016000205461430690919063ffffffff16565b601260003373ffffffffffffffffffffffffffffffffffffffff1673ffffffffffffffffffffffffffffffffffffffff168152602001908152602001600020819055508473ffffffffffffffffffffffffffffffffffffffff167fb8825fb708f9eda380d406826b16913c475d01019f8cecab77dd45da0b8f336585858585604051808560ff1681526020018460ff1681526020018360ff1681526020018260ff16815260200194505050505060405180910390a250505050505050565b60008082840190508381101561380f576040517f08c379a000000000000000000000000000000000000000000000000000000000815260040180806020018281038252601b8152602001807f536166654d6174683a206164646974696f6e206f766572666c6f77000000000081525060200191505060405180910390fd5b8091505092915050565b6138248484846132ef565b61383084848484614350565b613885576040517f08c379a0000000000000000000000000000000000000000000000000000000008152600401808060200182810382526032815260200180614dab6032913960400191505060405180910390fd5b50505050565b606060008214156138d3576040518060400160405280600181526020017f300000000000000000000000000000000000000000000000000000000000000081525090506139cd565b600082905060005b600082146138fd578080600101915050600a82816138f557fe5b0491506138db565b60608167ffffffffffffffff8111801561391657600080fd5b506040519080825280601f01601f1916602001820160405280156139495781602001600182028036833780820191505090505b50905060006001830390508593505b600084146139c557600a848161396a57fe5b0660300160f81b8282806001900393508151811061398457fe5b60200101907effffffffffffffffffffffffffffffffffffffffffffffffffffffffffffff1916908160001a905350600a84816139bd57fe5b049350613958565b819450505050505b919050565b600084848484604051602001808581526020018481526020018373ffffffffffffffffffffffffffffffffffffffff1673ffffffffffffffffffffffffffffffffffffffff1681526020018281526020019450505050506040516020818303038152906040528051906020012060001c9050949350505050565b60008282604051602001808381526020018281526020019250505060405160208183030381529060405280519060200120905092915050565b6000613a908261151d565b9050613a9e81600084613cba565b613aa960008361312d565b60006009600084815260200190815260200160002080546001816001161561010002031660029004905014613af857600960008381526020019081526020016000206000613af79190614d1b565b5b613b4982600260008473ffffffffffffffffffffffffffffffffffffffff1673ffffffffffffffffffffffffffffffffffffffff168152602001908152602001600020613cbf90919063ffffffff16565b50613b5e82600361459590919063ffffffff16565b5081600073ffffffffffffffffffffffffffffffffffffffff168273ffffffffffffffffffffffffffffffffffffffff167fddf252ad1be2c89b69c2b068fc378daa952ba7f163c4a11628f55a4df523b3ef60405160405180910390a45050565b600080831415613bd25760009050613c3f565b6000828402905082848281613be357fe5b0414613c3a576040517f08c379a0000000000000000000000000000000000000000000000000000000008152600401808060200182810382526021815260200180614f006021913960400191505060405180910390fd5b809150505b92915050565b6000613c8783836040518060400160405280601a81526020017f536166654d6174683a206469766973696f6e206279207a65726f0000000000008152506145af565b905092915050565b6000613ca1836000018360001b614675565b905092915050565b600081600001805490509050919050565b505050565b6000613cd1836000018360001b614698565b905092915050565b6000613ceb836000018360001b614780565b905092915050565b6000613d1f846000018460001b8473ffffffffffffffffffffffffffffffffffffffff1660001b6147f0565b90509392505050565b600081836000018054905011613d89576040517f08c379a0000000000000000000000000000000000000000000000000000000008152600401808060200182810382526022815260200180614d896022913960400191505060405180910390fd5b826000018281548110613d9857fe5b9060005260206000200154905092915050565b60008082846000018054905011613e0d576040517f08c379a0000000000000000000000000000000000000000000000000000000008152600401808060200182810382526022815260200180614ede6022913960400191505060405180910390fd5b6000846000018481548110613e1e57fe5b906000526020600020906002020190508060000154816001015492509250509250929050565b60008084600101600085815260200190815260200160002054905060008114158390613f0b576040517f08c379a00000000000000000000000000000000000000000000000000000000081526004018080602001828103825283818151815260200191508051906020019080838360005b83811015613ed0578082015181840152602081019050613eb5565b50505050905090810190601f168015613efd5780820380516001836020036101000a031916815260200191505b509250505060405180910390fd5b50846000016001820381548110613f1e57fe5b9060005260206000209060020201600101549150509392505050565b600081600001805490509050919050565b6000806000629896808481613f5c57fe5b069050600080600090505b60198054905081101561404257613fcf60198281548110613f8457fe5b9060005260206000200160000160009054906101000a90046fffffffffffffffffffffffffffffffff166fffffffffffffffffffffffffffffffff168361379190919063ffffffff16565b9150818310156140355760198181548110613fe657fe5b9060005260206000200160000160109054906101000a900460ff166019828154811061400e57fe5b9060005260206000200160000160119054906101000a900460ff1694509450505050614094565b8080600101915050613f67565b506040517f08c379a0000000000000000000000000000000000000000000000000000000008152600401808060200182810382526021815260200180614fa56021913960400191505060405180910390fd5b915091565b60405180604001604052808360ff1681526020018260ff1681525060106000600f54815260200190815260200160002060008201518160000160006101000a81548160ff021916908360ff16021790555060208201518160000160016101000a81548160ff021916908360ff1602179055509050505050565b600073ffffffffffffffffffffffffffffffffffffffff168273ffffffffffffffffffffffffffffffffffffffff1614156141b5576040517f08c379a00000000000000000000000000000000000000000000000000000000081526004018080602001828103825260208152602001807f4552433732313a206d696e7420746f20746865207a65726f206164647265737381525060200191505060405180910390fd5b6141be81613108565b15614231576040517f08c379a000000000000000000000000000000000000000000000000000000000815260040180806020018281038252601c8152602001807f4552433732313a20746f6b656e20616c7265616479206d696e7465640000000081525060200191505060405180910390fd5b61423d60008383613cba565b61428e81600260008573ffffffffffffffffffffffffffffffffffffffff1673ffffffffffffffffffffffffffffffffffffffff168152602001908152602001600020613cd990919063ffffffff16565b506142a581836003613cf39092919063ffffffff16565b50808273ffffffffffffffffffffffffffffffffffffffff16600073ffffffffffffffffffffffffffffffffffffffff167fddf252ad1be2c89b69c2b068fc378daa952ba7f163c4a11628f55a4df523b3ef60405160405180910390a45050565b600061434883836040518060400160405280601e81526020017f536166654d6174683a207375627472616374696f6e206f766572666c6f7700008152506148cc565b905092915050565b60006143718473ffffffffffffffffffffffffffffffffffffffff1661498c565b61437e576001905061458d565b606061451463150b7a0260e01b614393613125565b888787604051602401808573ffffffffffffffffffffffffffffffffffffffff1673ffffffffffffffffffffffffffffffffffffffff1681526020018473ffffffffffffffffffffffffffffffffffffffff1673ffffffffffffffffffffffffffffffffffffffff16815260200183815260200180602001828103825283818151815260200191508051906020019080838360005b83811015614443578082015181840152602081019050614428565b50505050905090810190601f1680156144705780820380516001836020036101000a031916815260200191505b5095505050505050604051602081830303815290604052907bffffffffffffffffffffffffffffffffffffffffffffffffffffffff19166020820180517bffffffffffffffffffffffffffffffffffffffffffffffffffffffff8381831617835250505050604051806060016040528060328152602001614dab603291398773ffffffffffffffffffffffffffffffffffffffff1661499f9092919063ffffffff16565b9050600081806020019051602081101561452d57600080fd5b8101908080519060200190929190505050905063150b7a0260e01b7bffffffffffffffffffffffffffffffffffffffffffffffffffffffff1916817bffffffffffffffffffffffffffffffffffffffffffffffffffffffff191614925050505b949350505050565b60006145a7836000018360001b6149b7565b905092915050565b6000808311829061465b576040517f08c379a00000000000000000000000000000000000000000000000000000000081526004018080602001828103825283818151815260200191508051906020019080838360005b83811015614620578082015181840152602081019050614605565b50505050905090810190601f16801561464d5780820380516001836020036101000a031916815260200191505b509250505060405180910390fd5b50600083858161466757fe5b049050809150509392505050565b600080836001016000848152602001908152602001600020541415905092915050565b6000808360010160008481526020019081526020016000205490506000811461477457600060018203905060006001866000018054905003905060008660000182815481106146e357fe5b906000526020600020015490508087600001848154811061470057fe5b906000526020600020018190555060018301876001016000838152602001908152602001600020819055508660000180548061473857fe5b6001900381819060005260206000200160009055905586600101600087815260200190815260200160002060009055600194505050505061477a565b60009150505b92915050565b600061478c8383614ad0565b6147e55782600001829080600181540180825580915050600190039060005260206000200160009091909190915055826000018054905083600101600084815260200190815260200160002081905550600190506147ea565b600090505b92915050565b6000808460010160008581526020019081526020016000205490506000811415614897578460000160405180604001604052808681526020018581525090806001815401808255809150506001900390600052602060002090600202016000909190919091506000820151816000015560208201518160010155505084600001805490508560010160008681526020019081526020016000208190555060019150506148c5565b828560000160018303815481106148aa57fe5b90600052602060002090600202016001018190555060009150505b9392505050565b6000838311158290614979576040517f08c379a00000000000000000000000000000000000000000000000000000000081526004018080602001828103825283818151815260200191508051906020019080838360005b8381101561493e578082015181840152602081019050614923565b50505050905090810190601f16801561496b5780820380516001836020036101000a031916815260200191505b509250505060405180910390fd5b5060008385039050809150509392505050565b600080823b905060008111915050919050565b60606149ae8484600085614af3565b90509392505050565b60008083600101600084815260200190815260200160002054905060008114614ac45760006001820390506000600186600001805490500390506000866000018281548110614a0257fe5b9060005260206000209060020201905080876000018481548110614a2257fe5b9060005260206000209060020201600082015481600001556001820154816001015590505060018301876001016000836000015481526020019081526020016000208190555086600001805480614a7557fe5b6001900381819060005260206000209060020201600080820160009055600182016000905550509055866001016000878152602001908152602001600020600090556001945050505050614aca565b60009150505b92915050565b600080836001016000848152602001908152602001600020541415905092915050565b6060614afe8561498c565b614b70576040517f08c379a000000000000000000000000000000000000000000000000000000000815260040180806020018281038252601d8152602001807f416464726573733a2063616c6c20746f206e6f6e2d636f6e747261637400000081525060200191505060405180910390fd5b600060608673ffffffffffffffffffffffffffffffffffffffff1685876040518082805190602001908083835b60208310614bc05780518252602082019150602081019050602083039250614b9d565b6001836020036101000a03801982511681845116808217855250505050505090500191505060006040518083038185875af1925050503d8060008114614c22576040519150601f19603f3d011682016040523d82523d6000602084013e614c27565b606091505b50915091508115614c3c578092505050614cf1565b600081511115614c4f5780518082602001fd5b836040517f08c379a00000000000000000000000000000000000000000000000000000000081526004018080602001828103825283818151815260200191508051906020019080838360005b83811015614cb6578082015181840152602081019050614c9b565b50505050905090810190601f168015614ce35780820380516001836020036101000a031916815260200191505b509250505060405180910390fd5b949350505050565b6040518060600160405280600390602082028036833780820191505090505090565b50805460018160011615610100020316600290046000825580601f10614d415750614d60565b601f016020900490600052602060002090810190614d5f9190614d63565b5b50565b614d8591905b80821115614d81576000816000905550600101614d69565b5090565b9056fe456e756d657261626c655365743a20696e646578206f7574206f6620626f756e64734552433732313a207472616e7366657220746f206e6f6e20455243373231526563656976657220696d706c656d656e7465724f776e61626c653a206e6577206f776e657220697320746865207a65726f20616464726573734552433732313a207472616e7366657220746f20746865207a65726f20616464726573734552433732313a206f70657261746f7220717565727920666f72206e6f6e6578697374656e7420746f6b656e4552433732313a20617070726f76652063616c6c6572206973206e6f74206f776e6572206e6f7220617070726f76656420666f7220616c6c4552433732313a2062616c616e636520717565727920666f7220746865207a65726f20616464726573734552433732313a206f776e657220717565727920666f72206e6f6e6578697374656e7420746f6b656e456e756d657261626c654d61703a20696e646578206f7574206f6620626f756e6473536166654d6174683a206d756c7469706c69636174696f6e206f766572666c6f774552433732313a20617070726f76656420717565727920666f72206e6f6e6578697374656e7420746f6b656e4552433732313a207472616e73666572206f6620746f6b656e2074686174206973206e6f74206f776e4552433732314d657461646174613a2055524920717565727920666f72206e6f6e6578697374656e7420746f6b656e36454c454d454e543a2053656c656374696e6720656c656d656e74206572726f724552433732313a20617070726f76616c20746f2063757272656e74206f776e65724552433732313a207472616e736665722063616c6c6572206973206e6f74206f776e6572206e6f7220617070726f76656436454c454d454e543a204f6e6c79204c494e4b20746f6b656e2069732061636365707461626c65a2646970667358221220a6503e41811d57a7c44785aa7a9d782ffd9dae6517c0078c909ce019c937437764736f6c63430006060033",
  "immutableReferences": {
    "1456": [
      {
        "length": 32,
        "start": 4721
      },
      {
        "length": 32,
        "start": 4782
      },
      {
        "length": 32,
        "start": 7469
      },
      {
        "length": 32,
        "start": 9158
      },
      {
        "length": 32,
        "start": 11840
      },
      {
        "length": 32,
        "start": 12117
      }
    ],
    "1458": [
      {
        "length": 32,
        "start": 6345
      },
      {
        "length": 32,
        "start": 9218
      }
    ]
  },
  "source": "// SPDX-License-Identifier: MIT\npragma solidity >=0.4.21 <0.7.0;\n\n// import \"@chainlink/contracts/src/v0.6/VRFConsumerBase.sol\";\nimport './chainlink/VRFConsumerBase.sol'; // prevent to load double safemath\nimport '@openzeppelin/contracts/token/ERC721/ERC721.sol';\nimport '@openzeppelin/contracts/access/Ownable.sol';\n\ncontract SixElements is VRFConsumerBase, ERC721, Ownable {\n  address private link;\n  bytes32 private keyHash;\n  uint256 private fee;\n  uint256 private _tokenId;\n  uint256 public constant playFee = 0.5 * (10**18);\n  uint256 public constant managementFee = 0.1 * (10**18);\n\n  mapping(uint256 => Token) public tokens;\n  mapping(bytes32 => address) private _receivers;\n  mapping(address => uint256) private _generating;\n  uint256[6] public rewardRates;\n  Rate[] public rates;\n\n  struct Rate {\n    uint128 number;\n    uint8 element;\n    uint8 rank;\n  }\n\n  struct Token {\n    uint8 element;\n    uint8 rank;\n  }\n\n  struct BurnToken {\n    bool set;\n    uint256 tokenId;\n  }\n\n  event Receive(address indexed player, uint256 element1, uint256 rank1, uint256 element2, uint256 rank2);\n  event Redeem(address indexed player, uint256 element, uint256 reward);\n\n  /**\n   * Constructor inherits VRFConsumerBase\n   *\n   * Network: Kovan\n   * Chainlink VRF Coordinator address: 0xdD3782915140c8f3b190B5D67eAc6dc5760C46E9\n   * LINK token address:                0xa36085F69e2889c224210F603D836748e7dC0088\n   * Key Hash: 0x6c3699283bda56ad74f6b855546325b68d482e983852a7a82979cc4807b641f4\n   */\n  constructor(\n    string memory name,\n    string memory symbol,\n    address _vrf,\n    address _link\n  )\n    public\n    VRFConsumerBase(\n      _vrf, // VRF Coordinator\n      _link // LINK Token\n    )\n    Ownable()\n    ERC721(name, symbol)\n  {\n    link = _link;\n    keyHash = 0x6c3699283bda56ad74f6b855546325b68d482e983852a7a82979cc4807b641f4;\n    fee = 0.1 * 10**18; // 0.1 LINK\n    // Fire\n    rewardRates[0] = 1;\n    rates.push(Rate({number: 1900000, element: 0, rank: 0}));\n    rates.push(Rate({number: 700000, element: 0, rank: 1}));\n    rates.push(Rate({number: 300000, element: 0, rank: 2}));\n    // Water\n    rewardRates[1] = 5;\n    rates.push(Rate({number: 1800000, element: 1, rank: 0}));\n    rates.push(Rate({number: 600000, element: 1, rank: 1}));\n    rates.push(Rate({number: 150000, element: 1, rank: 2}));\n    // Earth\n    rewardRates[2] = 10;\n    rates.push(Rate({number: 1300000, element: 2, rank: 0}));\n    rates.push(Rate({number: 500000, element: 2, rank: 1}));\n    rates.push(Rate({number: 50000, element: 2, rank: 2}));\n    // Wind\n    rewardRates[3] = 25;\n    rates.push(Rate({number: 1292989, element: 3, rank: 0}));\n    rates.push(Rate({number: 400000, element: 3, rank: 1}));\n    rates.push(Rate({number: 7000, element: 3, rank: 2}));\n    // Light\n    rewardRates[4] = 50;\n    rates.push(Rate({number: 700000, element: 4, rank: 0}));\n    rates.push(Rate({number: 10, element: 4, rank: 1}));\n    // Dark\n    rewardRates[5] = 95;\n    rates.push(Rate({number: 300000, element: 5, rank: 0}));\n    rates.push(Rate({number: 1, element: 5, rank: 1}));\n  }\n\n  function tokenInfo(uint256 tokenId) public view returns (uint256 element, uint256 rank) {\n    require(_exists(tokenId), 'ERC721Metadata: URI query for nonexistent token');\n\n    element = tokens[tokenId].element;\n    rank = tokens[tokenId].rank;\n  }\n\n  function generating() external view returns (uint256) {\n    return _generating[msg.sender];\n  }\n\n  /**\n   * Receiver function for ERC677\n   */\n  function onTokenTransfer(\n    address _from,\n    uint256 _amount,\n    bytes calldata _data\n  ) external {\n    require(msg.sender == link, '6ELEMENT: Only LINK token is acceptable');\n    require(_amount == playFee, '6ELEMENT: Not enough LINK');\n    require(LINK.transfer(owner(), managementFee), '6ELEMENT: transfer error');\n\n    uint256 seed = uint256(blockhash(block.number - 1));\n    bytes32 requestId = requestRandomness(keyHash, fee, seed);\n    _receivers[requestId] = _from;\n    _generating[msg.sender] = _generating[msg.sender].add(2);\n  }\n\n  /**\n   * Callback function used by VRF Coordinator\n   */\n  function fulfillRandomness(bytes32 requestId, uint256 randomness) internal override {\n    address receiver = _receivers[requestId];\n\n    (uint8 element1, uint8 rank1) = _selectElement(randomness);\n    _createToken(element1, rank1);\n    _mint(receiver, _tokenId);\n    _tokenId++;\n    (uint8 element2, uint8 rank2) = _selectElement(uint256(keccak256(abi.encodePacked(randomness))));\n    _createToken(element2, rank2);\n    _mint(receiver, _tokenId);\n    _tokenId++;\n    _generating[msg.sender] = _generating[msg.sender].sub(2);\n\n    emit Receive(receiver, element1, rank1, element2, rank2);\n  }\n\n  function redeem(uint256[] calldata tokenIds) external {\n    // Check first token\n    require(ownerOf(tokenIds[0]) == msg.sender, '6ELEMENT: you are not owner');\n    uint8 element = tokens[tokenIds[0]].element;\n    bool[3] memory ranks;\n    if (element < 4) {\n      require(tokenIds.length == 3, '6ELEMENT: invalid id count');\n    } else {\n      require(tokenIds.length == 2, '6ELEMENT: invalid id count');\n      ranks[2] = true;\n    }\n    ranks[tokens[tokenIds[0]].rank] = true;\n\n    // Check other tokens\n    for (uint8 i = 1; i < tokenIds.length; i++) {\n      require(ownerOf(tokenIds[i]) == msg.sender, '6ELEMENT: you are not owner');\n      require(element == tokens[tokenIds[i]].element, '6ELEMENT: invalid token id');\n      ranks[tokens[tokenIds[i]].rank] = true;\n    }\n\n    // Are there all ranks?\n    for (uint8 i = 0; i < ranks.length; i++) {\n      require(ranks[i] == true, '6ELEMENT: invalid token id');\n    }\n\n    // Burn\n    for (uint256 i = 0; i < tokenIds.length; i++) {\n      _burn(tokenIds[i]);\n    }\n\n    // Reward\n    uint256 totalBalance = LINK.balanceOf(address(this));\n    uint256 reward = totalBalance.mul(rewardRates[element]).div(100);\n    require(LINK.transfer(msg.sender, reward), '6ELEMENT: transfer error');\n\n    emit Redeem(msg.sender, element, reward);\n  }\n\n  function _selectElement(uint256 randomness) private view returns (uint8 element, uint8 rank) {\n    uint256 target = randomness % 10000000;\n    uint256 sum;\n\n    for (uint256 i = 0; i < rates.length; i++) {\n      sum = sum.add(rates[i].number);\n      if (target < sum) {\n        return (rates[i].element, rates[i].rank);\n      }\n    }\n\n    revert('6ELEMENT: Selecting element error');\n  }\n\n  function _createToken(uint8 element, uint8 rank) private {\n    tokens[_tokenId] = Token({element: element, rank: rank});\n  }\n\n  function withdraw() external onlyOwner {\n    require(LINK.transfer(msg.sender, LINK.balanceOf(address(this))), '6ELEMENT: transfer error');\n  }\n}\n",
  "sourcePath": "/Users/tomohiro/Documents/Projects/cre8/6elements/contracts/SixElements.sol",
  "compiler": {
    "name": "solc",
    "version": "0.6.6+commit.6c089d02.Emscripten.clang"
  },
  "schemaVersion": "3.2.0",
  "updatedAt": "2020-11-03T23:58:03.192Z",
  "devdoc": {
    "methods": {
      "approve(address,uint256)": {
        "details": "See {IERC721-approve}."
      },
      "balanceOf(address)": {
        "details": "See {IERC721-balanceOf}."
      },
      "baseURI()": {
        "details": "Returns the base URI set via {_setBaseURI}. This will be automatically added as a prefix in {tokenURI} to each token's URI, or to the token ID if no specific URI is set for that token ID."
      },
      "getApproved(uint256)": {
        "details": "See {IERC721-getApproved}."
      },
      "isApprovedForAll(address,address)": {
        "details": "See {IERC721-isApprovedForAll}."
      },
      "name()": {
        "details": "See {IERC721Metadata-name}."
      },
      "owner()": {
        "details": "Returns the address of the current owner."
      },
      "ownerOf(uint256)": {
        "details": "See {IERC721-ownerOf}."
      },
      "renounceOwnership()": {
        "details": "Leaves the contract without owner. It will not be possible to call `onlyOwner` functions anymore. Can only be called by the current owner.     * NOTE: Renouncing ownership will leave the contract without an owner, thereby removing any functionality that is only available to the owner."
      },
      "requestRandomness(bytes32,uint256,uint256)": {
        "details": "See \"SECURITY CONSIDERATIONS\" above for more information on _seed.The fulfillRandomness method receives the output, once it's providedby the Oracle, and verified by the vrfCoordinator.The _keyHash must already be registered with the VRFCoordinator, andthe _fee must exceed the fee specified during registration of the_keyHash.The returned requestId can be used to distinguish responses to *concurrent requests. It is passed as the first argument tofulfillRandomness.",
        "params": {
          "_fee": "The amount of LINK to send with the request",
          "_keyHash": "ID of public key against which randomness is generated",
          "_seed": "seed mixed into the input of the VRF"
        },
        "returns": {
          "requestId": "unique ID for this request"
        }
      },
      "safeTransferFrom(address,address,uint256)": {
        "details": "See {IERC721-safeTransferFrom}."
      },
      "safeTransferFrom(address,address,uint256,bytes)": {
        "details": "See {IERC721-safeTransferFrom}."
      },
      "setApprovalForAll(address,bool)": {
        "details": "See {IERC721-setApprovalForAll}."
      },
      "supportsInterface(bytes4)": {
        "details": "See {IERC165-supportsInterface}.     * Time complexity O(1), guaranteed to always use less than 30 000 gas."
      },
      "symbol()": {
        "details": "See {IERC721Metadata-symbol}."
      },
      "tokenByIndex(uint256)": {
        "details": "See {IERC721Enumerable-tokenByIndex}."
      },
      "tokenOfOwnerByIndex(address,uint256)": {
        "details": "See {IERC721Enumerable-tokenOfOwnerByIndex}."
      },
      "tokenURI(uint256)": {
        "details": "See {IERC721Metadata-tokenURI}."
      },
      "totalSupply()": {
        "details": "See {IERC721Enumerable-totalSupply}."
      },
      "transferFrom(address,address,uint256)": {
        "details": "See {IERC721-transferFrom}."
      },
      "transferOwnership(address)": {
        "details": "Transfers ownership of the contract to a new account (`newOwner`). Can only be called by the current owner."
      }
    }
  },
  "userdoc": {
    "methods": {
      "constructor": "Constructor inherits VRFConsumerBase   * Network: Kovan Chainlink VRF Coordinator address: 0xdD3782915140c8f3b190B5D67eAc6dc5760C46E9 LINK token address:                0xa36085F69e2889c224210F603D836748e7dC0088 Key Hash: 0x6c3699283bda56ad74f6b855546325b68d482e983852a7a82979cc4807b641f4",
      "onTokenTransfer(address,uint256,bytes)": {
        "notice": "Receiver function for ERC677"
      },
      "requestRandomness(bytes32,uint256,uint256)": {
        "notice": "requestRandomness initiates a request for VRF output given _seed"
      }
    }
  }
}