{
  "contractName": "TestLinkToken",
  "abi": [
    {
      "inputs": [
        {
          "internalType": "address",
          "name": "tester",
          "type": "address"
        }
      ],
      "stateMutability": "nonpayable",
      "type": "constructor"
    },
    {
      "anonymous": false,
      "inputs": [
        {
          "indexed": true,
          "internalType": "address",
          "name": "owner",
          "type": "address"
        },
        {
          "indexed": true,
          "internalType": "address",
          "name": "spender",
          "type": "address"
        },
        {
          "indexed": false,
          "internalType": "uint256",
          "name": "value",
          "type": "uint256"
        }
      ],
      "name": "Approval",
      "type": "event"
    },
    {
      "anonymous": false,
      "inputs": [
        {
          "indexed": true,
          "internalType": "address",
          "name": "from",
          "type": "address"
        },
        {
          "indexed": true,
          "internalType": "address",
          "name": "to",
          "type": "address"
        },
        {
          "indexed": false,
          "internalType": "uint256",
          "name": "value",
          "type": "uint256"
        }
      ],
      "name": "Transfer",
      "type": "event"
    },
    {
      "inputs": [
        {
          "internalType": "address",
          "name": "",
          "type": "address"
        },
        {
          "internalType": "address",
          "name": "",
          "type": "address"
        }
      ],
      "name": "allowance",
      "outputs": [
        {
          "internalType": "uint256",
          "name": "",
          "type": "uint256"
        }
      ],
      "stateMutability": "view",
      "type": "function"
    },
    {
      "inputs": [
        {
          "internalType": "address",
          "name": "",
          "type": "address"
        }
      ],
      "name": "balanceOf",
      "outputs": [
        {
          "internalType": "uint256",
          "name": "",
          "type": "uint256"
        }
      ],
      "stateMutability": "view",
      "type": "function"
    },
    {
      "inputs": [],
      "name": "decimals",
      "outputs": [
        {
          "internalType": "uint8",
          "name": "",
          "type": "uint8"
        }
      ],
      "stateMutability": "view",
      "type": "function"
    },
    {
      "inputs": [],
      "name": "name",
      "outputs": [
        {
          "internalType": "string",
          "name": "",
          "type": "string"
        }
      ],
      "stateMutability": "view",
      "type": "function"
    },
    {
      "inputs": [],
      "name": "symbol",
      "outputs": [
        {
          "internalType": "string",
          "name": "",
          "type": "string"
        }
      ],
      "stateMutability": "view",
      "type": "function"
    },
    {
      "inputs": [],
      "name": "totalSupply",
      "outputs": [
        {
          "internalType": "uint256",
          "name": "",
          "type": "uint256"
        }
      ],
      "stateMutability": "view",
      "type": "function"
    },
    {
      "inputs": [
        {
          "internalType": "address",
          "name": "to",
          "type": "address"
        },
        {
          "internalType": "uint256",
          "name": "value",
          "type": "uint256"
        }
      ],
      "name": "_mint",
      "outputs": [],
      "stateMutability": "nonpayable",
      "type": "function"
    },
    {
      "inputs": [
        {
          "internalType": "address",
          "name": "from",
          "type": "address"
        },
        {
          "internalType": "uint256",
          "name": "value",
          "type": "uint256"
        }
      ],
      "name": "_burn",
      "outputs": [],
      "stateMutability": "nonpayable",
      "type": "function"
    },
    {
      "inputs": [
        {
          "internalType": "address",
          "name": "spender",
          "type": "address"
        },
        {
          "internalType": "uint256",
          "name": "value",
          "type": "uint256"
        }
      ],
      "name": "approve",
      "outputs": [
        {
          "internalType": "bool",
          "name": "",
          "type": "bool"
        }
      ],
      "stateMutability": "nonpayable",
      "type": "function"
    },
    {
      "inputs": [
        {
          "internalType": "address",
          "name": "to",
          "type": "address"
        },
        {
          "internalType": "uint256",
          "name": "value",
          "type": "uint256"
        }
      ],
      "name": "transfer",
      "outputs": [
        {
          "internalType": "bool",
          "name": "",
          "type": "bool"
        }
      ],
      "stateMutability": "nonpayable",
      "type": "function"
    },
    {
      "inputs": [
        {
          "internalType": "address",
          "name": "from",
          "type": "address"
        },
        {
          "internalType": "address",
          "name": "to",
          "type": "address"
        },
        {
          "internalType": "uint256",
          "name": "value",
          "type": "uint256"
        }
      ],
      "name": "transferFrom",
      "outputs": [
        {
          "internalType": "bool",
          "name": "",
          "type": "bool"
        }
      ],
      "stateMutability": "nonpayable",
      "type": "function"
    },
    {
      "inputs": [
        {
          "internalType": "address",
          "name": "_to",
          "type": "address"
        },
        {
          "internalType": "uint256",
          "name": "_value",
          "type": "uint256"
        },
        {
          "internalType": "bytes",
          "name": "_data",
          "type": "bytes"
        }
      ],
      "name": "transferAndCall",
      "outputs": [
        {
          "internalType": "bool",
          "name": "success",
          "type": "bool"
        }
      ],
      "stateMutability": "nonpayable",
      "type": "function"
    }
  ],
  "bytecode": "0x608060405234801561001057600080fd5b506040516113013803806113018339818101604052602081101561003357600080fd5b81019080805190602001909291905050506100a76c0c9f2c9cd04674edea40000000600160003373ffffffffffffffffffffffffffffffffffffffff1673ffffffffffffffffffffffffffffffffffffffff168152602001908152602001600020546101bf60201b610f2d1790919060201c565b600160003373ffffffffffffffffffffffffffffffffffffffff1673ffffffffffffffffffffffffffffffffffffffff1681526020019081526020016000208190555061014d6c0c9f2c9cd04674edea40000000600160008473ffffffffffffffffffffffffffffffffffffffff1673ffffffffffffffffffffffffffffffffffffffff168152602001908152602001600020546101bf60201b610f2d1790919060201c565b600160008373ffffffffffffffffffffffffffffffffffffffff1673ffffffffffffffffffffffffffffffffffffffff168152602001908152602001600020819055506101b369d3c21bcecceda10000006000546101bf60201b610f2d1790919060201c565b60008190555050610247565b60008082840190508381101561023d576040517f08c379a000000000000000000000000000000000000000000000000000000000815260040180806020018281038252601b8152602001807f536166654d6174683a206164646974696f6e206f766572666c6f77000000000081525060200191505060405180910390fd5b8091505092915050565b6110ab806102566000396000f3fe608060405234801561001057600080fd5b50600436106100b45760003560e01c80634e6ec247116100715780634e6ec247146103675780636161eb18146103b557806370a082311461040357806395d89b411461045b578063a9059cbb146104de578063dd62ed3e14610544576100b4565b806306fdde03146100b9578063095ea7b31461013c57806318160ddd146101a257806323b872dd146101c0578063313ce567146102465780634000aea01461026a575b600080fd5b6100c16105bc565b6040518080602001828103825283818151815260200191508051906020019080838360005b838110156101015780820151818401526020810190506100e6565b50505050905090810190601f16801561012e5780820380516001836020036101000a031916815260200191505b509250505060405180910390f35b6101886004803603604081101561015257600080fd5b81019080803573ffffffffffffffffffffffffffffffffffffffff169060200190929190803590602001909291905050506105f5565b604051808215151515815260200191505060405180910390f35b6101aa61060c565b6040518082815260200191505060405180910390f35b61022c600480360360608110156101d657600080fd5b81019080803573ffffffffffffffffffffffffffffffffffffffff169060200190929190803573ffffffffffffffffffffffffffffffffffffffff16906020019092919080359060200190929190505050610612565b604051808215151515815260200191505060405180910390f35b61024e6107dd565b604051808260ff1660ff16815260200191505060405180910390f35b61034d6004803603606081101561028057600080fd5b81019080803573ffffffffffffffffffffffffffffffffffffffff16906020019092919080359060200190929190803590602001906401000000008111156102c757600080fd5b8201836020820111156102d957600080fd5b803590602001918460018302840111640100000000831117156102fb57600080fd5b91908080601f016020809104026020016040519081016040528093929190818152602001838380828437600081840152601f19601f8201169050808301925050505050505091929192905050506107e2565b604051808215151515815260200191505060405180910390f35b6103b36004803603604081101561037d57600080fd5b81019080803573ffffffffffffffffffffffffffffffffffffffff16906020019092919080359060200190929190505050610879565b005b610401600480360360408110156103cb57600080fd5b81019080803573ffffffffffffffffffffffffffffffffffffffff16906020019092919080359060200190929190505050610993565b005b6104456004803603602081101561041957600080fd5b81019080803573ffffffffffffffffffffffffffffffffffffffff169060200190929190505050610aad565b6040518082815260200191505060405180910390f35b610463610ac5565b6040518080602001828103825283818151815260200191508051906020019080838360005b838110156104a3578082015181840152602081019050610488565b50505050905090810190601f1680156104d05780820380516001836020036101000a031916815260200191505b509250505060405180910390f35b61052a600480360360408110156104f457600080fd5b81019080803573ffffffffffffffffffffffffffffffffffffffff16906020019092919080359060200190929190505050610afe565b604051808215151515815260200191505060405180910390f35b6105a66004803603604081101561055a57600080fd5b81019080803573ffffffffffffffffffffffffffffffffffffffff169060200190929190803573ffffffffffffffffffffffffffffffffffffffff169060200190929190505050610b15565b6040518082815260200191505060405180910390f35b6040518060400160405280600881526020017f546573744c696e6b00000000000000000000000000000000000000000000000081525081565b6000610602338484610b3a565b6001905092915050565b60005481565b60007fffffffffffffffffffffffffffffffffffffffffffffffffffffffffffffffff600260008673ffffffffffffffffffffffffffffffffffffffff1673ffffffffffffffffffffffffffffffffffffffff16815260200190815260200160002060003373ffffffffffffffffffffffffffffffffffffffff1673ffffffffffffffffffffffffffffffffffffffff16815260200190815260200160002054146107c75761074682600260008773ffffffffffffffffffffffffffffffffffffffff1673ffffffffffffffffffffffffffffffffffffffff16815260200190815260200160002060003373ffffffffffffffffffffffffffffffffffffffff1673ffffffffffffffffffffffffffffffffffffffff16815260200190815260200160002054610c2590919063ffffffff16565b600260008673ffffffffffffffffffffffffffffffffffffffff1673ffffffffffffffffffffffffffffffffffffffff16815260200190815260200160002060003373ffffffffffffffffffffffffffffffffffffffff1673ffffffffffffffffffffffffffffffffffffffff168152602001908152602001600020819055505b6107d2848484610c6f565b600190509392505050565b601281565b60006107ef338585610c6f565b8373ffffffffffffffffffffffffffffffffffffffff163373ffffffffffffffffffffffffffffffffffffffff167fddf252ad1be2c89b69c2b068fc378daa952ba7f163c4a11628f55a4df523b3ef856040518082815260200191505060405180910390a361085d84610e03565b1561086e5761086d848484610e16565b5b600190509392505050565b61088e81600054610f2d90919063ffffffff16565b6000819055506108e681600160008573ffffffffffffffffffffffffffffffffffffffff1673ffffffffffffffffffffffffffffffffffffffff16815260200190815260200160002054610f2d90919063ffffffff16565b600160008473ffffffffffffffffffffffffffffffffffffffff1673ffffffffffffffffffffffffffffffffffffffff168152602001908152602001600020819055508173ffffffffffffffffffffffffffffffffffffffff16600073ffffffffffffffffffffffffffffffffffffffff167fddf252ad1be2c89b69c2b068fc378daa952ba7f163c4a11628f55a4df523b3ef836040518082815260200191505060405180910390a35050565b6109e581600160008573ffffffffffffffffffffffffffffffffffffffff1673ffffffffffffffffffffffffffffffffffffffff16815260200190815260200160002054610c2590919063ffffffff16565b600160008473ffffffffffffffffffffffffffffffffffffffff1673ffffffffffffffffffffffffffffffffffffffff16815260200190815260200160002081905550610a3d81600054610c2590919063ffffffff16565b600081905550600073ffffffffffffffffffffffffffffffffffffffff168273ffffffffffffffffffffffffffffffffffffffff167fddf252ad1be2c89b69c2b068fc378daa952ba7f163c4a11628f55a4df523b3ef836040518082815260200191505060405180910390a35050565b60016020528060005260406000206000915090505481565b6040518060400160405280600581526020017f544c494e4b00000000000000000000000000000000000000000000000000000081525081565b6000610b0b338484610c6f565b6001905092915050565b6002602052816000526040600020602052806000526040600020600091509150505481565b80600260008573ffffffffffffffffffffffffffffffffffffffff1673ffffffffffffffffffffffffffffffffffffffff16815260200190815260200160002060008473ffffffffffffffffffffffffffffffffffffffff1673ffffffffffffffffffffffffffffffffffffffff168152602001908152602001600020819055508173ffffffffffffffffffffffffffffffffffffffff168373ffffffffffffffffffffffffffffffffffffffff167f8c5be1e5ebec7d5bd14f71427d1e84f3dd0314c0f7b2291e5b200ac8c7c3b925836040518082815260200191505060405180910390a3505050565b6000610c6783836040518060400160405280601e81526020017f536166654d6174683a207375627472616374696f6e206f766572666c6f770000815250610fb5565b905092915050565b610cc181600160008673ffffffffffffffffffffffffffffffffffffffff1673ffffffffffffffffffffffffffffffffffffffff16815260200190815260200160002054610c2590919063ffffffff16565b600160008573ffffffffffffffffffffffffffffffffffffffff1673ffffffffffffffffffffffffffffffffffffffff16815260200190815260200160002081905550610d5681600160008573ffffffffffffffffffffffffffffffffffffffff1673ffffffffffffffffffffffffffffffffffffffff16815260200190815260200160002054610f2d90919063ffffffff16565b600160008473ffffffffffffffffffffffffffffffffffffffff1673ffffffffffffffffffffffffffffffffffffffff168152602001908152602001600020819055508173ffffffffffffffffffffffffffffffffffffffff168373ffffffffffffffffffffffffffffffffffffffff167fddf252ad1be2c89b69c2b068fc378daa952ba7f163c4a11628f55a4df523b3ef836040518082815260200191505060405180910390a3505050565b600080823b905060008111915050919050565b60008390508073ffffffffffffffffffffffffffffffffffffffff1663a4c0ed363385856040518463ffffffff1660e01b8152600401808473ffffffffffffffffffffffffffffffffffffffff1673ffffffffffffffffffffffffffffffffffffffff16815260200183815260200180602001828103825283818151815260200191508051906020019080838360005b83811015610ec1578082015181840152602081019050610ea6565b50505050905090810190601f168015610eee5780820380516001836020036101000a031916815260200191505b50945050505050600060405180830381600087803b158015610f0f57600080fd5b505af1158015610f23573d6000803e3d6000fd5b5050505050505050565b600080828401905083811015610fab576040517f08c379a000000000000000000000000000000000000000000000000000000000815260040180806020018281038252601b8152602001807f536166654d6174683a206164646974696f6e206f766572666c6f77000000000081525060200191505060405180910390fd5b8091505092915050565b6000838311158290611062576040517f08c379a00000000000000000000000000000000000000000000000000000000081526004018080602001828103825283818151815260200191508051906020019080838360005b8381101561102757808201518184015260208101905061100c565b50505050905090810190601f1680156110545780820380516001836020036101000a031916815260200191505b509250505060405180910390fd5b506000838503905080915050939250505056fea2646970667358221220189c48ba3ea9b28d86315fbf45d109d41482ffa46f4fd33561bb52ca78f0ebff64736f6c63430006060033",
  "immutableReferences": {},
  "source": "pragma solidity >=0.4.23 <0.8.0;\n\nimport '@openzeppelin/contracts/token/ERC20/IERC20.sol';\nimport '@openzeppelin/contracts/math/SafeMath.sol';\n\nabstract contract ERC677Receiver {\n  function onTokenTransfer(\n    address _sender,\n    uint256 _value,\n    bytes memory _data\n  ) public virtual;\n}\n\ncontract TestLinkToken is IERC20 {\n  using SafeMath for uint256;\n\n  string public constant name = 'TestLink';\n  string public constant symbol = 'TLINK';\n  uint8 public constant decimals = 18;\n  uint256 public override totalSupply;\n  mapping(address => uint256) public override balanceOf;\n  mapping(address => mapping(address => uint256)) public override allowance;\n\n  event Approval(address indexed owner, address indexed spender, uint256 value);\n  event Transfer(address indexed from, address indexed to, uint256 value);\n\n  constructor(address tester) public {\n    balanceOf[msg.sender] = balanceOf[msg.sender].add(1000000000000 * (10**18));\n    balanceOf[tester] = balanceOf[tester].add(1000000000000 * (10**18));\n    totalSupply = totalSupply.add(1000000 * (10**18));\n  }\n\n  function _mint(address to, uint256 value) public {\n    totalSupply = totalSupply.add(value);\n    balanceOf[to] = balanceOf[to].add(value);\n    emit Transfer(address(0), to, value);\n  }\n\n  function _burn(address from, uint256 value) public {\n    balanceOf[from] = balanceOf[from].sub(value);\n    totalSupply = totalSupply.sub(value);\n    emit Transfer(from, address(0), value);\n  }\n\n  function _approve(\n    address owner,\n    address spender,\n    uint256 value\n  ) private {\n    allowance[owner][spender] = value;\n    emit Approval(owner, spender, value);\n  }\n\n  function _transfer(\n    address from,\n    address to,\n    uint256 value\n  ) private {\n    balanceOf[from] = balanceOf[from].sub(value);\n    balanceOf[to] = balanceOf[to].add(value);\n    emit Transfer(from, to, value);\n  }\n\n  function approve(address spender, uint256 value) external override returns (bool) {\n    _approve(msg.sender, spender, value);\n    return true;\n  }\n\n  function transfer(address to, uint256 value) external override returns (bool) {\n    _transfer(msg.sender, to, value);\n    return true;\n  }\n\n  function transferFrom(\n    address from,\n    address to,\n    uint256 value\n  ) external override returns (bool) {\n    if (allowance[from][msg.sender] != uint256(-1)) {\n      allowance[from][msg.sender] = allowance[from][msg.sender].sub(value);\n    }\n    _transfer(from, to, value);\n    return true;\n  }\n\n  function transferAndCall(\n    address _to,\n    uint256 _value,\n    bytes memory _data\n  ) public returns (bool success) {\n    _transfer(msg.sender, _to, _value);\n    Transfer(msg.sender, _to, _value);\n    if (isContract(_to)) {\n      contractFallback(_to, _value, _data);\n    }\n    return true;\n  }\n\n  function contractFallback(\n    address _to,\n    uint256 _value,\n    bytes memory _data\n  ) private {\n    ERC677Receiver receiver = ERC677Receiver(_to);\n    receiver.onTokenTransfer(msg.sender, _value, _data);\n  }\n\n  function isContract(address _addr) private returns (bool hasCode) {\n    uint256 length;\n    assembly {\n      length := extcodesize(_addr)\n    }\n    return length > 0;\n  }\n}\n\n// // SPDX-License-Identifier: MIT\n// pragma solidity >=0.4.21 <0.7.0;\n\n// /**\n//  * @title SafeMath\n//  * @dev Math operations with safety checks that throw on error\n//  */\n// library SafeMath {\n//   function mul(uint256 a, uint256 b) internal view returns (uint256) {\n//     uint256 c = a * b;\n//     assert(a == 0 || c / a == b);\n//     return c;\n//   }\n\n//   function div(uint256 a, uint256 b) internal view returns (uint256) {\n//     // assert(b > 0); // Solidity automatically throws when dividing by 0\n//     uint256 c = a / b;\n//     // assert(a == b * c + a % b); // There is no case in which this doesn't hold\n//     return c;\n//   }\n\n//   function sub(uint256 a, uint256 b) internal view returns (uint256) {\n//     assert(b <= a);\n//     return a - b;\n//   }\n\n//   function add(uint256 a, uint256 b) internal view returns (uint256) {\n//     uint256 c = a + b;\n//     assert(c >= a);\n//     return c;\n//   }\n// }\n\n// /**\n//  * @title ERC20Basic\n//  * @dev Simpler version of ERC20 interface\n//  * @dev see https://github.com/ethereum/EIPs/issues/179\n//  */\n// contract ERC20Basic {\n//   uint256 public totalSupply;\n\n//   function balanceOf(address who) public view returns (uint256);\n\n//   function transfer(address to, uint256 value) public returns (bool);\n\n//   event Transfer(address indexed from, address indexed to, uint256 value);\n// }\n\n// /**\n//  * @title ERC20 interface\n//  * @dev see https://github.com/ethereum/EIPs/issues/20\n//  */\n// contract ERC20 is ERC20Basic {\n//   function allowance(address owner, address spender) public view returns (uint256);\n\n//   function transferFrom(\n//     address from,\n//     address to,\n//     uint256 value\n//   ) public returns (bool);\n\n//   function approve(address spender, uint256 value) public returns (bool);\n\n//   event Approval(address indexed owner, address indexed spender, uint256 value);\n// }\n\n// contract ERC677 is ERC20 {\n//   function transferAndCall(\n//     address to,\n//     uint256 value,\n//     bytes memory data\n//   ) public returns (bool success);\n\n//   event Transfer(address indexed from, address indexed to, uint256 value, bytes data);\n// }\n\n// contract ERC677Receiver {\n//   function onTokenTransfer(\n//     address _sender,\n//     uint256 _value,\n//     bytes memory _data\n//   ) public;\n// }\n\n// /**\n//  * @title Basic token\n//  * @dev Basic version of StandardToken, with no allowances.\n//  */\n// contract BasicToken is ERC20Basic {\n//   using SafeMath for uint256;\n\n//   mapping(address => uint256) balances;\n\n//   /**\n//    * @dev transfer token for a specified address\n//    * @param _to The address to transfer to.\n//    * @param _value The amount to be transferred.\n//    */\n//   function transfer(address _to, uint256 _value) public returns (bool) {\n//     balances[msg.sender] = balances[msg.sender].sub(_value);\n//     balances[_to] = balances[_to].add(_value);\n//     Transfer(msg.sender, _to, _value);\n//     return true;\n//   }\n\n//   /**\n//    * @dev Gets the balance of the specified address.\n//    * @param _owner The address to query the the balance of.\n//    * @return balance An uint256 representing the amount owned by the passed address.\n//    */\n//   function balanceOf(address _owner) public view returns (uint256 balance) {\n//     return balances[_owner];\n//   }\n// }\n\n// /**\n//  * @title Standard ERC20 token\n//  *\n//  * @dev Implementation of the basic standard token.\n//  * @dev https://github.com/ethereum/EIPs/issues/20\n//  * @dev Based on code by FirstBlood: https://github.com/Firstbloodio/token/blob/master/smart_contract/FirstBloodToken.sol\n//  */\n// contract StandardToken is ERC20, BasicToken {\n//   mapping(address => mapping(address => uint256)) allowed;\n\n//   /**\n//    * @dev Transfer tokens from one address to another\n//    * @param _from address The address which you want to send tokens from\n//    * @param _to address The address which you want to transfer to\n//    * @param _value uint256 the amount of tokens to be transferred\n//    */\n//   function transferFrom(\n//     address _from,\n//     address _to,\n//     uint256 _value\n//   ) public returns (bool) {\n//     var _allowance = allowed[_from][msg.sender];\n\n//     // Check is not needed because sub(_allowance, _value) will already throw if this condition is not met\n//     // require (_value <= _allowance);\n\n//     balances[_from] = balances[_from].sub(_value);\n//     balances[_to] = balances[_to].add(_value);\n//     allowed[_from][msg.sender] = _allowance.sub(_value);\n//     Transfer(_from, _to, _value);\n//     return true;\n//   }\n\n//   /**\n//    * @dev Approve the passed address to spend the specified amount of tokens on behalf of msg.sender.\n//    * @param _spender The address which will spend the funds.\n//    * @param _value The amount of tokens to be spent.\n//    */\n//   function approve(address _spender, uint256 _value) public returns (bool) {\n//     allowed[msg.sender][_spender] = _value;\n//     Approval(msg.sender, _spender, _value);\n//     return true;\n//   }\n\n//   /**\n//    * @dev Function to check the amount of tokens that an owner allowed to a spender.\n//    * @param _owner address The address which owns the funds.\n//    * @param _spender address The address which will spend the funds.\n//    * @return remaining A uint256 specifying the amount of tokens still available for the spender.\n//    */\n//   function allowance(address _owner, address _spender) public view returns (uint256 remaining) {\n//     return allowed[_owner][_spender];\n//   }\n\n//   /*\n//    * approve should be called when allowed[_spender] == 0. To increment\n//    * allowed value is better to use this function to avoid 2 calls (and wait until\n//    * the first transaction is mined)\n//    * From MonolithDAO Token.sol\n//    */\n//   function increaseApproval(address _spender, uint256 _addedValue) public returns (bool success) {\n//     allowed[msg.sender][_spender] = allowed[msg.sender][_spender].add(_addedValue);\n//     Approval(msg.sender, _spender, allowed[msg.sender][_spender]);\n//     return true;\n//   }\n\n//   function decreaseApproval(address _spender, uint256 _subtractedValue) public returns (bool success) {\n//     uint256 oldValue = allowed[msg.sender][_spender];\n//     if (_subtractedValue > oldValue) {\n//       allowed[msg.sender][_spender] = 0;\n//     } else {\n//       allowed[msg.sender][_spender] = oldValue.sub(_subtractedValue);\n//     }\n//     Approval(msg.sender, _spender, allowed[msg.sender][_spender]);\n//     return true;\n//   }\n// }\n\n// contract ERC677Token is ERC677 {\n//   /**\n//    * @dev transfer token to a contract address with additional data if the recipient is a contact.\n//    * @param _to The address to transfer to.\n//    * @param _value The amount to be transferred.\n//    * @param _data The extra data to be passed to the receiving contract.\n//    */\n//   function transferAndCall(\n//     address _to,\n//     uint256 _value,\n//     bytes memory _data\n//   ) public returns (bool success) {\n//     super.transfer(_to, _value);\n//     Transfer(msg.sender, _to, _value, _data);\n//     if (isContract(_to)) {\n//       contractFallback(_to, _value, _data);\n//     }\n//     return true;\n//   }\n\n//   // PRIVATE\n\n//   function contractFallback(\n//     address _to,\n//     uint256 _value,\n//     bytes memory _data\n//   ) private {\n//     ERC677Receiver receiver = ERC677Receiver(_to);\n//     receiver.onTokenTransfer(msg.sender, _value, _data);\n//   }\n\n//   function isContract(address _addr) private returns (bool hasCode) {\n//     uint256 length;\n//     assembly {\n//       length := extcodesize(_addr)\n//     }\n//     return length > 0;\n//   }\n// }\n\n// contract LinkToken is StandardToken, ERC677Token {\n//   uint256 public constant totalSupply = 10**27;\n//   string public constant name = 'ChainLink Token';\n//   uint8 public constant decimals = 18;\n//   string public constant symbol = 'LINK';\n\n//   constructor() public {\n//     balances[msg.sender] = totalSupply;\n//   }\n\n//   /**\n//    * @dev transfer token to a specified address with additional data if the recipient is a contract.\n//    * @param _to The address to transfer to.\n//    * @param _value The amount to be transferred.\n//    * @param _data The extra data to be passed to the receiving contract.\n//    */\n//   function transferAndCall(\n//     address _to,\n//     uint256 _value,\n//     bytes memory _data\n//   ) public validRecipient(_to) returns (bool success) {\n//     return super.transferAndCall(_to, _value, _data);\n//   }\n\n//   /**\n//    * @dev transfer token to a specified address.\n//    * @param _to The address to transfer to.\n//    * @param _value The amount to be transferred.\n//    */\n//   function transfer(address _to, uint256 _value) public validRecipient(_to) returns (bool success) {\n//     return super.transfer(_to, _value);\n//   }\n\n//   /**\n//    * @dev Approve the passed address to spend the specified amount of tokens on behalf of msg.sender.\n//    * @param _spender The address which will spend the funds.\n//    * @param _value The amount of tokens to be spent.\n//    */\n//   function approve(address _spender, uint256 _value) public validRecipient(_spender) returns (bool) {\n//     return super.approve(_spender, _value);\n//   }\n\n//   /**\n//    * @dev Transfer tokens from one address to another\n//    * @param _from address The address which you want to send tokens from\n//    * @param _to address The address which you want to transfer to\n//    * @param _value uint256 the amount of tokens to be transferred\n//    */\n//   function transferFrom(\n//     address _from,\n//     address _to,\n//     uint256 _value\n//   ) public validRecipient(_to) returns (bool) {\n//     return super.transferFrom(_from, _to, _value);\n//   }\n\n//   // MODIFIERS\n\n//   modifier validRecipient(address _recipient) {\n//     require(_recipient != address(0) && _recipient != address(this));\n//     _;\n//   }\n// }\n",
  "sourcePath": "/Users/tomohiro/Documents/Projects/cre8/6elements/contracts/chainlink/TestLinkToken.sol",
  "compiler": {
    "name": "solc",
    "version": "0.6.6+commit.6c089d02.Emscripten.clang"
  },
  "schemaVersion": "3.2.0",
  "updatedAt": "2020-11-03T23:58:03.209Z",
  "devdoc": {
    "methods": {}
  },
  "userdoc": {
    "methods": {}
  }
}